{"abi":[{"type":"function","name":"CLOCK_MODE","inputs":[],"outputs":[{"name":"","type":"string","internalType":"string"}],"stateMutability":"pure"},{"type":"function","name":"DOMAIN_SEPARATOR","inputs":[],"outputs":[{"name":"","type":"bytes32","internalType":"bytes32"}],"stateMutability":"view"},{"type":"function","name":"acceptOwnership","inputs":[],"outputs":[],"stateMutability":"nonpayable"},{"type":"function","name":"addressManager","inputs":[],"outputs":[{"name":"","type":"address","internalType":"address"}],"stateMutability":"view"},{"type":"function","name":"allowance","inputs":[{"name":"owner","type":"address","internalType":"address"},{"name":"spender","type":"address","internalType":"address"}],"outputs":[{"name":"","type":"uint256","internalType":"uint256"}],"stateMutability":"view"},{"type":"function","name":"approve","inputs":[{"name":"spender","type":"address","internalType":"address"},{"name":"amount","type":"uint256","internalType":"uint256"}],"outputs":[{"name":"","type":"bool","internalType":"bool"}],"stateMutability":"nonpayable"},{"type":"function","name":"balanceOf","inputs":[{"name":"account","type":"address","internalType":"address"}],"outputs":[{"name":"","type":"uint256","internalType":"uint256"}],"stateMutability":"view"},{"type":"function","name":"batchTransfer","inputs":[{"name":"recipients","type":"address[]","internalType":"address[]"},{"name":"amounts","type":"uint256[]","internalType":"uint256[]"}],"outputs":[{"name":"","type":"bool","internalType":"bool"}],"stateMutability":"nonpayable"},{"type":"function","name":"burn","inputs":[{"name":"from","type":"address","internalType":"address"},{"name":"amount","type":"uint256","internalType":"uint256"}],"outputs":[],"stateMutability":"nonpayable"},{"type":"function","name":"checkpoints","inputs":[{"name":"account","type":"address","internalType":"address"},{"name":"pos","type":"uint32","internalType":"uint32"}],"outputs":[{"name":"","type":"tuple","internalType":"struct ERC20VotesUpgradeable.Checkpoint","components":[{"name":"fromBlock","type":"uint32","internalType":"uint32"},{"name":"votes","type":"uint224","internalType":"uint224"}]}],"stateMutability":"view"},{"type":"function","name":"clock","inputs":[],"outputs":[{"name":"","type":"uint48","internalType":"uint48"}],"stateMutability":"view"},{"type":"function","name":"decimals","inputs":[],"outputs":[{"name":"","type":"uint8","internalType":"uint8"}],"stateMutability":"view"},{"type":"function","name":"decreaseAllowance","inputs":[{"name":"spender","type":"address","internalType":"address"},{"name":"subtractedValue","type":"uint256","internalType":"uint256"}],"outputs":[{"name":"","type":"bool","internalType":"bool"}],"stateMutability":"nonpayable"},{"type":"function","name":"delegate","inputs":[{"name":"delegatee","type":"address","internalType":"address"}],"outputs":[],"stateMutability":"nonpayable"},{"type":"function","name":"delegateBySig","inputs":[{"name":"delegatee","type":"address","internalType":"address"},{"name":"nonce","type":"uint256","internalType":"uint256"},{"name":"expiry","type":"uint256","internalType":"uint256"},{"name":"v","type":"uint8","internalType":"uint8"},{"name":"r","type":"bytes32","internalType":"bytes32"},{"name":"s","type":"bytes32","internalType":"bytes32"}],"outputs":[],"stateMutability":"nonpayable"},{"type":"function","name":"delegates","inputs":[{"name":"account","type":"address","internalType":"address"}],"outputs":[{"name":"","type":"address","internalType":"address"}],"stateMutability":"view"},{"type":"function","name":"eip712Domain","inputs":[],"outputs":[{"name":"fields","type":"bytes1","internalType":"bytes1"},{"name":"name","type":"string","internalType":"string"},{"name":"version","type":"string","internalType":"string"},{"name":"chainId","type":"uint256","internalType":"uint256"},{"name":"verifyingContract","type":"address","internalType":"address"},{"name":"salt","type":"bytes32","internalType":"bytes32"},{"name":"extensions","type":"uint256[]","internalType":"uint256[]"}],"stateMutability":"view"},{"type":"function","name":"getPastTotalSupply","inputs":[{"name":"timepoint","type":"uint256","internalType":"uint256"}],"outputs":[{"name":"","type":"uint256","internalType":"uint256"}],"stateMutability":"view"},{"type":"function","name":"getPastVotes","inputs":[{"name":"account","type":"address","internalType":"address"},{"name":"timepoint","type":"uint256","internalType":"uint256"}],"outputs":[{"name":"","type":"uint256","internalType":"uint256"}],"stateMutability":"view"},{"type":"function","name":"getVotes","inputs":[{"name":"account","type":"address","internalType":"address"}],"outputs":[{"name":"","type":"uint256","internalType":"uint256"}],"stateMutability":"view"},{"type":"function","name":"impl","inputs":[],"outputs":[{"name":"","type":"address","internalType":"address"}],"stateMutability":"view"},{"type":"function","name":"inNonReentrant","inputs":[],"outputs":[{"name":"","type":"bool","internalType":"bool"}],"stateMutability":"view"},{"type":"function","name":"increaseAllowance","inputs":[{"name":"spender","type":"address","internalType":"address"},{"name":"addedValue","type":"uint256","internalType":"uint256"}],"outputs":[{"name":"","type":"bool","internalType":"bool"}],"stateMutability":"nonpayable"},{"type":"function","name":"init","inputs":[{"name":"_owner","type":"address","internalType":"address"},{"name":"_recipient","type":"address","internalType":"address"}],"outputs":[],"stateMutability":"nonpayable"},{"type":"function","name":"init2","inputs":[{"name":"_addressManager","type":"address","internalType":"address"},{"name":"_owner","type":"address","internalType":"address"},{"name":"_oldTokenVault","type":"address","internalType":"address"},{"name":"_recipient","type":"address","internalType":"address"}],"outputs":[],"stateMutability":"nonpayable"},{"type":"function","name":"lastUnpausedAt","inputs":[],"outputs":[{"name":"","type":"uint64","internalType":"uint64"}],"stateMutability":"view"},{"type":"function","name":"mint","inputs":[{"name":"to","type":"address","internalType":"address"},{"name":"amount","type":"uint256","internalType":"uint256"}],"outputs":[],"stateMutability":"nonpayable"},{"type":"function","name":"name","inputs":[],"outputs":[{"name":"","type":"string","internalType":"string"}],"stateMutability":"view"},{"type":"function","name":"nonces","inputs":[{"name":"owner","type":"address","internalType":"address"}],"outputs":[{"name":"","type":"uint256","internalType":"uint256"}],"stateMutability":"view"},{"type":"function","name":"numCheckpoints","inputs":[{"name":"account","type":"address","internalType":"address"}],"outputs":[{"name":"","type":"uint32","internalType":"uint32"}],"stateMutability":"view"},{"type":"function","name":"owner","inputs":[],"outputs":[{"name":"","type":"address","internalType":"address"}],"stateMutability":"view"},{"type":"function","name":"pause","inputs":[],"outputs":[],"stateMutability":"nonpayable"},{"type":"function","name":"paused","inputs":[],"outputs":[{"name":"","type":"bool","internalType":"bool"}],"stateMutability":"view"},{"type":"function","name":"pendingOwner","inputs":[],"outputs":[{"name":"","type":"address","internalType":"address"}],"stateMutability":"view"},{"type":"function","name":"permit","inputs":[{"name":"owner","type":"address","internalType":"address"},{"name":"spender","type":"address","internalType":"address"},{"name":"value","type":"uint256","internalType":"uint256"},{"name":"deadline","type":"uint256","internalType":"uint256"},{"name":"v","type":"uint8","internalType":"uint8"},{"name":"r","type":"bytes32","internalType":"bytes32"},{"name":"s","type":"bytes32","internalType":"bytes32"}],"outputs":[],"stateMutability":"nonpayable"},{"type":"function","name":"proxiableUUID","inputs":[],"outputs":[{"name":"","type":"bytes32","internalType":"bytes32"}],"stateMutability":"view"},{"type":"function","name":"renounceOwnership","inputs":[],"outputs":[],"stateMutability":"nonpayable"},{"type":"function","name":"resolve","inputs":[{"name":"_chainId","type":"uint64","internalType":"uint64"},{"name":"_name","type":"bytes32","internalType":"bytes32"},{"name":"_allowZeroAddress","type":"bool","internalType":"bool"}],"outputs":[{"name":"","type":"address","internalType":"address"}],"stateMutability":"view"},{"type":"function","name":"resolve","inputs":[{"name":"_name","type":"bytes32","internalType":"bytes32"},{"name":"_allowZeroAddress","type":"bool","internalType":"bool"}],"outputs":[{"name":"","type":"address","internalType":"address"}],"stateMutability":"view"},{"type":"function","name":"symbol","inputs":[],"outputs":[{"name":"","type":"string","internalType":"string"}],"stateMutability":"pure"},{"type":"function","name":"totalSupply","inputs":[],"outputs":[{"name":"","type":"uint256","internalType":"uint256"}],"stateMutability":"view"},{"type":"function","name":"transfer","inputs":[{"name":"to","type":"address","internalType":"address"},{"name":"amount","type":"uint256","internalType":"uint256"}],"outputs":[{"name":"","type":"bool","internalType":"bool"}],"stateMutability":"nonpayable"},{"type":"function","name":"transferFrom","inputs":[{"name":"from","type":"address","internalType":"address"},{"name":"to","type":"address","internalType":"address"},{"name":"amount","type":"uint256","internalType":"uint256"}],"outputs":[{"name":"","type":"bool","internalType":"bool"}],"stateMutability":"nonpayable"},{"type":"function","name":"transferOwnership","inputs":[{"name":"newOwner","type":"address","internalType":"address"}],"outputs":[],"stateMutability":"nonpayable"},{"type":"function","name":"unpause","inputs":[],"outputs":[],"stateMutability":"nonpayable"},{"type":"function","name":"upgradeTo","inputs":[{"name":"newImplementation","type":"address","internalType":"address"}],"outputs":[],"stateMutability":"nonpayable"},{"type":"function","name":"upgradeToAndCall","inputs":[{"name":"newImplementation","type":"address","internalType":"address"},{"name":"data","type":"bytes","internalType":"bytes"}],"outputs":[],"stateMutability":"payable"},{"type":"event","name":"AdminChanged","inputs":[{"name":"previousAdmin","type":"address","indexed":false,"internalType":"address"},{"name":"newAdmin","type":"address","indexed":false,"internalType":"address"}],"anonymous":false},{"type":"event","name":"Approval","inputs":[{"name":"owner","type":"address","indexed":true,"internalType":"address"},{"name":"spender","type":"address","indexed":true,"internalType":"address"},{"name":"value","type":"uint256","indexed":false,"internalType":"uint256"}],"anonymous":false},{"type":"event","name":"BeaconUpgraded","inputs":[{"name":"beacon","type":"address","indexed":true,"internalType":"address"}],"anonymous":false},{"type":"event","name":"DelegateChanged","inputs":[{"name":"delegator","type":"address","indexed":true,"internalType":"address"},{"name":"fromDelegate","type":"address","indexed":true,"internalType":"address"},{"name":"toDelegate","type":"address","indexed":true,"internalType":"address"}],"anonymous":false},{"type":"event","name":"DelegateVotesChanged","inputs":[{"name":"delegate","type":"address","indexed":true,"internalType":"address"},{"name":"previousBalance","type":"uint256","indexed":false,"internalType":"uint256"},{"name":"newBalance","type":"uint256","indexed":false,"internalType":"uint256"}],"anonymous":false},{"type":"event","name":"EIP712DomainChanged","inputs":[],"anonymous":false},{"type":"event","name":"Initialized","inputs":[{"name":"version","type":"uint8","indexed":false,"internalType":"uint8"}],"anonymous":false},{"type":"event","name":"OwnershipTransferStarted","inputs":[{"name":"previousOwner","type":"address","indexed":true,"internalType":"address"},{"name":"newOwner","type":"address","indexed":true,"internalType":"address"}],"anonymous":false},{"type":"event","name":"OwnershipTransferred","inputs":[{"name":"previousOwner","type":"address","indexed":true,"internalType":"address"},{"name":"newOwner","type":"address","indexed":true,"internalType":"address"}],"anonymous":false},{"type":"event","name":"Paused","inputs":[{"name":"account","type":"address","indexed":false,"internalType":"address"}],"anonymous":false},{"type":"event","name":"Transfer","inputs":[{"name":"from","type":"address","indexed":true,"internalType":"address"},{"name":"to","type":"address","indexed":true,"internalType":"address"},{"name":"value","type":"uint256","indexed":false,"internalType":"uint256"}],"anonymous":false},{"type":"event","name":"Unpaused","inputs":[{"name":"account","type":"address","indexed":false,"internalType":"address"}],"anonymous":false},{"type":"event","name":"Upgraded","inputs":[{"name":"implementation","type":"address","indexed":true,"internalType":"address"}],"anonymous":false},{"type":"error","name":"FUNC_NOT_IMPLEMENTED","inputs":[]},{"type":"error","name":"INVALID_PAUSE_STATUS","inputs":[]},{"type":"error","name":"REENTRANT_CALL","inputs":[]},{"type":"error","name":"RESOLVER_DENIED","inputs":[]},{"type":"error","name":"RESOLVER_INVALID_MANAGER","inputs":[]},{"type":"error","name":"RESOLVER_UNEXPECTED_CHAINID","inputs":[]},{"type":"error","name":"RESOLVER_ZERO_ADDR","inputs":[{"name":"chainId","type":"uint64","internalType":"uint64"},{"name":"name","type":"bytes32","internalType":"bytes32"}]},{"type":"error","name":"TT_INVALID_PARAM","inputs":[]},{"type":"error","name":"ZERO_ADDRESS","inputs":[]},{"type":"error","name":"ZERO_VALUE","inputs":[]}],"bytecode":{"object":"0x60a060405230608052348015610013575f5ffd5b5061001c610029565b610024610029565b6100e5565b5f54610100900460ff16156100945760405162461bcd60e51b815260206004820152602760248201527f496e697469616c697a61626c653a20636f6e747261637420697320696e697469604482015266616c697a696e6760c81b606482015260840160405180910390fd5b5f5460ff908116146100e3575f805460ff191660ff9081179091556040519081527f7f26b83ff96e1f2b6a682f133852f6798a09c465da95921460cefb38474024989060200160405180910390a15b565b608051613a666101195f395f8181610b2201528181610b6201528181610d3901528181610d790152610df40152613a665ff3fe608060405260043610610280575f3560e01c8063715018a6116101555780639dc29fac116100be578063dd62ed3e11610078578063dd62ed3e146107a7578063e07baba6146107c6578063e30c397814610803578063f09a401614610820578063f1127ed81461083f578063f2fde38b14610888575f5ffd5b80639dc29fac146106ed578063a457c2d71461070c578063a86f9d9e1461072b578063a9059cbb1461074a578063c3cda52014610769578063d505accf14610788575f5ffd5b80638abf60771161010f5780638abf6077146106285780638da5cb5b1461063c5780638e539e8c1461065957806391ddadf41461067857806395d89b41146106a35780639ab24eb0146106ce575f5ffd5b8063715018a61461058757806379ba50971461059b5780637ecebe00146105af5780638456cb59146105ce57806384b0196e146105e257806388d695b214610609575f5ffd5b80633ab76e9f116101f757806352d1902d116101b157806352d1902d146104ad578063587cde1e146104c15780635c19a95c146104e05780635c975abb146104ff5780636fcfff451461051f57806370a0823114610553575f5ffd5b80633ab76e9f146103db5780633eb6b8cf146104125780633f4ba83a1461043157806340c10f19146104455780634bf5d7e9146104645780634f1ef2861461049a575f5ffd5b80633075db56116102485780633075db561461033b578063313ce5671461034f5780633644e5151461036a5780633659cfe61461037e578063395093511461039d5780633a46b1a8146103bc575f5ffd5b806306fdde0314610284578063095ea7b3146102ae578063147230e3146102dd57806318160ddd146102fe57806323b872dd1461031c575b5f5ffd5b34801561028f575f5ffd5b506102986108a7565b6040516102a591906131ae565b60405180910390f35b3480156102b9575f5ffd5b506102cd6102c83660046131d4565b610937565b60405190151581526020016102a5565b3480156102e8575f5ffd5b506102fc6102f73660046131fe565b610950565b005b348015610309575f5ffd5b5060cb545b6040519081526020016102a5565b348015610327575f5ffd5b506102cd610336366004613257565b610acd565b348015610346575f5ffd5b506102cd610af2565b34801561035a575f5ffd5b50604051601281526020016102a5565b348015610375575f5ffd5b5061030e610b0a565b348015610389575f5ffd5b506102fc610398366004613295565b610b18565b3480156103a8575f5ffd5b506102cd6103b73660046131d4565b610bdf565b3480156103c7575f5ffd5b5061030e6103d63660046131d4565b610c00565b3480156103e6575f5ffd5b506097546103fa906001600160a01b031681565b6040516001600160a01b0390911681526020016102a5565b34801561041d575f5ffd5b506103fa61042c3660046132c4565b610c7d565b34801561043c575f5ffd5b506102fc610c91565b348015610450575f5ffd5b506102fc61045f3660046131d4565b610ca5565b34801561046f575f5ffd5b5060408051808201909152600e81526d06d6f64653d74696d657374616d760941b6020820152610298565b6102fc6104a836600461331e565b610d2f565b3480156104b8575f5ffd5b5061030e610de8565b3480156104cc575f5ffd5b506103fa6104db366004613295565b610e99565b3480156104eb575f5ffd5b506102fc6104fa366004613295565b610ebb565b34801561050a575f5ffd5b506102cd60b154610100900460ff1660021490565b34801561052a575f5ffd5b5061053e610539366004613295565b610ec5565b60405163ffffffff90911681526020016102a5565b34801561055e575f5ffd5b5061030e61056d366004613295565b6001600160a01b03165f90815260c9602052604090205490565b348015610592575f5ffd5b506102fc610ee7565b3480156105a6575f5ffd5b506102fc610ef8565b3480156105ba575f5ffd5b5061030e6105c9366004613295565b610f6f565b3480156105d9575f5ffd5b506102fc610f8d565b3480156105ed575f5ffd5b506105f6610fa0565b6040516102a597969594939291906133e1565b348015610614575f5ffd5b506102cd6106233660046134be565b611039565b348015610633575f5ffd5b506103fa6110f7565b348015610647575f5ffd5b506033546001600160a01b03166103fa565b348015610664575f5ffd5b5061030e610673366004613528565b611100565b348015610683575f5ffd5b5061068c611167565b60405165ffffffffffff90911681526020016102a5565b3480156106ae575f5ffd5b506040805180820190915260038152624d584360e81b6020820152610298565b3480156106d9575f5ffd5b5061030e6106e8366004613295565b611171565b3480156106f8575f5ffd5b506102fc6107073660046131d4565b6111f0565b348015610717575f5ffd5b506102cd6107263660046131d4565b611274565b348015610736575f5ffd5b506103fa61074536600461353f565b6112f9565b348015610755575f5ffd5b506102cd6107643660046131d4565b611305565b348015610774575f5ffd5b506102fc610783366004613579565b611312565b348015610793575f5ffd5b506102fc6107a23660046135cf565b611447565b3480156107b2575f5ffd5b5061030e6107c1366004613639565b6115a8565b3480156107d1575f5ffd5b5060b1546107eb906201000090046001600160401b031681565b6040516001600160401b0390911681526020016102a5565b34801561080e575f5ffd5b506065546001600160a01b03166103fa565b34801561082b575f5ffd5b506102fc61083a366004613639565b6115d2565b34801561084a575f5ffd5b5061085e610859366004613670565b611727565b60408051825163ffffffff1681526020928301516001600160e01b031692810192909252016102a5565b348015610893575f5ffd5b506102fc6108a2366004613295565b6117a9565b606060cc80546108b6906136a4565b80601f01602080910402602001604051908101604052809291908181526020018280546108e2906136a4565b801561092d5780601f106109045761010080835404028352916020019161092d565b820191905f5260205f20905b81548152906001019060200180831161091057829003601f168201915b5050505050905090565b5f3361094481858561181a565b60019150505b92915050565b5f54600290610100900460ff1615801561097057505f5460ff8083169116105b6109955760405162461bcd60e51b815260040161098c906136d6565b60405180910390fd5b5f805461ffff191660ff8316176101001790556109b2848661193d565b6109f86040518060400160405280600981526020016826ac21902a37b5b2b760b91b815250604051806040016040528060038152602001624d584360e81b815250611977565b610a006119a7565b610a2a6040518060400160405280600981526020016826ac21902a37b5b2b760b91b8152506119cd565b6001600160a01b03831615610a67576001600160a01b0383165f90815260c96020526040902054610a5b8382611a16565b610a658482611aa1565b505b60cb545f03610a8657610a86826b033b2e3c9fd0803ce8000000611a16565b5f805461ff001916905560405160ff821681527f7f26b83ff96e1f2b6a682f133852f6798a09c465da95921460cefb38474024989060200160405180910390a15050505050565b5f33610ada858285611aba565b610ae5858585611b2c565b60019150505b9392505050565b5f6002610b0160b15460ff1690565b60ff1614905090565b5f610b13611cdb565b905090565b6001600160a01b037f0000000000000000000000000000000000000000000000000000000000000000163003610b605760405162461bcd60e51b815260040161098c90613724565b7f00000000000000000000000000000000000000000000000000000000000000006001600160a01b0316610b92611ce4565b6001600160a01b031614610bb85760405162461bcd60e51b815260040161098c90613770565b610bc181611cff565b604080515f80825260208201909252610bdc91839190611d07565b50565b5f33610944818585610bf183836115a8565b610bfb91906137d0565b61181a565b5f610c09611167565b65ffffffffffff168210610c5b5760405162461bcd60e51b815260206004820152601960248201527804552433230566f7465733a20667574757265206c6f6f6b757603c1b604482015260640161098c565b6001600160a01b0383165f90815261016360205260409020610aeb9083611e71565b5f610c89848484611f52565b949350505050565b610c99611fa4565b610ca3335f612034565b565b667374616b696e6760c81b647461696b6f60d81b610cc48260016112f9565b6001600160a01b0316336001600160a01b031614158015610d015750610ceb8160016112f9565b6001600160a01b0316336001600160a01b031614155b15610d1f57604051630d85cccf60e11b815260040160405180910390fd5b610d298484611a16565b50505050565b6001600160a01b037f0000000000000000000000000000000000000000000000000000000000000000163003610d775760405162461bcd60e51b815260040161098c90613724565b7f00000000000000000000000000000000000000000000000000000000000000006001600160a01b0316610da9611ce4565b6001600160a01b031614610dcf5760405162461bcd60e51b815260040161098c90613770565b610dd882611cff565b610de482826001611d07565b5050565b5f306001600160a01b037f00000000000000000000000000000000000000000000000000000000000000001614610e875760405162461bcd60e51b815260206004820152603860248201527f555550535570677261646561626c653a206d757374206e6f742062652063616c60448201527f6c6564207468726f7567682064656c656761746563616c6c0000000000000000606482015260840161098c565b505f5160206139ea5f395f51905f5290565b6001600160a01b038082165f908152610162602052604081205490911661094a565b610bdc338261203c565b6001600160a01b0381165f908152610163602052604081205461094a906120cf565b610eef612137565b610ca35f612191565b60655433906001600160a01b03168114610f665760405162461bcd60e51b815260206004820152602960248201527f4f776e61626c6532537465703a2063616c6c6572206973206e6f7420746865206044820152683732bb9037bbb732b960b91b606482015260840161098c565b610bdc81612191565b6001600160a01b0381165f90815261012f602052604081205461094a565b610f956121aa565b610ca3336001612034565b5f6060805f5f5f606060fb545f5f1b148015610fbc575060fc54155b6110005760405162461bcd60e51b81526020600482015260156024820152741152540dcc4c8e88155b9a5b9a5d1a585b1a5e9959605a1b604482015260640161098c565b61100861221b565b61101061222a565b604080515f80825260208201909252600f60f81b9b939a50919850469750309650945092509050565b5f83821461105a57604051634354597560e11b815260040160405180910390fd5b5f5b848110156110eb575f868683818110611077576110776137e3565b905060200201602081019061108c9190613295565b6001600160a01b0316146110e3576110e3338787848181106110b0576110b06137e3565b90506020020160208101906110c59190613295565b8686858181106110d7576110d76137e3565b90506020020135611b2c565b60010161105c565b50600195945050505050565b5f610b13611ce4565b5f611109611167565b65ffffffffffff16821061115b5760405162461bcd60e51b815260206004820152601960248201527804552433230566f7465733a20667574757265206c6f6f6b757603c1b604482015260640161098c565b61094a61016483611e71565b5f610b1342612239565b6001600160a01b0381165f908152610163602052604081205480156111de576001600160a01b0383165f9081526101636020526040902080545f1983019081106111bd576111bd6137e3565b5f9182526020909120015464010000000090046001600160e01b03166111e0565b5f5b6001600160e01b03169392505050565b667374616b696e6760c81b647461696b6f60d81b61120f8260016112f9565b6001600160a01b0316336001600160a01b03161415801561124c57506112368160016112f9565b6001600160a01b0316336001600160a01b031614155b1561126a57604051630d85cccf60e11b815260040160405180910390fd5b610d298484611aa1565b5f338161128182866115a8565b9050838110156112e15760405162461bcd60e51b815260206004820152602560248201527f45524332303a2064656372656173656420616c6c6f77616e63652062656c6f77604482015264207a65726f60d81b606482015260840161098c565b6112ee828686840361181a565b506001949350505050565b5f610aeb468484611f52565b5f33610944818585611b2c565b834211156113625760405162461bcd60e51b815260206004820152601d60248201527f4552433230566f7465733a207369676e61747572652065787069726564000000604482015260640161098c565b604080517fe48329057bfd03d55e49b547132e39cffd9c1820ad7b9d4c5307691425d15adf60208201526001600160a01b0388169181019190915260608101869052608081018590525f906113db906113d39060a0016040516020818303038152906040528051906020012061229f565b8585856122cb565b90506113e6816122f1565b86146114345760405162461bcd60e51b815260206004820152601960248201527f4552433230566f7465733a20696e76616c6964206e6f6e636500000000000000604482015260640161098c565b61143e818861203c565b50505050505050565b834211156114975760405162461bcd60e51b815260206004820152601d60248201527f45524332305065726d69743a206578706972656420646561646c696e65000000604482015260640161098c565b5f7f6e71edae12b1b97f4d1f60370fef10105fa2faae0126114a169c64845d6126c98888886114c58c6122f1565b6040805160208101969096526001600160a01b0394851690860152929091166060840152608083015260a082015260c0810186905260e0016040516020818303038152906040528051906020012090505f61151f8261229f565b90505f61152e828787876122cb565b9050896001600160a01b0316816001600160a01b0316146115915760405162461bcd60e51b815260206004820152601e60248201527f45524332305065726d69743a20696e76616c6964207369676e61747572650000604482015260640161098c565b61159c8a8a8a61181a565b50505050505050505050565b6001600160a01b039182165f90815260ca6020908152604080832093909416825291909152205490565b5f54610100900460ff16158080156115f057505f54600160ff909116105b806116095750303b15801561160957505f5460ff166001145b6116255760405162461bcd60e51b815260040161098c906136d6565b5f805460ff191660011790558015611646575f805461ff0019166101001790555b61164f83612319565b6116956040518060400160405280600981526020016826ac21902a37b5b2b760b91b815250604051806040016040528060038152602001624d584360e81b815250611977565b61169d6119a7565b6116c76040518060400160405280600981526020016826ac21902a37b5b2b760b91b8152506119cd565b6116dd826b033b2e3c9fd0803ce8000000611a16565b8015611722575f805461ff0019169055604051600181527f7f26b83ff96e1f2b6a682f133852f6798a09c465da95921460cefb38474024989060200160405180910390a15b505050565b604080518082019091525f80825260208201526001600160a01b0383165f90815261016360205260409020805463ffffffff841690811061176a5761176a6137e3565b5f9182526020918290206040805180820190915291015463ffffffff8116825264010000000090046001600160e01b0316918101919091529392505050565b6117b1612137565b606580546001600160a01b0383166001600160a01b031990911681179091556117e26033546001600160a01b031690565b6001600160a01b03167f38d16b8cac22d99fc7c124b9cd0de2d3fa1faef420bfe791d8c362d765e2270060405160405180910390a350565b6001600160a01b03831661187c5760405162461bcd60e51b8152602060048201526024808201527f45524332303a20617070726f76652066726f6d20746865207a65726f206164646044820152637265737360e01b606482015260840161098c565b6001600160a01b0382166118dd5760405162461bcd60e51b815260206004820152602260248201527f45524332303a20617070726f766520746f20746865207a65726f206164647265604482015261737360f01b606482015260840161098c565b6001600160a01b038381165f81815260ca602090815260408083209487168084529482529182902085905590518481527f8c5be1e5ebec7d5bd14f71427d1e84f3dd0314c0f7b2291e5b200ac8c7c3b925910160405180910390a3505050565b806001600160a01b0381166119655760405163538ba4f960e01b815260040160405180910390fd5b61196e83612319565b61172282612377565b5f54610100900460ff1661199d5760405162461bcd60e51b815260040161098c906137f7565b610de482826123e7565b5f54610100900460ff16610ca35760405162461bcd60e51b815260040161098c906137f7565b5f54610100900460ff166119f35760405162461bcd60e51b815260040161098c906137f7565b610bdc81604051806040016040528060018152602001603160f81b815250612426565b611a208282612473565b60cb546001600160e01b031015611a925760405162461bcd60e51b815260206004820152603060248201527f4552433230566f7465733a20746f74616c20737570706c79207269736b73206f60448201526f766572666c6f77696e6720766f74657360801b606482015260840161098c565b610d2961016461253983612544565b611aab82826126b0565b610d296101646127e883612544565b5f611ac584846115a8565b90505f198114610d295781811015611b1f5760405162461bcd60e51b815260206004820152601d60248201527f45524332303a20696e73756666696369656e7420616c6c6f77616e6365000000604482015260640161098c565b610d29848484840361181a565b6001600160a01b038316611b905760405162461bcd60e51b815260206004820152602560248201527f45524332303a207472616e736665722066726f6d20746865207a65726f206164604482015264647265737360d81b606482015260840161098c565b6001600160a01b038216611bf25760405162461bcd60e51b815260206004820152602360248201527f45524332303a207472616e7366657220746f20746865207a65726f206164647260448201526265737360e81b606482015260840161098c565b6001600160a01b0383165f90815260c9602052604090205481811015611c695760405162461bcd60e51b815260206004820152602660248201527f45524332303a207472616e7366657220616d6f756e7420657863656564732062604482015265616c616e636560d01b606482015260840161098c565b6001600160a01b038085165f81815260c9602052604080822086860390559286168082529083902080548601905591517fddf252ad1be2c89b69c2b068fc378daa952ba7f163c4a11628f55a4df523b3ef90611cc89086815260200190565b60405180910390a3610d298484846127f3565b5f610b1361280e565b5f5160206139ea5f395f51905f52546001600160a01b031690565b610bdc612137565b7f4910fdfa16fed3260ed0e7147f7cc6da11a60208b5b9406d12a635614ffd91435460ff1615611d3a5761172283612881565b826001600160a01b03166352d1902d6040518163ffffffff1660e01b8152600401602060405180830381865afa925050508015611d94575060408051601f3d908101601f19168201909252611d9191810190613842565b60015b611df75760405162461bcd60e51b815260206004820152602e60248201527f45524331393637557067726164653a206e657720696d706c656d656e7461746960448201526d6f6e206973206e6f74205555505360901b606482015260840161098c565b5f5160206139ea5f395f51905f528114611e655760405162461bcd60e51b815260206004820152602960248201527f45524331393637557067726164653a20756e737570706f727465642070726f786044820152681a58589b195555525160ba1b606482015260840161098c565b5061172283838361291c565b81545f9081816005811115611ec8575f611e8a84612940565b611e949085613859565b5f88815260209020909150869082015463ffffffff161115611eb857809150611ec6565b611ec38160016137d0565b92505b505b80821015611f13575f611edb8383612a24565b5f88815260209020909150869082015463ffffffff161115611eff57809150611f0d565b611f0a8160016137d0565b92505b50611ec8565b8015611f3d575f8681526020902081015f19015464010000000090046001600160e01b0316611f3f565b5f5b6001600160e01b03169695505050505050565b5f611f5d8484612a3e565b905081158015611f7457506001600160a01b038116155b15610aeb57604051632b0d65db60e01b81526001600160401b03851660048201526024810184905260440161098c565b611fb860b154610100900460ff1660021490565b611fd55760405163bae6e2a960e01b815260040160405180910390fd5b60b1805461010069ffffffffffffffffff001990911662010000426001600160401b031602171790556040513381527f5db9ee0a495bf2e6ff9c91a7834c1ba4fdd244a5e8aa4e537bd38aeae4b073aa906020015b60405180910390a1565b610de4612137565b5f61204683610e99565b90505f612067846001600160a01b03165f90815260c9602052604090205490565b6001600160a01b038581165f818152610162602052604080822080546001600160a01b031916898616908117909155905194955093928616927f3134e8a2e6d97e929a7e54011ea5485d7d196dd5f0ba4d4ef95803e8e3fc257f9190a4610d29828483612ae0565b5f63ffffffff8211156121335760405162461bcd60e51b815260206004820152602660248201527f53616665436173743a2076616c756520646f65736e27742066697420696e203360448201526532206269747360d01b606482015260840161098c565b5090565b6033546001600160a01b03163314610ca35760405162461bcd60e51b815260206004820181905260248201527f4f776e61626c653a2063616c6c6572206973206e6f7420746865206f776e6572604482015260640161098c565b606580546001600160a01b0319169055610bdc81612c1c565b6121be60b154610100900460ff1660021490565b156121dc5760405163bae6e2a960e01b815260040160405180910390fd5b60b1805461ff0019166102001790556040513381527f62e78cea01bee320cd4e420270b5ea74000d11b0c9f74754ebdbfc544b05a2589060200161202a565b606060fd80546108b6906136a4565b606060fe80546108b6906136a4565b5f65ffffffffffff8211156121335760405162461bcd60e51b815260206004820152602660248201527f53616665436173743a2076616c756520646f65736e27742066697420696e203460448201526538206269747360d01b606482015260840161098c565b5f61094a6122ab611cdb565b8360405161190160f01b8152600281019290925260228201526042902090565b5f5f5f6122da87878787612c6d565b915091506122e781612d2a565b5095945050505050565b6001600160a01b0381165f90815261012f602052604090208054600181018255905b50919050565b5f54610100900460ff1661233f5760405162461bcd60e51b815260040161098c906137f7565b6123476119a7565b6123656001600160a01b0382161561235f5781612191565b33612191565b5060b1805461ff001916610100179055565b5f54610100900460ff1661239d5760405162461bcd60e51b815260040161098c906137f7565b6001600160401b034611156123c55760405163a12e8fa960e01b815260040160405180910390fd5b609780546001600160a01b0319166001600160a01b0392909216919091179055565b5f54610100900460ff1661240d5760405162461bcd60e51b815260040161098c906137f7565b60cc61241983826138b7565b5060cd61172282826138b7565b5f54610100900460ff1661244c5760405162461bcd60e51b815260040161098c906137f7565b60fd61245883826138b7565b5060fe61246582826138b7565b50505f60fb81905560fc5550565b6001600160a01b0382166124c95760405162461bcd60e51b815260206004820152601f60248201527f45524332303a206d696e7420746f20746865207a65726f206164647265737300604482015260640161098c565b8060cb5f8282546124da91906137d0565b90915550506001600160a01b0382165f81815260c960209081526040808320805486019055518481527fddf252ad1be2c89b69c2b068fc378daa952ba7f163c4a11628f55a4df523b3ef910160405180910390a3610de45f83836127f3565b5f610aeb82846137d0565b82545f90819081811561258e575f8781526020902082015f190160408051808201909152905463ffffffff8116825264010000000090046001600160e01b031660208201526125a2565b604080518082019091525f80825260208201525b905080602001516001600160e01b031693506125c284868863ffffffff16565b92505f821180156125ea57506125d6611167565b65ffffffffffff16815f015163ffffffff16145b1561262d576125f883612e73565b5f8881526020902083015f190180546001600160e01b03929092166401000000000263ffffffff9092169190911790556126a6565b866040518060400160405280612651612644611167565b65ffffffffffff166120cf565b63ffffffff16815260200161266586612e73565b6001600160e01b0390811690915282546001810184555f938452602093849020835194909301519091166401000000000263ffffffff909316929092179101555b5050935093915050565b6001600160a01b0382166127105760405162461bcd60e51b815260206004820152602160248201527f45524332303a206275726e2066726f6d20746865207a65726f206164647265736044820152607360f81b606482015260840161098c565b6001600160a01b0382165f90815260c96020526040902054818110156127835760405162461bcd60e51b815260206004820152602260248201527f45524332303a206275726e20616d6f756e7420657863656564732062616c616e604482015261636560f01b606482015260840161098c565b6001600160a01b0383165f81815260c960209081526040808320868603905560cb80548790039055518581529192917fddf252ad1be2c89b69c2b068fc378daa952ba7f163c4a11628f55a4df523b3ef910160405180910390a3611722835f846127f3565b5f610aeb8284613859565b6117226127ff84610e99565b61280884610e99565b83612ae0565b5f7f8b73c3c69bb8fe3d512ecc4cf759cc79239f7b179b0ffacaa9a75d522b39400f612838612edb565b612840612f33565b60408051602081019490945283019190915260608201524660808201523060a082015260c00160405160208183030381529060405280519060200120905090565b6001600160a01b0381163b6128ee5760405162461bcd60e51b815260206004820152602d60248201527f455243313936373a206e657720696d706c656d656e746174696f6e206973206e60448201526c1bdd08184818dbdb9d1c9858dd609a1b606482015260840161098c565b5f5160206139ea5f395f51905f5280546001600160a01b0319166001600160a01b0392909216919091179055565b61292583612f63565b5f825111806129315750805b1561172257610d298383612fa2565b5f815f0361294f57505f919050565b5f600161295b84612fc7565b901c6001901b9050600181848161297457612974613971565b048201901c9050600181848161298c5761298c613971565b048201901c905060018184816129a4576129a4613971565b048201901c905060018184816129bc576129bc613971565b048201901c905060018184816129d4576129d4613971565b048201901c905060018184816129ec576129ec613971565b048201901c90506001818481612a0457612a04613971565b048201901c9050610aeb81828581612a1e57612a1e613971565b0461305a565b5f612a326002848418613985565b610aeb908484166137d0565b6097545f906001600160a01b031680612a6a57604051638ed88b2560e01b815260040160405180910390fd5b604051630a3dc4f360e21b81526001600160401b0385166004820152602481018490526001600160a01b038216906328f713cc90604401602060405180830381865afa158015612abc573d5f5f3e3d5ffd5b505050506040513d601f19601f82011682018060405250810190610c8991906139a4565b816001600160a01b0316836001600160a01b031614158015612b0157505f81115b15611722576001600160a01b03831615612b8f576001600160a01b0383165f908152610163602052604081208190612b3c906127e885612544565b91509150846001600160a01b03167fdec2bacdd2f05b59de34da9b523dff8be42e5e38e818c82fdb0bae774387a7248383604051612b84929190918252602082015260400190565b60405180910390a250505b6001600160a01b03821615611722576001600160a01b0382165f908152610163602052604081208190612bc59061253985612544565b91509150836001600160a01b03167fdec2bacdd2f05b59de34da9b523dff8be42e5e38e818c82fdb0bae774387a7248383604051612c0d929190918252602082015260400190565b60405180910390a25050505050565b603380546001600160a01b038381166001600160a01b0319831681179093556040519116919082907f8be0079c531659141344cd1fd0a4f28419497f9722a3daafe3b4186f6b6457e0905f90a35050565b5f807f7fffffffffffffffffffffffffffffff5d576e7357a4501ddfe92f46681b20a0831115612ca257505f90506003612d21565b604080515f8082526020820180845289905260ff881692820192909252606081018690526080810185905260019060a0016020604051602081039080840390855afa158015612cf3573d5f5f3e3d5ffd5b5050604051601f1901519150506001600160a01b038116612d1b575f60019250925050612d21565b91505f90505b94509492505050565b5f816004811115612d3d57612d3d6139bf565b03612d455750565b6001816004811115612d5957612d596139bf565b03612da65760405162461bcd60e51b815260206004820152601860248201527f45434453413a20696e76616c6964207369676e61747572650000000000000000604482015260640161098c565b6002816004811115612dba57612dba6139bf565b03612e075760405162461bcd60e51b815260206004820152601f60248201527f45434453413a20696e76616c6964207369676e6174757265206c656e67746800604482015260640161098c565b6003816004811115612e1b57612e1b6139bf565b03610bdc5760405162461bcd60e51b815260206004820152602260248201527f45434453413a20696e76616c6964207369676e6174757265202773272076616c604482015261756560f01b606482015260840161098c565b5f6001600160e01b038211156121335760405162461bcd60e51b815260206004820152602760248201527f53616665436173743a2076616c756520646f65736e27742066697420696e20326044820152663234206269747360c81b606482015260840161098c565b5f5f612ee561221b565b805190915015612efc578051602090910120919050565b60fb548015612f0b5792915050565b7fc5d2460186f7233c927e7db2dcc703c0e500b653ca82273b7bfad8045d85a4709250505090565b5f5f612f3d61222a565b805190915015612f54578051602090910120919050565b60fc548015612f0b5792915050565b612f6c81612881565b6040516001600160a01b038216907fbc7cd75a20ee27fd9adebab32041f755214dbc6bffa90cc0225b39da2e5c2d3b905f90a250565b6060610aeb8383604051806060016040528060278152602001613a0a6027913961306f565b5f80608083901c15612fdb57608092831c92015b604083901c15612fed57604092831c92015b602083901c15612fff57602092831c92015b601083901c1561301157601092831c92015b600883901c1561302357600892831c92015b600483901c1561303557600492831c92015b600283901c1561304757600292831c92015b600183901c1561094a5760010192915050565b5f8183106130685781610aeb565b5090919050565b60605f5f856001600160a01b03168560405161308b91906139d3565b5f60405180830381855af49150503d805f81146130c3576040519150601f19603f3d011682016040523d82523d5f602084013e6130c8565b606091505b50915091506130d9868383876130e3565b9695505050505050565b606083156131515782515f0361314a576001600160a01b0385163b61314a5760405162461bcd60e51b815260206004820152601d60248201527f416464726573733a2063616c6c20746f206e6f6e2d636f6e7472616374000000604482015260640161098c565b5081610c89565b610c8983838151156131665781518083602001fd5b8060405162461bcd60e51b815260040161098c91906131ae565b5f81518084528060208401602086015e5f602082860101526020601f19601f83011685010191505092915050565b602081525f610aeb6020830184613180565b6001600160a01b0381168114610bdc575f5ffd5b5f5f604083850312156131e5575f5ffd5b82356131f0816131c0565b946020939093013593505050565b5f5f5f5f60808587031215613211575f5ffd5b843561321c816131c0565b9350602085013561322c816131c0565b9250604085013561323c816131c0565b9150606085013561324c816131c0565b939692955090935050565b5f5f5f60608486031215613269575f5ffd5b8335613274816131c0565b92506020840135613284816131c0565b929592945050506040919091013590565b5f602082840312156132a5575f5ffd5b8135610aeb816131c0565b803580151581146132bf575f5ffd5b919050565b5f5f5f606084860312156132d6575f5ffd5b83356001600160401b03811681146132ec575f5ffd5b925060208401359150613301604085016132b0565b90509250925092565b634e487b7160e01b5f52604160045260245ffd5b5f5f6040838503121561332f575f5ffd5b823561333a816131c0565b915060208301356001600160401b03811115613354575f5ffd5b8301601f81018513613364575f5ffd5b80356001600160401b0381111561337d5761337d61330a565b604051601f8201601f19908116603f011681016001600160401b03811182821017156133ab576133ab61330a565b6040528181528282016020018710156133c2575f5ffd5b816020840160208301375f602083830101528093505050509250929050565b60ff60f81b8816815260e060208201525f6133ff60e0830189613180565b82810360408401526134118189613180565b606084018890526001600160a01b038716608085015260a0840186905283810360c0850152845180825260208087019350909101905f5b81811015613466578351835260209384019390920191600101613448565b50909b9a5050505050505050505050565b5f5f83601f840112613487575f5ffd5b5081356001600160401b0381111561349d575f5ffd5b6020830191508360208260051b85010111156134b7575f5ffd5b9250929050565b5f5f5f5f604085870312156134d1575f5ffd5b84356001600160401b038111156134e6575f5ffd5b6134f287828801613477565b90955093505060208501356001600160401b03811115613510575f5ffd5b61351c87828801613477565b95989497509550505050565b5f60208284031215613538575f5ffd5b5035919050565b5f5f60408385031215613550575f5ffd5b82359150613560602084016132b0565b90509250929050565b803560ff811681146132bf575f5ffd5b5f5f5f5f5f5f60c0878903121561358e575f5ffd5b8635613599816131c0565b955060208701359450604087013593506135b560608801613569565b9598949750929560808101359460a0909101359350915050565b5f5f5f5f5f5f5f60e0888a0312156135e5575f5ffd5b87356135f0816131c0565b96506020880135613600816131c0565b9550604088013594506060880135935061361c60808901613569565b9699959850939692959460a0840135945060c09093013592915050565b5f5f6040838503121561364a575f5ffd5b8235613655816131c0565b91506020830135613665816131c0565b809150509250929050565b5f5f60408385031215613681575f5ffd5b823561368c816131c0565b9150602083013563ffffffff81168114613665575f5ffd5b600181811c908216806136b857607f821691505b60208210810361231357634e487b7160e01b5f52602260045260245ffd5b6020808252602e908201527f496e697469616c697a61626c653a20636f6e747261637420697320616c72656160408201526d191e481a5b9a5d1a585b1a5e995960921b606082015260800190565b6020808252602c908201527f46756e6374696f6e206d7573742062652063616c6c6564207468726f7567682060408201526b19195b1959d85d1958d85b1b60a21b606082015260800190565b6020808252602c908201527f46756e6374696f6e206d7573742062652063616c6c6564207468726f7567682060408201526b6163746976652070726f787960a01b606082015260800190565b634e487b7160e01b5f52601160045260245ffd5b8082018082111561094a5761094a6137bc565b634e487b7160e01b5f52603260045260245ffd5b6020808252602b908201527f496e697469616c697a61626c653a20636f6e7472616374206973206e6f74206960408201526a6e697469616c697a696e6760a81b606082015260800190565b5f60208284031215613852575f5ffd5b5051919050565b8181038181111561094a5761094a6137bc565b601f82111561172257805f5260205f20601f840160051c810160208510156138915750805b601f840160051c820191505b818110156138b0575f815560010161389d565b5050505050565b81516001600160401b038111156138d0576138d061330a565b6138e4816138de84546136a4565b8461386c565b6020601f821160018114613916575f83156138ff5750848201515b5f19600385901b1c1916600184901b1784556138b0565b5f84815260208120601f198516915b828110156139455787850151825560209485019460019092019101613925565b508482101561396257868401515f19600387901b60f8161c191681555b50505050600190811b01905550565b634e487b7160e01b5f52601260045260245ffd5b5f8261399f57634e487b7160e01b5f52601260045260245ffd5b500490565b5f602082840312156139b4575f5ffd5b8151610aeb816131c0565b634e487b7160e01b5f52602160045260245ffd5b5f82518060208501845e5f92019182525091905056fe360894a13ba1a3210667c828492db98dca3e2076cc3735a920a3ca505d382bbc416464726573733a206c6f772d6c6576656c2064656c65676174652063616c6c206661696c6564a264697066735822122086fe5d9416da01fda0df181c7fafc9a015d9fd75a626091ebafcb031052fb10964736f6c634300081b0033","linkReferences":{}},"methodIdentifiers":{"CLOCK_MODE()":"4bf5d7e9","DOMAIN_SEPARATOR()":"3644e515","acceptOwnership()":"79ba5097","addressManager()":"3ab76e9f","allowance(address,address)":"dd62ed3e","approve(address,uint256)":"095ea7b3","balanceOf(address)":"70a08231","batchTransfer(address[],uint256[])":"88d695b2","burn(address,uint256)":"9dc29fac","checkpoints(address,uint32)":"f1127ed8","clock()":"91ddadf4","decimals()":"313ce567","decreaseAllowance(address,uint256)":"a457c2d7","delegate(address)":"5c19a95c","delegateBySig(address,uint256,uint256,uint8,bytes32,bytes32)":"c3cda520","delegates(address)":"587cde1e","eip712Domain()":"84b0196e","getPastTotalSupply(uint256)":"8e539e8c","getPastVotes(address,uint256)":"3a46b1a8","getVotes(address)":"9ab24eb0","impl()":"8abf6077","inNonReentrant()":"3075db56","increaseAllowance(address,uint256)":"39509351","init(address,address)":"f09a4016","init2(address,address,address,address)":"147230e3","lastUnpausedAt()":"e07baba6","mint(address,uint256)":"40c10f19","name()":"06fdde03","nonces(address)":"7ecebe00","numCheckpoints(address)":"6fcfff45","owner()":"8da5cb5b","pause()":"8456cb59","paused()":"5c975abb","pendingOwner()":"e30c3978","permit(address,address,uint256,uint256,uint8,bytes32,bytes32)":"d505accf","proxiableUUID()":"52d1902d","renounceOwnership()":"715018a6","resolve(bytes32,bool)":"a86f9d9e","resolve(uint64,bytes32,bool)":"3eb6b8cf","symbol()":"95d89b41","totalSupply()":"18160ddd","transfer(address,uint256)":"a9059cbb","transferFrom(address,address,uint256)":"23b872dd","transferOwnership(address)":"f2fde38b","unpause()":"3f4ba83a","upgradeTo(address)":"3659cfe6","upgradeToAndCall(address,bytes)":"4f1ef286"},"storageLayout":{"storage":[{"astId":31568,"contract":"contracts/tko/MxcToken.sol:MxcToken","label":"_initialized","offset":0,"slot":"0","type":"t_uint8"},{"astId":31571,"contract":"contracts/tko/MxcToken.sol:MxcToken","label":"_initializing","offset":1,"slot":"0","type":"t_bool"},{"astId":36402,"contract":"contracts/tko/MxcToken.sol:MxcToken","label":"__gap","offset":0,"slot":"1","type":"t_array(t_uint256)50_storage"},{"astId":31313,"contract":"contracts/tko/MxcToken.sol:MxcToken","label":"_owner","offset":0,"slot":"51","type":"t_address"},{"astId":31433,"contract":"contracts/tko/MxcToken.sol:MxcToken","label":"__gap","offset":0,"slot":"52","type":"t_array(t_uint256)49_storage"},{"astId":31206,"contract":"contracts/tko/MxcToken.sol:MxcToken","label":"_pendingOwner","offset":0,"slot":"101","type":"t_address"},{"astId":31300,"contract":"contracts/tko/MxcToken.sol:MxcToken","label":"__gap","offset":0,"slot":"102","type":"t_array(t_uint256)49_storage"},{"astId":16225,"contract":"contracts/tko/MxcToken.sol:MxcToken","label":"addressManager","offset":0,"slot":"151","type":"t_address"},{"astId":16229,"contract":"contracts/tko/MxcToken.sol:MxcToken","label":"__gap","offset":0,"slot":"152","type":"t_array(t_uint256)25_storage"},{"astId":16551,"contract":"contracts/tko/MxcToken.sol:MxcToken","label":"__reentry","offset":0,"slot":"177","type":"t_uint8"},{"astId":16553,"contract":"contracts/tko/MxcToken.sol:MxcToken","label":"__paused","offset":1,"slot":"177","type":"t_uint8"},{"astId":16555,"contract":"contracts/tko/MxcToken.sol:MxcToken","label":"lastUnpausedAt","offset":2,"slot":"177","type":"t_uint64"},{"astId":16559,"contract":"contracts/tko/MxcToken.sol:MxcToken","label":"__gap","offset":0,"slot":"178","type":"t_array(t_uint256)23_storage"},{"astId":33229,"contract":"contracts/tko/MxcToken.sol:MxcToken","label":"_balances","offset":0,"slot":"201","type":"t_mapping(t_address,t_uint256)"},{"astId":33235,"contract":"contracts/tko/MxcToken.sol:MxcToken","label":"_allowances","offset":0,"slot":"202","type":"t_mapping(t_address,t_mapping(t_address,t_uint256))"},{"astId":33237,"contract":"contracts/tko/MxcToken.sol:MxcToken","label":"_totalSupply","offset":0,"slot":"203","type":"t_uint256"},{"astId":33239,"contract":"contracts/tko/MxcToken.sol:MxcToken","label":"_name","offset":0,"slot":"204","type":"t_string_storage"},{"astId":33241,"contract":"contracts/tko/MxcToken.sol:MxcToken","label":"_symbol","offset":0,"slot":"205","type":"t_string_storage"},{"astId":33821,"contract":"contracts/tko/MxcToken.sol:MxcToken","label":"__gap","offset":0,"slot":"206","type":"t_array(t_uint256)45_storage"},{"astId":37091,"contract":"contracts/tko/MxcToken.sol:MxcToken","label":"_hashedName","offset":0,"slot":"251","type":"t_bytes32"},{"astId":37094,"contract":"contracts/tko/MxcToken.sol:MxcToken","label":"_hashedVersion","offset":0,"slot":"252","type":"t_bytes32"},{"astId":37096,"contract":"contracts/tko/MxcToken.sol:MxcToken","label":"_name","offset":0,"slot":"253","type":"t_string_storage"},{"astId":37098,"contract":"contracts/tko/MxcToken.sol:MxcToken","label":"_version","offset":0,"slot":"254","type":"t_string_storage"},{"astId":37356,"contract":"contracts/tko/MxcToken.sol:MxcToken","label":"__gap","offset":0,"slot":"255","type":"t_array(t_uint256)48_storage"},{"astId":33927,"contract":"contracts/tko/MxcToken.sol:MxcToken","label":"_nonces","offset":0,"slot":"303","type":"t_mapping(t_address,t_struct(Counter)36409_storage)"},{"astId":33935,"contract":"contracts/tko/MxcToken.sol:MxcToken","label":"_PERMIT_TYPEHASH_DEPRECATED_SLOT","offset":0,"slot":"304","type":"t_bytes32"},{"astId":34091,"contract":"contracts/tko/MxcToken.sol:MxcToken","label":"__gap","offset":0,"slot":"305","type":"t_array(t_uint256)49_storage"},{"astId":34122,"contract":"contracts/tko/MxcToken.sol:MxcToken","label":"_delegates","offset":0,"slot":"354","type":"t_mapping(t_address,t_address)"},{"astId":34128,"contract":"contracts/tko/MxcToken.sol:MxcToken","label":"_checkpoints","offset":0,"slot":"355","type":"t_mapping(t_address,t_array(t_struct(Checkpoint)34113_storage)dyn_storage)"},{"astId":34132,"contract":"contracts/tko/MxcToken.sol:MxcToken","label":"_totalSupplyCheckpoints","offset":0,"slot":"356","type":"t_array(t_struct(Checkpoint)34113_storage)dyn_storage"},{"astId":34846,"contract":"contracts/tko/MxcToken.sol:MxcToken","label":"__gap","offset":0,"slot":"357","type":"t_array(t_uint256)47_storage"},{"astId":24101,"contract":"contracts/tko/MxcToken.sol:MxcToken","label":"__gap","offset":0,"slot":"404","type":"t_array(t_uint256)50_storage"}],"types":{"t_address":{"encoding":"inplace","label":"address","numberOfBytes":"20"},"t_array(t_struct(Checkpoint)34113_storage)dyn_storage":{"encoding":"dynamic_array","label":"struct ERC20VotesUpgradeable.Checkpoint[]","numberOfBytes":"32","base":"t_struct(Checkpoint)34113_storage"},"t_array(t_uint256)23_storage":{"encoding":"inplace","label":"uint256[23]","numberOfBytes":"736","base":"t_uint256"},"t_array(t_uint256)25_storage":{"encoding":"inplace","label":"uint256[25]","numberOfBytes":"800","base":"t_uint256"},"t_array(t_uint256)45_storage":{"encoding":"inplace","label":"uint256[45]","numberOfBytes":"1440","base":"t_uint256"},"t_array(t_uint256)47_storage":{"encoding":"inplace","label":"uint256[47]","numberOfBytes":"1504","base":"t_uint256"},"t_array(t_uint256)48_storage":{"encoding":"inplace","label":"uint256[48]","numberOfBytes":"1536","base":"t_uint256"},"t_array(t_uint256)49_storage":{"encoding":"inplace","label":"uint256[49]","numberOfBytes":"1568","base":"t_uint256"},"t_array(t_uint256)50_storage":{"encoding":"inplace","label":"uint256[50]","numberOfBytes":"1600","base":"t_uint256"},"t_bool":{"encoding":"inplace","label":"bool","numberOfBytes":"1"},"t_bytes32":{"encoding":"inplace","label":"bytes32","numberOfBytes":"32"},"t_mapping(t_address,t_address)":{"encoding":"mapping","key":"t_address","label":"mapping(address => address)","numberOfBytes":"32","value":"t_address"},"t_mapping(t_address,t_array(t_struct(Checkpoint)34113_storage)dyn_storage)":{"encoding":"mapping","key":"t_address","label":"mapping(address => struct ERC20VotesUpgradeable.Checkpoint[])","numberOfBytes":"32","value":"t_array(t_struct(Checkpoint)34113_storage)dyn_storage"},"t_mapping(t_address,t_mapping(t_address,t_uint256))":{"encoding":"mapping","key":"t_address","label":"mapping(address => mapping(address => uint256))","numberOfBytes":"32","value":"t_mapping(t_address,t_uint256)"},"t_mapping(t_address,t_struct(Counter)36409_storage)":{"encoding":"mapping","key":"t_address","label":"mapping(address => struct CountersUpgradeable.Counter)","numberOfBytes":"32","value":"t_struct(Counter)36409_storage"},"t_mapping(t_address,t_uint256)":{"encoding":"mapping","key":"t_address","label":"mapping(address => uint256)","numberOfBytes":"32","value":"t_uint256"},"t_string_storage":{"encoding":"bytes","label":"string","numberOfBytes":"32"},"t_struct(Checkpoint)34113_storage":{"encoding":"inplace","label":"struct ERC20VotesUpgradeable.Checkpoint","numberOfBytes":"32","members":[{"astId":34110,"contract":"contracts/tko/MxcToken.sol:MxcToken","label":"fromBlock","offset":0,"slot":"0","type":"t_uint32"},{"astId":34112,"contract":"contracts/tko/MxcToken.sol:MxcToken","label":"votes","offset":4,"slot":"0","type":"t_uint224"}]},"t_struct(Counter)36409_storage":{"encoding":"inplace","label":"struct CountersUpgradeable.Counter","numberOfBytes":"32","members":[{"astId":36408,"contract":"contracts/tko/MxcToken.sol:MxcToken","label":"_value","offset":0,"slot":"0","type":"t_uint256"}]},"t_uint224":{"encoding":"inplace","label":"uint224","numberOfBytes":"28"},"t_uint256":{"encoding":"inplace","label":"uint256","numberOfBytes":"32"},"t_uint32":{"encoding":"inplace","label":"uint32","numberOfBytes":"4"},"t_uint64":{"encoding":"inplace","label":"uint64","numberOfBytes":"8"},"t_uint8":{"encoding":"inplace","label":"uint8","numberOfBytes":"1"}}},"id":91}