{"abi":[{"type":"function","name":"acceptOwnership","inputs":[],"outputs":[],"stateMutability":"nonpayable"},{"type":"function","name":"addressManager","inputs":[],"outputs":[{"name":"","type":"address","internalType":"address"}],"stateMutability":"view"},{"type":"function","name":"bondBalanceOf","inputs":[{"name":"_user","type":"address","internalType":"address"}],"outputs":[{"name":"","type":"uint256","internalType":"uint256"}],"stateMutability":"view"},{"type":"function","name":"depositBond","inputs":[{"name":"_amount","type":"uint256","internalType":"uint256"}],"outputs":[],"stateMutability":"nonpayable"},{"type":"function","name":"getBlock","inputs":[{"name":"_blockId","type":"uint64","internalType":"uint64"}],"outputs":[{"name":"blk_","type":"tuple","internalType":"struct TaikoData.Block","components":[{"name":"metaHash","type":"bytes32","internalType":"bytes32"},{"name":"assignedProver","type":"address","internalType":"address"},{"name":"livenessBond","type":"uint96","internalType":"uint96"},{"name":"blockId","type":"uint64","internalType":"uint64"},{"name":"proposedAt","type":"uint64","internalType":"uint64"},{"name":"proposedIn","type":"uint64","internalType":"uint64"},{"name":"nextTransitionId","type":"uint32","internalType":"uint32"},{"name":"verifiedTransitionId","type":"uint32","internalType":"uint32"}]}],"stateMutability":"view"},{"type":"function","name":"getBlockV2","inputs":[{"name":"_blockId","type":"uint64","internalType":"uint64"}],"outputs":[{"name":"blk_","type":"tuple","internalType":"struct TaikoData.BlockV2","components":[{"name":"metaHash","type":"bytes32","internalType":"bytes32"},{"name":"assignedProver","type":"address","internalType":"address"},{"name":"livenessBond","type":"uint96","internalType":"uint96"},{"name":"blockId","type":"uint64","internalType":"uint64"},{"name":"proposedAt","type":"uint64","internalType":"uint64"},{"name":"proposedIn","type":"uint64","internalType":"uint64"},{"name":"nextTransitionId","type":"uint24","internalType":"uint24"},{"name":"livenessBondReturned","type":"bool","internalType":"bool"},{"name":"verifiedTransitionId","type":"uint24","internalType":"uint24"}]}],"stateMutability":"view"},{"type":"function","name":"getConfig","inputs":[],"outputs":[{"name":"","type":"tuple","internalType":"struct TaikoData.Config","components":[{"name":"chainId","type":"uint64","internalType":"uint64"},{"name":"blockMaxProposals","type":"uint64","internalType":"uint64"},{"name":"blockRingBufferSize","type":"uint64","internalType":"uint64"},{"name":"maxBlocksToVerify","type":"uint64","internalType":"uint64"},{"name":"blockMaxGasLimit","type":"uint32","internalType":"uint32"},{"name":"livenessBond","type":"uint96","internalType":"uint96"},{"name":"stateRootSyncInternal","type":"uint8","internalType":"uint8"},{"name":"maxAnchorHeightOffset","type":"uint64","internalType":"uint64"},{"name":"baseFeeConfig","type":"tuple","internalType":"struct TaikoData.BaseFeeConfig","components":[{"name":"adjustmentQuotient","type":"uint8","internalType":"uint8"},{"name":"sharingPctg","type":"uint8","internalType":"uint8"},{"name":"gasIssuancePerSecond","type":"uint32","internalType":"uint32"},{"name":"minGasExcess","type":"uint64","internalType":"uint64"},{"name":"maxGasIssuancePerBlock","type":"uint32","internalType":"uint32"}]},{"name":"ontakeForkHeight","type":"uint64","internalType":"uint64"}]}],"stateMutability":"pure"},{"type":"function","name":"getLastSyncedBlock","inputs":[],"outputs":[{"name":"blockId_","type":"uint64","internalType":"uint64"},{"name":"blockHash_","type":"bytes32","internalType":"bytes32"},{"name":"stateRoot_","type":"bytes32","internalType":"bytes32"},{"name":"verifiedAt_","type":"uint64","internalType":"uint64"}],"stateMutability":"view"},{"type":"function","name":"getLastVerifiedBlock","inputs":[],"outputs":[{"name":"blockId_","type":"uint64","internalType":"uint64"},{"name":"blockHash_","type":"bytes32","internalType":"bytes32"},{"name":"stateRoot_","type":"bytes32","internalType":"bytes32"},{"name":"verifiedAt_","type":"uint64","internalType":"uint64"}],"stateMutability":"view"},{"type":"function","name":"getStateVariables","inputs":[],"outputs":[{"name":"","type":"tuple","internalType":"struct TaikoData.SlotA","components":[{"name":"genesisHeight","type":"uint64","internalType":"uint64"},{"name":"genesisTimestamp","type":"uint64","internalType":"uint64"},{"name":"lastSyncedBlockId","type":"uint64","internalType":"uint64"},{"name":"lastSynecdAt","type":"uint64","internalType":"uint64"}]},{"name":"","type":"tuple","internalType":"struct TaikoData.SlotB","components":[{"name":"numBlocks","type":"uint64","internalType":"uint64"},{"name":"lastVerifiedBlockId","type":"uint64","internalType":"uint64"},{"name":"provingPaused","type":"bool","internalType":"bool"},{"name":"__reservedB1","type":"uint8","internalType":"uint8"},{"name":"__reservedB2","type":"uint16","internalType":"uint16"},{"name":"__reservedB3","type":"uint32","internalType":"uint32"},{"name":"lastUnpausedAt","type":"uint64","internalType":"uint64"}]}],"stateMutability":"view"},{"type":"function","name":"getTransition","inputs":[{"name":"_blockId","type":"uint64","internalType":"uint64"},{"name":"_tid","type":"uint32","internalType":"uint32"}],"outputs":[{"name":"","type":"tuple","internalType":"struct TaikoData.TransitionState","components":[{"name":"key","type":"bytes32","internalType":"bytes32"},{"name":"blockHash","type":"bytes32","internalType":"bytes32"},{"name":"stateRoot","type":"bytes32","internalType":"bytes32"},{"name":"prover","type":"address","internalType":"address"},{"name":"validityBond","type":"uint96","internalType":"uint96"},{"name":"contester","type":"address","internalType":"address"},{"name":"contestBond","type":"uint96","internalType":"uint96"},{"name":"timestamp","type":"uint64","internalType":"uint64"},{"name":"tier","type":"uint16","internalType":"uint16"},{"name":"__reserved1","type":"uint8","internalType":"uint8"}]}],"stateMutability":"view"},{"type":"function","name":"getTransition","inputs":[{"name":"_blockId","type":"uint64","internalType":"uint64"},{"name":"_parentHash","type":"bytes32","internalType":"bytes32"}],"outputs":[{"name":"","type":"tuple","internalType":"struct TaikoData.TransitionState","components":[{"name":"key","type":"bytes32","internalType":"bytes32"},{"name":"blockHash","type":"bytes32","internalType":"bytes32"},{"name":"stateRoot","type":"bytes32","internalType":"bytes32"},{"name":"prover","type":"address","internalType":"address"},{"name":"validityBond","type":"uint96","internalType":"uint96"},{"name":"contester","type":"address","internalType":"address"},{"name":"contestBond","type":"uint96","internalType":"uint96"},{"name":"timestamp","type":"uint64","internalType":"uint64"},{"name":"tier","type":"uint16","internalType":"uint16"},{"name":"__reserved1","type":"uint8","internalType":"uint8"}]}],"stateMutability":"view"},{"type":"function","name":"getVerifiedBlockProver","inputs":[{"name":"_blockId","type":"uint64","internalType":"uint64"}],"outputs":[{"name":"prover_","type":"address","internalType":"address"}],"stateMutability":"view"},{"type":"function","name":"impl","inputs":[],"outputs":[{"name":"","type":"address","internalType":"address"}],"stateMutability":"view"},{"type":"function","name":"inNonReentrant","inputs":[],"outputs":[{"name":"","type":"bool","internalType":"bool"}],"stateMutability":"view"},{"type":"function","name":"init","inputs":[{"name":"_owner","type":"address","internalType":"address"},{"name":"_rollupAddressManager","type":"address","internalType":"address"},{"name":"_genesisBlockHash","type":"bytes32","internalType":"bytes32"},{"name":"_toPause","type":"bool","internalType":"bool"}],"outputs":[],"stateMutability":"nonpayable"},{"type":"function","name":"init2","inputs":[],"outputs":[],"stateMutability":"nonpayable"},{"type":"function","name":"lastUnpausedAt","inputs":[],"outputs":[{"name":"","type":"uint64","internalType":"uint64"}],"stateMutability":"view"},{"type":"function","name":"owner","inputs":[],"outputs":[{"name":"","type":"address","internalType":"address"}],"stateMutability":"view"},{"type":"function","name":"pause","inputs":[],"outputs":[],"stateMutability":"nonpayable"},{"type":"function","name":"pauseProving","inputs":[{"name":"_pause","type":"bool","internalType":"bool"}],"outputs":[],"stateMutability":"nonpayable"},{"type":"function","name":"paused","inputs":[],"outputs":[{"name":"","type":"bool","internalType":"bool"}],"stateMutability":"view"},{"type":"function","name":"pendingOwner","inputs":[],"outputs":[{"name":"","type":"address","internalType":"address"}],"stateMutability":"view"},{"type":"function","name":"proposeBlock","inputs":[{"name":"_params","type":"bytes","internalType":"bytes"},{"name":"_txList","type":"bytes","internalType":"bytes"}],"outputs":[{"name":"meta_","type":"tuple","internalType":"struct TaikoData.BlockMetadata","components":[{"name":"l1Hash","type":"bytes32","internalType":"bytes32"},{"name":"difficulty","type":"bytes32","internalType":"bytes32"},{"name":"blobHash","type":"bytes32","internalType":"bytes32"},{"name":"extraData","type":"bytes32","internalType":"bytes32"},{"name":"depositsHash","type":"bytes32","internalType":"bytes32"},{"name":"coinbase","type":"address","internalType":"address"},{"name":"id","type":"uint64","internalType":"uint64"},{"name":"gasLimit","type":"uint32","internalType":"uint32"},{"name":"timestamp","type":"uint64","internalType":"uint64"},{"name":"l1Height","type":"uint64","internalType":"uint64"},{"name":"minTier","type":"uint16","internalType":"uint16"},{"name":"blobUsed","type":"bool","internalType":"bool"},{"name":"parentMetaHash","type":"bytes32","internalType":"bytes32"},{"name":"sender","type":"address","internalType":"address"}]},{"name":"deposits_","type":"tuple[]","internalType":"struct TaikoData.EthDeposit[]","components":[{"name":"recipient","type":"address","internalType":"address"},{"name":"amount","type":"uint96","internalType":"uint96"},{"name":"id","type":"uint64","internalType":"uint64"}]}],"stateMutability":"payable"},{"type":"function","name":"proposeBlockV2","inputs":[{"name":"_params","type":"bytes","internalType":"bytes"},{"name":"_txList","type":"bytes","internalType":"bytes"}],"outputs":[{"name":"meta_","type":"tuple","internalType":"struct TaikoData.BlockMetadataV2","components":[{"name":"anchorBlockHash","type":"bytes32","internalType":"bytes32"},{"name":"difficulty","type":"bytes32","internalType":"bytes32"},{"name":"blobHash","type":"bytes32","internalType":"bytes32"},{"name":"extraData","type":"bytes32","internalType":"bytes32"},{"name":"coinbase","type":"address","internalType":"address"},{"name":"id","type":"uint64","internalType":"uint64"},{"name":"gasLimit","type":"uint32","internalType":"uint32"},{"name":"timestamp","type":"uint64","internalType":"uint64"},{"name":"anchorBlockId","type":"uint64","internalType":"uint64"},{"name":"minTier","type":"uint16","internalType":"uint16"},{"name":"blobUsed","type":"bool","internalType":"bool"},{"name":"parentMetaHash","type":"bytes32","internalType":"bytes32"},{"name":"proposer","type":"address","internalType":"address"},{"name":"livenessBond","type":"uint96","internalType":"uint96"},{"name":"proposedAt","type":"uint64","internalType":"uint64"},{"name":"proposedIn","type":"uint64","internalType":"uint64"},{"name":"blobTxListOffset","type":"uint32","internalType":"uint32"},{"name":"blobTxListLength","type":"uint32","internalType":"uint32"},{"name":"blobIndex","type":"uint8","internalType":"uint8"},{"name":"baseFeeConfig","type":"tuple","internalType":"struct TaikoData.BaseFeeConfig","components":[{"name":"adjustmentQuotient","type":"uint8","internalType":"uint8"},{"name":"sharingPctg","type":"uint8","internalType":"uint8"},{"name":"gasIssuancePerSecond","type":"uint32","internalType":"uint32"},{"name":"minGasExcess","type":"uint64","internalType":"uint64"},{"name":"maxGasIssuancePerBlock","type":"uint32","internalType":"uint32"}]}]}],"stateMutability":"nonpayable"},{"type":"function","name":"proposeBlocksV2","inputs":[{"name":"_paramsArr","type":"bytes[]","internalType":"bytes[]"},{"name":"_txListArr","type":"bytes[]","internalType":"bytes[]"}],"outputs":[{"name":"metaArr_","type":"tuple[]","internalType":"struct TaikoData.BlockMetadataV2[]","components":[{"name":"anchorBlockHash","type":"bytes32","internalType":"bytes32"},{"name":"difficulty","type":"bytes32","internalType":"bytes32"},{"name":"blobHash","type":"bytes32","internalType":"bytes32"},{"name":"extraData","type":"bytes32","internalType":"bytes32"},{"name":"coinbase","type":"address","internalType":"address"},{"name":"id","type":"uint64","internalType":"uint64"},{"name":"gasLimit","type":"uint32","internalType":"uint32"},{"name":"timestamp","type":"uint64","internalType":"uint64"},{"name":"anchorBlockId","type":"uint64","internalType":"uint64"},{"name":"minTier","type":"uint16","internalType":"uint16"},{"name":"blobUsed","type":"bool","internalType":"bool"},{"name":"parentMetaHash","type":"bytes32","internalType":"bytes32"},{"name":"proposer","type":"address","internalType":"address"},{"name":"livenessBond","type":"uint96","internalType":"uint96"},{"name":"proposedAt","type":"uint64","internalType":"uint64"},{"name":"proposedIn","type":"uint64","internalType":"uint64"},{"name":"blobTxListOffset","type":"uint32","internalType":"uint32"},{"name":"blobTxListLength","type":"uint32","internalType":"uint32"},{"name":"blobIndex","type":"uint8","internalType":"uint8"},{"name":"baseFeeConfig","type":"tuple","internalType":"struct TaikoData.BaseFeeConfig","components":[{"name":"adjustmentQuotient","type":"uint8","internalType":"uint8"},{"name":"sharingPctg","type":"uint8","internalType":"uint8"},{"name":"gasIssuancePerSecond","type":"uint32","internalType":"uint32"},{"name":"minGasExcess","type":"uint64","internalType":"uint64"},{"name":"maxGasIssuancePerBlock","type":"uint32","internalType":"uint32"}]}]}],"stateMutability":"nonpayable"},{"type":"function","name":"proveBlock","inputs":[{"name":"_blockId","type":"uint64","internalType":"uint64"},{"name":"_input","type":"bytes","internalType":"bytes"}],"outputs":[],"stateMutability":"nonpayable"},{"type":"function","name":"proveBlocks","inputs":[{"name":"_blockIds","type":"uint64[]","internalType":"uint64[]"},{"name":"_inputs","type":"bytes[]","internalType":"bytes[]"},{"name":"_batchProof","type":"bytes","internalType":"bytes"}],"outputs":[],"stateMutability":"nonpayable"},{"type":"function","name":"proxiableUUID","inputs":[],"outputs":[{"name":"","type":"bytes32","internalType":"bytes32"}],"stateMutability":"view"},{"type":"function","name":"renounceOwnership","inputs":[],"outputs":[],"stateMutability":"nonpayable"},{"type":"function","name":"resolve","inputs":[{"name":"_chainId","type":"uint64","internalType":"uint64"},{"name":"_name","type":"bytes32","internalType":"bytes32"},{"name":"_allowZeroAddress","type":"bool","internalType":"bool"}],"outputs":[{"name":"","type":"address","internalType":"address"}],"stateMutability":"view"},{"type":"function","name":"resolve","inputs":[{"name":"_name","type":"bytes32","internalType":"bytes32"},{"name":"_allowZeroAddress","type":"bool","internalType":"bool"}],"outputs":[{"name":"","type":"address","internalType":"address"}],"stateMutability":"view"},{"type":"function","name":"state","inputs":[],"outputs":[{"name":"__reserve1","type":"bytes32","internalType":"bytes32"},{"name":"slotA","type":"tuple","internalType":"struct TaikoData.SlotA","components":[{"name":"genesisHeight","type":"uint64","internalType":"uint64"},{"name":"genesisTimestamp","type":"uint64","internalType":"uint64"},{"name":"lastSyncedBlockId","type":"uint64","internalType":"uint64"},{"name":"lastSynecdAt","type":"uint64","internalType":"uint64"}]},{"name":"slotB","type":"tuple","internalType":"struct TaikoData.SlotB","components":[{"name":"numBlocks","type":"uint64","internalType":"uint64"},{"name":"lastVerifiedBlockId","type":"uint64","internalType":"uint64"},{"name":"provingPaused","type":"bool","internalType":"bool"},{"name":"__reservedB1","type":"uint8","internalType":"uint8"},{"name":"__reservedB2","type":"uint16","internalType":"uint16"},{"name":"__reservedB3","type":"uint32","internalType":"uint32"},{"name":"lastUnpausedAt","type":"uint64","internalType":"uint64"}]}],"stateMutability":"view"},{"type":"function","name":"transferOwnership","inputs":[{"name":"newOwner","type":"address","internalType":"address"}],"outputs":[],"stateMutability":"nonpayable"},{"type":"function","name":"unpause","inputs":[],"outputs":[],"stateMutability":"nonpayable"},{"type":"function","name":"upgradeTo","inputs":[{"name":"newImplementation","type":"address","internalType":"address"}],"outputs":[],"stateMutability":"nonpayable"},{"type":"function","name":"upgradeToAndCall","inputs":[{"name":"newImplementation","type":"address","internalType":"address"},{"name":"data","type":"bytes","internalType":"bytes"}],"outputs":[],"stateMutability":"payable"},{"type":"function","name":"verifyBlocks","inputs":[{"name":"_maxBlocksToVerify","type":"uint64","internalType":"uint64"}],"outputs":[],"stateMutability":"nonpayable"},{"type":"function","name":"withdrawBond","inputs":[{"name":"_amount","type":"uint256","internalType":"uint256"}],"outputs":[],"stateMutability":"nonpayable"},{"type":"event","name":"AdminChanged","inputs":[{"name":"previousAdmin","type":"address","indexed":false,"internalType":"address"},{"name":"newAdmin","type":"address","indexed":false,"internalType":"address"}],"anonymous":false},{"type":"event","name":"BeaconUpgraded","inputs":[{"name":"beacon","type":"address","indexed":true,"internalType":"address"}],"anonymous":false},{"type":"event","name":"BlockProposed","inputs":[{"name":"blockId","type":"uint256","indexed":true,"internalType":"uint256"},{"name":"assignedProver","type":"address","indexed":true,"internalType":"address"},{"name":"livenessBond","type":"uint96","indexed":false,"internalType":"uint96"},{"name":"meta","type":"tuple","indexed":false,"internalType":"struct TaikoData.BlockMetadata","components":[{"name":"l1Hash","type":"bytes32","internalType":"bytes32"},{"name":"difficulty","type":"bytes32","internalType":"bytes32"},{"name":"blobHash","type":"bytes32","internalType":"bytes32"},{"name":"extraData","type":"bytes32","internalType":"bytes32"},{"name":"depositsHash","type":"bytes32","internalType":"bytes32"},{"name":"coinbase","type":"address","internalType":"address"},{"name":"id","type":"uint64","internalType":"uint64"},{"name":"gasLimit","type":"uint32","internalType":"uint32"},{"name":"timestamp","type":"uint64","internalType":"uint64"},{"name":"l1Height","type":"uint64","internalType":"uint64"},{"name":"minTier","type":"uint16","internalType":"uint16"},{"name":"blobUsed","type":"bool","internalType":"bool"},{"name":"parentMetaHash","type":"bytes32","internalType":"bytes32"},{"name":"sender","type":"address","internalType":"address"}]},{"name":"depositsProcessed","type":"tuple[]","indexed":false,"internalType":"struct TaikoData.EthDeposit[]","components":[{"name":"recipient","type":"address","internalType":"address"},{"name":"amount","type":"uint96","internalType":"uint96"},{"name":"id","type":"uint64","internalType":"uint64"}]}],"anonymous":false},{"type":"event","name":"BlockProposedV2","inputs":[{"name":"blockId","type":"uint256","indexed":true,"internalType":"uint256"},{"name":"meta","type":"tuple","indexed":false,"internalType":"struct TaikoData.BlockMetadataV2","components":[{"name":"anchorBlockHash","type":"bytes32","internalType":"bytes32"},{"name":"difficulty","type":"bytes32","internalType":"bytes32"},{"name":"blobHash","type":"bytes32","internalType":"bytes32"},{"name":"extraData","type":"bytes32","internalType":"bytes32"},{"name":"coinbase","type":"address","internalType":"address"},{"name":"id","type":"uint64","internalType":"uint64"},{"name":"gasLimit","type":"uint32","internalType":"uint32"},{"name":"timestamp","type":"uint64","internalType":"uint64"},{"name":"anchorBlockId","type":"uint64","internalType":"uint64"},{"name":"minTier","type":"uint16","internalType":"uint16"},{"name":"blobUsed","type":"bool","internalType":"bool"},{"name":"parentMetaHash","type":"bytes32","internalType":"bytes32"},{"name":"proposer","type":"address","internalType":"address"},{"name":"livenessBond","type":"uint96","internalType":"uint96"},{"name":"proposedAt","type":"uint64","internalType":"uint64"},{"name":"proposedIn","type":"uint64","internalType":"uint64"},{"name":"blobTxListOffset","type":"uint32","internalType":"uint32"},{"name":"blobTxListLength","type":"uint32","internalType":"uint32"},{"name":"blobIndex","type":"uint8","internalType":"uint8"},{"name":"baseFeeConfig","type":"tuple","internalType":"struct TaikoData.BaseFeeConfig","components":[{"name":"adjustmentQuotient","type":"uint8","internalType":"uint8"},{"name":"sharingPctg","type":"uint8","internalType":"uint8"},{"name":"gasIssuancePerSecond","type":"uint32","internalType":"uint32"},{"name":"minGasExcess","type":"uint64","internalType":"uint64"},{"name":"maxGasIssuancePerBlock","type":"uint32","internalType":"uint32"}]}]}],"anonymous":false},{"type":"event","name":"BlockVerified","inputs":[{"name":"blockId","type":"uint256","indexed":true,"internalType":"uint256"},{"name":"prover","type":"address","indexed":true,"internalType":"address"},{"name":"blockHash","type":"bytes32","indexed":false,"internalType":"bytes32"},{"name":"stateRoot","type":"bytes32","indexed":false,"internalType":"bytes32"},{"name":"tier","type":"uint16","indexed":false,"internalType":"uint16"}],"anonymous":false},{"type":"event","name":"BlockVerified","inputs":[{"name":"blockId","type":"uint256","indexed":true,"internalType":"uint256"},{"name":"prover","type":"address","indexed":true,"internalType":"address"},{"name":"blockHash","type":"bytes32","indexed":false,"internalType":"bytes32"},{"name":"stateRoot","type":"bytes32","indexed":false,"internalType":"bytes32"},{"name":"tier","type":"uint16","indexed":false,"internalType":"uint16"}],"anonymous":false},{"type":"event","name":"BlockVerifiedV2","inputs":[{"name":"blockId","type":"uint256","indexed":true,"internalType":"uint256"},{"name":"prover","type":"address","indexed":true,"internalType":"address"},{"name":"blockHash","type":"bytes32","indexed":false,"internalType":"bytes32"},{"name":"tier","type":"uint16","indexed":false,"internalType":"uint16"}],"anonymous":false},{"type":"event","name":"BlockVerifiedV2","inputs":[{"name":"blockId","type":"uint256","indexed":true,"internalType":"uint256"},{"name":"prover","type":"address","indexed":true,"internalType":"address"},{"name":"blockHash","type":"bytes32","indexed":false,"internalType":"bytes32"},{"name":"tier","type":"uint16","indexed":false,"internalType":"uint16"}],"anonymous":false},{"type":"event","name":"BondCredited","inputs":[{"name":"user","type":"address","indexed":true,"internalType":"address"},{"name":"amount","type":"uint256","indexed":false,"internalType":"uint256"}],"anonymous":false},{"type":"event","name":"BondDebited","inputs":[{"name":"user","type":"address","indexed":true,"internalType":"address"},{"name":"amount","type":"uint256","indexed":false,"internalType":"uint256"}],"anonymous":false},{"type":"event","name":"CalldataTxList","inputs":[{"name":"blockId","type":"uint256","indexed":true,"internalType":"uint256"},{"name":"txList","type":"bytes","indexed":false,"internalType":"bytes"}],"anonymous":false},{"type":"event","name":"Initialized","inputs":[{"name":"version","type":"uint8","indexed":false,"internalType":"uint8"}],"anonymous":false},{"type":"event","name":"OwnershipTransferStarted","inputs":[{"name":"previousOwner","type":"address","indexed":true,"internalType":"address"},{"name":"newOwner","type":"address","indexed":true,"internalType":"address"}],"anonymous":false},{"type":"event","name":"OwnershipTransferred","inputs":[{"name":"previousOwner","type":"address","indexed":true,"internalType":"address"},{"name":"newOwner","type":"address","indexed":true,"internalType":"address"}],"anonymous":false},{"type":"event","name":"Paused","inputs":[{"name":"account","type":"address","indexed":false,"internalType":"address"}],"anonymous":false},{"type":"event","name":"ProvingPaused","inputs":[{"name":"paused","type":"bool","indexed":false,"internalType":"bool"}],"anonymous":false},{"type":"event","name":"ProvingPaused","inputs":[{"name":"paused","type":"bool","indexed":false,"internalType":"bool"}],"anonymous":false},{"type":"event","name":"StateVariablesUpdated","inputs":[{"name":"slotB","type":"tuple","indexed":false,"internalType":"struct TaikoData.SlotB","components":[{"name":"numBlocks","type":"uint64","internalType":"uint64"},{"name":"lastVerifiedBlockId","type":"uint64","internalType":"uint64"},{"name":"provingPaused","type":"bool","internalType":"bool"},{"name":"__reservedB1","type":"uint8","internalType":"uint8"},{"name":"__reservedB2","type":"uint16","internalType":"uint16"},{"name":"__reservedB3","type":"uint32","internalType":"uint32"},{"name":"lastUnpausedAt","type":"uint64","internalType":"uint64"}]}],"anonymous":false},{"type":"event","name":"TransitionContested","inputs":[{"name":"blockId","type":"uint256","indexed":true,"internalType":"uint256"},{"name":"tran","type":"tuple","indexed":false,"internalType":"struct TaikoData.Transition","components":[{"name":"parentHash","type":"bytes32","internalType":"bytes32"},{"name":"blockHash","type":"bytes32","internalType":"bytes32"},{"name":"stateRoot","type":"bytes32","internalType":"bytes32"},{"name":"graffiti","type":"bytes32","internalType":"bytes32"}]},{"name":"contester","type":"address","indexed":false,"internalType":"address"},{"name":"contestBond","type":"uint96","indexed":false,"internalType":"uint96"},{"name":"tier","type":"uint16","indexed":false,"internalType":"uint16"}],"anonymous":false},{"type":"event","name":"TransitionContestedV2","inputs":[{"name":"blockId","type":"uint256","indexed":true,"internalType":"uint256"},{"name":"tran","type":"tuple","indexed":false,"internalType":"struct TaikoData.Transition","components":[{"name":"parentHash","type":"bytes32","internalType":"bytes32"},{"name":"blockHash","type":"bytes32","internalType":"bytes32"},{"name":"stateRoot","type":"bytes32","internalType":"bytes32"},{"name":"graffiti","type":"bytes32","internalType":"bytes32"}]},{"name":"contester","type":"address","indexed":false,"internalType":"address"},{"name":"contestBond","type":"uint96","indexed":false,"internalType":"uint96"},{"name":"tier","type":"uint16","indexed":false,"internalType":"uint16"},{"name":"proposedIn","type":"uint64","indexed":false,"internalType":"uint64"}],"anonymous":false},{"type":"event","name":"TransitionProved","inputs":[{"name":"blockId","type":"uint256","indexed":true,"internalType":"uint256"},{"name":"tran","type":"tuple","indexed":false,"internalType":"struct TaikoData.Transition","components":[{"name":"parentHash","type":"bytes32","internalType":"bytes32"},{"name":"blockHash","type":"bytes32","internalType":"bytes32"},{"name":"stateRoot","type":"bytes32","internalType":"bytes32"},{"name":"graffiti","type":"bytes32","internalType":"bytes32"}]},{"name":"prover","type":"address","indexed":false,"internalType":"address"},{"name":"validityBond","type":"uint96","indexed":false,"internalType":"uint96"},{"name":"tier","type":"uint16","indexed":false,"internalType":"uint16"}],"anonymous":false},{"type":"event","name":"TransitionProvedV2","inputs":[{"name":"blockId","type":"uint256","indexed":true,"internalType":"uint256"},{"name":"tran","type":"tuple","indexed":false,"internalType":"struct TaikoData.Transition","components":[{"name":"parentHash","type":"bytes32","internalType":"bytes32"},{"name":"blockHash","type":"bytes32","internalType":"bytes32"},{"name":"stateRoot","type":"bytes32","internalType":"bytes32"},{"name":"graffiti","type":"bytes32","internalType":"bytes32"}]},{"name":"prover","type":"address","indexed":false,"internalType":"address"},{"name":"validityBond","type":"uint96","indexed":false,"internalType":"uint96"},{"name":"tier","type":"uint16","indexed":false,"internalType":"uint16"},{"name":"proposedIn","type":"uint64","indexed":false,"internalType":"uint64"}],"anonymous":false},{"type":"event","name":"Unpaused","inputs":[{"name":"account","type":"address","indexed":false,"internalType":"address"}],"anonymous":false},{"type":"event","name":"Upgraded","inputs":[{"name":"implementation","type":"address","indexed":true,"internalType":"address"}],"anonymous":false},{"type":"error","name":"FUNC_NOT_IMPLEMENTED","inputs":[]},{"type":"error","name":"INVALID_PAUSE_STATUS","inputs":[]},{"type":"error","name":"L1_FORK_ERROR","inputs":[]},{"type":"error","name":"L1_INVALID_BLOCK_ID","inputs":[]},{"type":"error","name":"L1_INVALID_GENESIS_HASH","inputs":[]},{"type":"error","name":"L1_INVALID_PARAMS","inputs":[]},{"type":"error","name":"L1_INVALID_PAUSE_STATUS","inputs":[]},{"type":"error","name":"L1_PROVING_PAUSED","inputs":[]},{"type":"error","name":"L1_TRANSITION_NOT_FOUND","inputs":[]},{"type":"error","name":"L1_UNEXPECTED_TRANSITION_ID","inputs":[]},{"type":"error","name":"REENTRANT_CALL","inputs":[]},{"type":"error","name":"RESOLVER_DENIED","inputs":[]},{"type":"error","name":"RESOLVER_INVALID_MANAGER","inputs":[]},{"type":"error","name":"RESOLVER_UNEXPECTED_CHAINID","inputs":[]},{"type":"error","name":"RESOLVER_ZERO_ADDR","inputs":[{"name":"chainId","type":"uint64","internalType":"uint64"},{"name":"name","type":"bytes32","internalType":"bytes32"}]},{"type":"error","name":"ZERO_ADDRESS","inputs":[]},{"type":"error","name":"ZERO_VALUE","inputs":[]}],"bytecode":{"object":"0x60a060405230608052348015610013575f5ffd5b5061001c610029565b610024610029565b6100e5565b5f54610100900460ff16156100945760405162461bcd60e51b815260206004820152602760248201527f496e697469616c697a61626c653a20636f6e747261637420697320696e697469604482015266616c697a696e6760c81b606482015260840160405180910390fd5b5f5460ff908116146100e3575f805460ff191660ff9081179091556040519081527f7f26b83ff96e1f2b6a682f133852f6798a09c465da95921460cefb38474024989060200160405180910390a15b565b6080516148226101195f395f8181610e4b01528181610e8b015281816111dc0152818161121c015261129701526148225ff3fe608060405260043610610228575f3560e01c8063648885fb11610129578063c19d93fb116100a8578063e30c39781161006d578063e30c39781461086d578063ef16e8451461088a578063f2fde38b146108ab578063fd257e29146108ca578063ff00c391146108e9575f5ffd5b8063c19d93fb146105e5578063c3daab96146106c5578063c3f909d4146106e4578063dde89cf514610705578063e07baba614610830575f5ffd5b80638abf6077116100ee5780638abf6077146105625780638da5cb5b146105765780639413caa914610593578063a86f9d9e146105a7578063a9c2c835146105c6575f5ffd5b8063648885fb146104db578063715018a61461050757806379ba50971461051b5780638456cb591461052f5780638778209d14610543575f5ffd5b80633f0c544a116101b557806352d1902d1161017a57806352d1902d14610422578063563479a5146104445780635c975abb146104705780635fa15e79146104905780636074b8c1146104bc575f5ffd5b80633f0c544a146103915780633f4ba83a146103bd578063440b6e18146103d15780634dcb05f9146103f05780634f1ef2861461040f575f5ffd5b806329d1b62f116101fb57806329d1b62f146102d95780633075db56146102f85780633659cfe61461031c5780633ab76e9f1461033b5780633eb6b8cf14610372575f5ffd5b8063069489a21461022c5780630c8f4a101461024257806310d008bd1461027757806326af798614610296575b5f5ffd5b348015610237575f5ffd5b50610240610908565b005b34801561024d575f5ffd5b5061026161025c366004612f3c565b6109bf565b60405161026e91906131a6565b60405180910390f35b348015610282575f5ffd5b50610240610291366004613245565b610bc5565b3480156102a1575f5ffd5b506102aa610d07565b604080516001600160401b0395861681526020810194909452830191909152909116606082015260800161026e565b3480156102e4575f5ffd5b506102406102f33660046132b6565b610d3e565b348015610303575f5ffd5b5061030c610e29565b604051901515815260200161026e565b348015610327575f5ffd5b50610240610336366004613306565b610e41565b348015610346575f5ffd5b5060975461035a906001600160a01b031681565b6040516001600160a01b03909116815260200161026e565b34801561037d575f5ffd5b5061035a61038c366004613321565b610f08565b34801561039c575f5ffd5b506103b06103ab366004613360565b610f1e565b60405161026e919061337b565b3480156103c8575f5ffd5b5061024061101e565b3480156103dc575f5ffd5b506102406103eb366004613446565b611049565b3480156103fb575f5ffd5b5061024061040a3660046134e2565b611194565b61024061041d366004613589565b6111d2565b34801561042d575f5ffd5b5061043661128b565b60405190815260200161026e565b34801561044f575f5ffd5b5061046361045e36600461363f565b61133c565b60405161026e9190613676565b34801561047b575f5ffd5b5061030c60b154610100900460ff1660021490565b34801561049b575f5ffd5b506104af6104aa366004613360565b611400565b60405161026e919061374b565b3480156104c7575f5ffd5b5061035a6104d6366004613360565b6115dc565b3480156104e6575f5ffd5b506104fa6104f53660046137f3565b6115f0565b60405161026e9190613851565b348015610512575f5ffd5b50610240611873565b348015610526575f5ffd5b50610240611886565b34801561053a575f5ffd5b506102406118fd565b34801561054e575f5ffd5b5061024061055d366004613360565b611910565b34801561056d575f5ffd5b5061035a611a49565b348015610581575f5ffd5b506033546001600160a01b031661035a565b34801561059e575f5ffd5b506102aa611a57565b3480156105b2575f5ffd5b5061035a6105c1366004613860565b611a7a565b3480156105d1575f5ffd5b506104366105e0366004613306565b611a86565b3480156105f0575f5ffd5b5060fe54604080516080808201835260ff80546001600160401b038082168552600160401b8083048216602080880191909152600160801b8085048416888a0152600160c01b9485900484166060808a0191909152895160e081018b526101005480871682529485048616938101939093529083048616151598820198909852600160881b82049094169684019690965261ffff600160901b8704169383019390935263ffffffff600160a01b86041660a08301529093041660c08301526106b6929183565b60405161026e93929190613946565b3480156106d0575f5ffd5b506102406106df3660046134e2565b611aa4565b3480156106ef575f5ffd5b506106f8611ae2565b60405161026e9190613968565b348015610710575f5ffd5b5061082260408051608080820183525f80835260208084018290528385018290526060938401829052845160e0808201875283825281830184905281870184905281860184905281850184905260a080830185905260c0928301949094528651808601885260ff80546001600160401b038082168452600160401b808304821685890152600160801b8084048316868e0152600160c01b938490048316868d01528c519687018d52610100548084168852918204831698870198909852968704831615159a85019a909a52600160881b860490911697830197909752600160901b840461ffff1695820195909552600160a01b830463ffffffff16938101939093529390049093169183019190915291565b60405161026e929190613a5e565b34801561083b575f5ffd5b5060b154610855906201000090046001600160401b031681565b6040516001600160401b03909116815260200161026e565b348015610878575f5ffd5b506065546001600160a01b031661035a565b61089d6108983660046137f3565b611c05565b60405161026e929190613ae8565b3480156108b6575f5ffd5b506102406108c5366004613306565b611e92565b3480156108d5575f5ffd5b506104636108e4366004613c0b565b611f03565b3480156108f4575f5ffd5b50610240610903366004613c35565b611f1f565b610910611f34565b5f54600290610100900460ff1615801561093057505f5460ff8083169116105b6109555760405162461bcd60e51b815260040161094c90613c50565b60405180910390fd5b5f8054610100805466ffffffffffffff60881b1916815560fe83905561ff001960ff851661ffff199093168317909117169091556040519081527f7f26b83ff96e1f2b6a682f133852f6798a09c465da95921460cefb38474024989060200160405180910390a150565b60606d313637b1b5afb83937b837b9b2b960911b5f6109df826001611a7a565b90506001600160a01b03811615801590610a025750336001600160a01b03821614155b15610a2057604051630d85cccf60e11b815260040160405180910390fd5b610a3460b154610100900460ff1660021490565b15610a525760405163bae6e2a960e01b815260040160405180910390fd5b6002610a6060b15460ff1690565b60ff1603610a815760405163dfc60d8560e01b815260040160405180910390fd5b610a8b6002611f8e565b5f610a94611ae2565b604051637f6cbe2960e11b815290915073__$aaca4c39edefb6ff6bc65f4c1427eb49f0$__9063fed97c5290610adb9060fb90859030908e908e908e908e90600401613e48565b5f60405180830381865af4158015610af5573d5f5f3e3d5ffd5b505050506040513d5f823e601f3d908101601f19168201604052610b1c9190810190614287565b94505f90505b8451811015610b88578161012001516001600160401b0316858281518110610b4c57610b4c61434f565b602002602001015160a001516001600160401b03161015610b8057604051631d07260d60e11b815260040160405180910390fd5b600101610b22565b50506040515f5160206147a65f395f51905f5290610ba99061010090614363565b60405180910390a1610bbb6001611f8e565b5050949350505050565b610bd960b154610100900460ff1660021490565b15610bf75760405163bae6e2a960e01b815260040160405180910390fd5b61010054600160801b900460ff1615610c23576040516333018e5560e11b815260040160405180910390fd5b6002610c3160b15460ff1690565b60ff1603610c525760405163dfc60d8560e01b815260040160405180910390fd5b610c5c6002611f8e565b73__$cc36f7700d998713b0f67f1ca159dd4807$__638609dced60fb610c80611ae2565b308787876040518763ffffffff1660e01b8152600401610ca5969594939291906143d8565b5f6040518083038186803b158015610cbb575f5ffd5b505af4158015610ccd573d5f5f3e3d5ffd5b50506040515f5160206147a65f395f51905f529250610cf0915061010090614363565b60405180910390a1610d026001611f8e565b505050565b61010054600160401b90046001600160401b03165f8080610d3160fb610d2b611ae2565b86611fa4565b9596919590945092509050565b5f54610100900460ff1615808015610d5c57505f54600160ff909116105b80610d755750303b158015610d7557505f5460ff166001145b610d915760405162461bcd60e51b815260040161094c90613c50565b5f805460ff191660011790558015610db2575f805461ff0019166101001790555b610dbc8585612028565b610dcf60fb610dc9611ae2565b85612062565b8115610ddd57610ddd612201565b8015610e22575f805461ff0019169055604051600181527f7f26b83ff96e1f2b6a682f133852f6798a09c465da95921460cefb38474024989060200160405180910390a15b5050505050565b5f6002610e3860b15460ff1690565b60ff1614905090565b6001600160a01b037f0000000000000000000000000000000000000000000000000000000000000000163003610e895760405162461bcd60e51b815260040161094c9061442e565b7f00000000000000000000000000000000000000000000000000000000000000006001600160a01b0316610ebb612278565b6001600160a01b031614610ee15760405162461bcd60e51b815260040161094c9061447a565b610eea81612293565b604080515f80825260208201909252610f059183919061229b565b50565b5f610f14848484612405565b90505b9392505050565b60408051610120810182525f80825260208201819052918101829052606081018290526080810182905260a0810182905260c0810182905260e08101829052610100810191909152610f7960fb610f73611ae2565b84612457565b5060408051610120810182528254815260018301546001600160a01b03811660208301526001600160601b03600160a01b90910416918101919091526002909101546001600160401b038082166060840152600160401b820481166080840152600160801b82041660a083015262ffffff600160c01b8204811660c084015260ff600160d81b830416151560e0840152600160e01b9091041661010082015292915050565b6110266124b7565b61010080546001600160c01b0316600160c01b426001600160401b031602179055565b61105d60b154610100900460ff1660021490565b1561107b5760405163bae6e2a960e01b815260040160405180910390fd5b61010054600160801b900460ff16156110a7576040516333018e5560e11b815260040160405180910390fd5b60026110b560b15460ff1690565b60ff16036110d65760405163dfc60d8560e01b815260040160405180910390fd5b6110e06002611f8e565b73__$cc36f7700d998713b0f67f1ca159dd4807$__63805f2d2e60fb611104611ae2565b308a8a8a8a8a8a6040518a63ffffffff1660e01b815260040161112f999897969594939291906144c6565b5f6040518083038186803b158015611145575f5ffd5b505af4158015611157573d5f5f3e3d5ffd5b50506040515f5160206147a65f395f51905f52925061117a915061010090614363565b60405180910390a161118c6001611f8e565b505050505050565b6111a860b154610100900460ff1660021490565b156111c65760405163bae6e2a960e01b815260040160405180910390fd5b610f0560fb30836124c9565b6001600160a01b037f000000000000000000000000000000000000000000000000000000000000000016300361121a5760405162461bcd60e51b815260040161094c9061442e565b7f00000000000000000000000000000000000000000000000000000000000000006001600160a01b031661124c612278565b6001600160a01b0316146112725760405162461bcd60e51b815260040161094c9061447a565b61127b82612293565b6112878282600161229b565b5050565b5f306001600160a01b037f0000000000000000000000000000000000000000000000000000000000000000161461132a5760405162461bcd60e51b815260206004820152603860248201527f555550535570677261646561626c653a206d757374206e6f742062652063616c60448201527f6c6564207468726f7567682064656c656761746563616c6c0000000000000000606482015260840161094c565b505f5160206147865f395f51905f5290565b611344612ea2565b61135860fb611351611ae2565b8585612575565b6040805161014081018252825481526001830154602082015260028301549181019190915260038201546001600160a01b0380821660608401526001600160601b03600160a01b9283900481166080850152600485015491821660a08501529190041660c08201526005909101546001600160401b03811660e083015261ffff600160401b82041661010083015260ff600160501b9091041661012082015290505b92915050565b60408051610100810182525f80825260208201819052918101829052606081018290526080810182905260a0810182905260c0810182905260e081018290529061145360fb61144d611ae2565b85612457565b5060408051610120810182528254815260018301546001600160a01b03811660208301526001600160601b03600160a01b90910416918101919091526002909101546001600160401b038082166060840152600160401b820481166080840152600160801b82041660a083015262ffffff600160c01b8204811660c084015260ff600160d81b830416151560e0840152600160e01b909104166101008201529050610f178160408051610100810182525f80825260208201819052918101829052606081018290526080810182905260a0810182905260c0810182905260e0810191909152604051806101000160405280835f0151815260200183602001516001600160a01b0316815260200183604001516001600160601b0316815260200183606001516001600160401b0316815260200183608001516001600160401b031681526020018360a001516001600160401b031681526020018360c0015162ffffff1663ffffffff16815260200183610100015162ffffff1663ffffffff168152509050919050565b5f6113fa60fb6115ea611ae2565b84612604565b6116b760408051610280810182525f80825260208083018290528284018290526060808401839052608080850184905260a080860185905260c0860185905260e08601859052610100860185905261012086018590526101408601859052610160860185905261018086018590526101a086018590526101c086018590526101e08601859052610200860185905261022086018590526102408601859052865190810187528481529283018490529482018390528101829052928301529061026082015290565b6d313637b1b5afb83937b837b9b2b960911b5f6116d5826001611a7a565b90506001600160a01b038116158015906116f85750336001600160a01b03821614155b1561171657604051630d85cccf60e11b815260040160405180910390fd5b61172a60b154610100900460ff1660021490565b156117485760405163bae6e2a960e01b815260040160405180910390fd5b600261175660b15460ff1690565b60ff16036117775760405163dfc60d8560e01b815260040160405180910390fd5b6117816002611f8e565b5f61178a611ae2565b6040516397fa596560e01b815290915073__$aaca4c39edefb6ff6bc65f4c1427eb49f0$__906397fa5965906117d19060fb90859030908e908e908e908e9060040161456c565b6104c060405180830381865af41580156117ed573d5f5f3e3d5ffd5b505050506040513d601f19601f8201168201806040525081019061181191906145ba565b9050809450508061012001516001600160401b03168460a001516001600160401b0316101561185357604051631d07260d60e11b815260040160405180910390fd5b506040515f5160206147a65f395f51905f5290610ba99061010090614363565b61187b611f34565b6118845f612660565b565b60655433906001600160a01b031681146118f45760405162461bcd60e51b815260206004820152602960248201527f4f776e61626c6532537465703a2063616c6c6572206973206e6f7420746865206044820152683732bb9037bbb732b960b91b606482015260840161094c565b610f0581612660565b611905612201565b611884336001612679565b61192460b154610100900460ff1660021490565b156119425760405163bae6e2a960e01b815260040160405180910390fd5b61010054600160801b900460ff161561196e576040516333018e5560e11b815260040160405180910390fd5b600261197c60b15460ff1690565b60ff160361199d5760405163dfc60d8560e01b815260040160405180910390fd5b6119a76002611f8e565b73__$10ff7fc2c9811224abb3460bd26e91127c$__63c0d393e760fb6119cb611ae2565b30856040518563ffffffff1660e01b81526004016119ec94939291906145ef565b5f6040518083038186803b158015611a02575f5ffd5b505af4158015611a14573d5f5f3e3d5ffd5b50506040515f5160206147a65f395f51905f529250611a37915061010090614363565b60405180910390a1610f056001611f8e565b5f611a52612278565b905090565b60ff54600160801b90046001600160401b03165f8080610d3160fb610d2b611ae2565b5f610f17468484612405565b6001600160a01b0381165f90815261010160205260408120546113fa565b611ab860b154610100900460ff1660021490565b15611ad65760405163bae6e2a960e01b815260040160405180910390fd5b610f0560fb30836126f8565b611b5a60408051610140810182525f80825260208083018290528284018290526060808401839052608080850184905260a080860185905260c0860185905260e08601859052865190810187528481529283018490529482018390528101829052928301529061010082019081525f60209091015290565b50604080516101408101825262028c5881526204f1a060208083019190915262057e408284015260106060808401829052630e4e1c006080808601919091526806c6b935b8bbd4000060a08087019190915260c086019390935260e085018690528551928301865260088352604b93830193909352624c4b4094820194909452634fdec700938101939093526323c34600908301526101008101919091526205b68061012082015290565b604080516101c0810182525f80825260208201819052918101829052606081018290526080810182905260a0810182905260c0810182905260e08101829052610100810182905261012081018290526101408101829052610160810182905261018081018290526101a081019190915260606d313637b1b5afb83937b837b9b2b960911b5f611c95826001611a7a565b90506001600160a01b03811615801590611cb85750336001600160a01b03821614155b15611cd657604051630d85cccf60e11b815260040160405180910390fd5b611cea60b154610100900460ff1660021490565b15611d085760405163bae6e2a960e01b815260040160405180910390fd5b6002611d1660b15460ff1690565b60ff1603611d375760405163dfc60d8560e01b815260040160405180910390fd5b611d416002611f8e565b5f611d4a611ae2565b6040516397fa596560e01b815290915073__$aaca4c39edefb6ff6bc65f4c1427eb49f0$__906397fa596590611d919060fb90859030908f908f908f908f9060040161456c565b6104c060405180830381865af4158015611dad573d5f5f3e3d5ffd5b505050506040513d601f19601f82011682018060405250810190611dd191906145ba565b50809550508061012001516001600160401b03168560c001516001600160401b031610611e1157604051631d07260d60e11b815260040160405180910390fd5b604080515f8082526020820190925290611e51565b604080516060810182525f80825260208083018290529282015282525f19909201910181611e265790505b509350505f5160206147a65f395f51905f5260fb600501604051611e759190614363565b60405180910390a1611e876001611f8e565b505094509492505050565b611e9a611f34565b606580546001600160a01b0383166001600160a01b03199091168117909155611ecb6033546001600160a01b031690565b6001600160a01b03167f38d16b8cac22d99fc7c124b9cd0de2d3fa1faef420bfe791d8c362d765e2270060405160405180910390a350565b611f0b612ea2565b61135860fb611f18611ae2565b858561275c565b611f293382612679565b610f0560fb826127d7565b6033546001600160a01b031633146118845760405162461bcd60e51b815260206004820181905260248201527f4f776e61626c653a2063616c6c6572206973206e6f7420746865206f776e6572604482015260640161094c565b60b1805460ff191660ff92909216919091179055565b5f5f5f5f5f611fb4888888612457565b60028201549193509150600160e01b900462ffffff161561201d576001600160401b038181165f90815260028a81016020908152604080842087840154600160e01b900462ffffff16855290915290912060018101549181015460059091015491975095501692505b505093509350939050565b806001600160a01b0381166120505760405163538ba4f960e01b815260040160405180910390fd5b61205983612884565b610d02826128e2565b5f8190036120835760405163d6d0f75560e01b815260040160405180910390fd5b600483018054426001600160401b03908116600160401b81026fffffffffffffffffffffffffffffffff199093164383161783179093556005808701805467ffffffffffffffff1990811660019081179092555f80805260208a815260408083206002808201805462ffffff60e01b197affffff0000000000000000ffffffffffffffff000000000000000019909116909b17600160c11b179a909a16600160e01b17909955858155978c01825280832085845290915281209283018890556003830180546001600160a01b0319169055928201805490911690951790945561012086015192939290911690036121b657604080518481525f602082018190529182917fe5a390d9800811154279af0c1a80d3bdf558ea91f1301e7c6ec3c1ad83e80aef910160405180910390a3610e22565b604080518481525f6020820181905291810182905281907fdecbd2c61cbda254917d6fd4c980a470701e8f9f1b744f6ad163ca70ca5db2899060600160405180910390a35050505050565b61221560b154610100900460ff1660021490565b156122335760405163bae6e2a960e01b815260040160405180910390fd5b60b1805461ff0019166102001790556040513381527f62e78cea01bee320cd4e420270b5ea74000d11b0c9f74754ebdbfc544b05a258906020015b60405180910390a1565b5f5160206147865f395f51905f52546001600160a01b031690565b610f05611f34565b7f4910fdfa16fed3260ed0e7147f7cc6da11a60208b5b9406d12a635614ffd91435460ff16156122ce57610d0283612952565b826001600160a01b03166352d1902d6040518163ffffffff1660e01b8152600401602060405180830381865afa925050508015612328575060408051601f3d908101601f191682019092526123259181019061462f565b60015b61238b5760405162461bcd60e51b815260206004820152602e60248201527f45524331393637557067726164653a206e657720696d706c656d656e7461746960448201526d6f6e206973206e6f74205555505360901b606482015260840161094c565b5f5160206147865f395f51905f5281146123f95760405162461bcd60e51b815260206004820152602960248201527f45524331393637557067726164653a20756e737570706f727465642070726f786044820152681a58589b195555525160ba1b606482015260840161094c565b50610d028383836129ed565b5f6124108484612a11565b90508115801561242757506001600160a01b038116155b15610f1757604051632b0d65db60e01b81526001600160401b03851660048201526024810184905260440161094c565b5f5f8360400151836124699190614646565b6001600160401b038181165f90815260208890526040902060028101549094509192508481169116146124af57604051638a1c400f60e01b815260040160405180910390fd5b935093915050565b6124bf612ab3565b611884335f612679565b335f908152600684016020526040812080548392906124e9908490614693565b909155506124f8905082612b3d565b6040516323b872dd60e01b8152336004820152306024820152604481018390526001600160a01b0391909116906323b872dd906064015b6020604051808303815f875af115801561254b573d5f5f3e3d5ffd5b505050506040513d601f19601f8201168201806040525081019061256f91906146a6565b50505050565b5f5f5f612583878787612457565b915091508363ffffffff165f14806125b157506002820154600160c01b900462ffffff1663ffffffff851610155b156125cf5760405163727b1d6160e01b815260040160405180910390fd5b6001600160401b03165f908152600287016020908152604080832063ffffffff8716845290915290209150505b949350505050565b5f5f612611858585612457565b506002810154909150600160e01b900462ffffff165f819003612638575f92505050610f17565b6126498686868462ffffff16612575565b600301546001600160a01b03169695505050505050565b606580546001600160a01b0319169055610f0581612bba565b6d636861696e5f7761746368646f6760901b61269d6033546001600160a01b031690565b6001600160a01b0316336001600160a01b0316141580156126da57506126c4816001611a7a565b6001600160a01b0316336001600160a01b031614155b15610d0257604051630d85cccf60e11b815260040160405180910390fd5b335f908152600684016020526040812080548392906127189084906146c1565b90915550612727905082612b3d565b60405163a9059cbb60e01b8152336004820152602481018390526001600160a01b03919091169063a9059cbb9060440161252f565b5f5f5f61276a878787612457565b915091505f61277b88848488612c0b565b90508062ffffff165f036127a25760405163727b1d6160e01b815260040160405180910390fd5b6001600160401b039091165f908152600288016020908152604080832062ffffff909416835292905220915050949350505050565b6005820154811515600160801b90910460ff1615150361280a5760405163689d009d60e11b815260040160405180910390fd5b60058201805460ff60801b1916600160801b831515021790558061284b576005820180546001600160c01b0316600160c01b426001600160401b0316021790555b60405181151581527fed64db85835d07c3c990b8ebdd55e32d64e5ed53143b6ef2179e7bfaf17ddc3b9060200160405180910390a15050565b5f54610100900460ff166128aa5760405162461bcd60e51b815260040161094c906146d4565b6128b2612d0c565b6128d06001600160a01b038216156128ca5781612660565b33612660565b5060b1805461ff001916610100179055565b5f54610100900460ff166129085760405162461bcd60e51b815260040161094c906146d4565b6001600160401b034611156129305760405163a12e8fa960e01b815260040160405180910390fd5b609780546001600160a01b0319166001600160a01b0392909216919091179055565b6001600160a01b0381163b6129bf5760405162461bcd60e51b815260206004820152602d60248201527f455243313936373a206e657720696d706c656d656e746174696f6e206973206e60448201526c1bdd08184818dbdb9d1c9858dd609a1b606482015260840161094c565b5f5160206147865f395f51905f5280546001600160a01b0319166001600160a01b0392909216919091179055565b6129f683612d32565b5f82511180612a025750805b15610d025761256f8383612d71565b6097545f906001600160a01b031680612a3d57604051638ed88b2560e01b815260040160405180910390fd5b604051630a3dc4f360e21b81526001600160401b0385166004820152602481018490526001600160a01b038216906328f713cc90604401602060405180830381865afa158015612a8f573d5f5f3e3d5ffd5b505050506040513d601f19601f820116820180604052508101906125fc919061471f565b612ac760b154610100900460ff1660021490565b612ae45760405163bae6e2a960e01b815260040160405180910390fd5b60b1805461010069ffffffffffffffffff001990911662010000426001600160401b031602171790556040513381527f5db9ee0a495bf2e6ff9c91a7834c1ba4fdd244a5e8aa4e537bd38aeae4b073aa9060200161226e565b604051635437cecf60e11b81526a3a30b4b5b7afba37b5b2b760a91b60048201525f60248201819052906001600160a01b0383169063a86f9d9e90604401602060405180830381865afa158015612b96573d5f5f3e3d5ffd5b505050506040513d601f19601f820116820180604052508101906113fa919061471f565b603380546001600160a01b038381166001600160a01b0319831681179093556040519116919082907f8be0079c531659141344cd1fd0a4f28419497f9722a3daafe3b4186f6b6457e0905f90a35050565b6001600160401b0382165f908152600285016020908152604080832060018452909152812054829003612c9c57506001811580612c485750600182145b15612c5457505f6125fc565b600284015462ffffff600160c01b909104811690821610801590612c79575060018214155b15612c97576040516367a1907f60e01b815260040160405180910390fd5b6125fc565b5060028301546001600160401b03165f908152600185016020908152604080832084845290915290205462ffffff168015801590612cee5750600284015462ffffff600160c01b909104811690821610155b156125fc576040516367a1907f60e01b815260040160405180910390fd5b5f54610100900460ff166118845760405162461bcd60e51b815260040161094c906146d4565b612d3b81612952565b6040516001600160a01b038216907fbc7cd75a20ee27fd9adebab32041f755214dbc6bffa90cc0225b39da2e5c2d3b905f90a250565b6060610f1783836040518060600160405280602781526020016147c66027913960605f5f856001600160a01b031685604051612dad919061473a565b5f60405180830381855af49150503d805f8114612de5576040519150601f19603f3d011682016040523d82523d5f602084013e612dea565b606091505b5091509150612dfb86838387612e05565b9695505050505050565b60608315612e735782515f03612e6c576001600160a01b0385163b612e6c5760405162461bcd60e51b815260206004820152601d60248201527f416464726573733a2063616c6c20746f206e6f6e2d636f6e7472616374000000604482015260640161094c565b50816125fc565b6125fc8383815115612e885781518083602001fd5b8060405162461bcd60e51b815260040161094c9190614750565b60408051610140810182525f80825260208201819052918101829052606081018290526080810182905260a0810182905260c0810182905260e08101829052610100810182905261012081019190915290565b5f5f83601f840112612f05575f5ffd5b5081356001600160401b03811115612f1b575f5ffd5b6020830191508360208260051b8501011115612f35575f5ffd5b9250929050565b5f5f5f5f60408587031215612f4f575f5ffd5b84356001600160401b03811115612f64575f5ffd5b612f7087828801612ef5565b90955093505060208501356001600160401b03811115612f8e575f5ffd5b612f9a87828801612ef5565b95989497509550505050565b60ff815116825260ff602082015116602083015263ffffffff60408201511660408301526001600160401b03606082015116606083015263ffffffff60808201511660808301525050565b80518252602081015160208301526040810151604083015260608101516060830152608081015161302d60808401826001600160a01b03169052565b5060a081015161304860a08401826001600160401b03169052565b5060c081015161306060c084018263ffffffff169052565b5060e081015161307b60e08401826001600160401b03169052565b506101008101516130986101008401826001600160401b03169052565b506101208101516130b061012084018261ffff169052565b506101408101516130c661014084018215159052565b506101608101516101608301526101808101516130ef6101808401826001600160a01b03169052565b506101a081015161310c6101a08401826001600160601b03169052565b506101c08101516131296101c08401826001600160401b03169052565b506101e08101516131466101e08401826001600160401b03169052565b5061020081015161316061020084018263ffffffff169052565b5061022081015161317a61022084018263ffffffff169052565b5061024081015161319161024084018260ff169052565b50610260810151610d02610260840182612fa6565b602080825282518282018190525f918401906040840190835b818110156131e9576131d2838551612ff1565b6020939093019261030092909201916001016131bf565b509095945050505050565b6001600160401b0381168114610f05575f5ffd5b5f5f83601f840112613218575f5ffd5b5081356001600160401b0381111561322e575f5ffd5b602083019150836020828501011115612f35575f5ffd5b5f5f5f60408486031215613257575f5ffd5b8335613262816131f4565b925060208401356001600160401b0381111561327c575f5ffd5b61328886828701613208565b9497909650939450505050565b6001600160a01b0381168114610f05575f5ffd5b8015158114610f05575f5ffd5b5f5f5f5f608085870312156132c9575f5ffd5b84356132d481613295565b935060208501356132e481613295565b92506040850135915060608501356132fb816132a9565b939692955090935050565b5f60208284031215613316575f5ffd5b8135610f1781613295565b5f5f5f60608486031215613333575f5ffd5b833561333e816131f4565b9250602084013591506040840135613355816132a9565b809150509250925092565b5f60208284031215613370575f5ffd5b8135610f17816131f4565b815181526020808301516001600160a01b0316908201526040808301516001600160601b0316908201526060808301516101208301916133c5908401826001600160401b03169052565b5060808301516133e060808401826001600160401b03169052565b5060a08301516133fb60a08401826001600160401b03169052565b5060c083015161341260c084018262ffffff169052565b5060e083015161342660e084018215159052565b5061010083015161343f61010084018262ffffff169052565b5092915050565b5f5f5f5f5f5f6060878903121561345b575f5ffd5b86356001600160401b03811115613470575f5ffd5b61347c89828a01612ef5565b90975095505060208701356001600160401b0381111561349a575f5ffd5b6134a689828a01612ef5565b90955093505060408701356001600160401b038111156134c4575f5ffd5b6134d089828a01613208565b979a9699509497509295939492505050565b5f602082840312156134f2575f5ffd5b5035919050565b634e487b7160e01b5f52604160045260245ffd5b6040516101c081016001600160401b0381118282101715613530576135306134f9565b60405290565b60405161028081016001600160401b0381118282101715613530576135306134f9565b604051601f8201601f191681016001600160401b0381118282101715613581576135816134f9565b604052919050565b5f5f6040838503121561359a575f5ffd5b82356135a581613295565b915060208301356001600160401b038111156135bf575f5ffd5b8301601f810185136135cf575f5ffd5b80356001600160401b038111156135e8576135e86134f9565b6135fb601f8201601f1916602001613559565b81815286602083850101111561360f575f5ffd5b816020840160208301375f602083830101528093505050509250929050565b63ffffffff81168114610f05575f5ffd5b5f5f60408385031215613650575f5ffd5b823561365b816131f4565b9150602083013561366b8161362e565b809150509250929050565b5f6101408201905082518252602083015160208301526040830151604083015260608301516136b060608401826001600160a01b03169052565b5060808301516136cb60808401826001600160601b03169052565b5060a08301516136e660a08401826001600160a01b03169052565b5060c083015161370160c08401826001600160601b03169052565b5060e083015161371c60e08401826001600160401b03169052565b5061010083015161373461010084018261ffff169052565b5061012083015161343f61012084018260ff169052565b815181526020808301516001600160a01b0316908201526040808301516001600160601b0316908201526060808301516001600160401b0316908201526080808301516101008301916137a8908401826001600160401b03169052565b5060a08301516137c360a08401826001600160401b03169052565b5060c08301516137db60c084018263ffffffff169052565b5060e083015161343f60e084018263ffffffff169052565b5f5f5f5f60408587031215613806575f5ffd5b84356001600160401b0381111561381b575f5ffd5b61382787828801613208565b90955093505060208501356001600160401b03811115613845575f5ffd5b612f9a87828801613208565b61030081016113fa8284612ff1565b5f5f60408385031215613871575f5ffd5b82359150602083013561366b816132a9565b6001600160401b0381511682526001600160401b0360208201511660208301526001600160401b0360408201511660408301526001600160401b0360608201511660608301525050565b6001600160401b0381511682526001600160401b03602082015116602083015260408101511515604083015260ff606082015116606083015261ffff608082015116608083015260a081015161392b60a084018263ffffffff169052565b5060c0810151610d0260c08401826001600160401b03169052565b838152610180810161395b6020830185613883565b6125fc60a08301846138cd565b81516001600160401b031681526101c08101602083015161399460208401826001600160401b03169052565b5060408301516139af60408401826001600160401b03169052565b5060608301516139ca60608401826001600160401b03169052565b5060808301516139e2608084018263ffffffff169052565b5060a08301516139fd60a08401826001600160601b03169052565b5060c0830151613a1260c084018260ff169052565b5060e0830151613a2d60e08401826001600160401b03169052565b50610100830151613a42610100840182612fa6565b506101208301516001600160401b0381166101a084015261343f565b6101608101613a6d8285613883565b610f1760808301846138cd565b5f8151808452602084019350602083015f5b82811015613ade57815180516001600160a01b031687526020808201516001600160601b0316818901526040918201516001600160401b03169188019190915260609096019590910190600101613a8c565b5093949350505050565b82518152602083015160208201526040830151604082015260608301516060820152608083015160808201525f60a0840151613b2f60a08401826001600160a01b03169052565b5060c0840151613b4a60c08401826001600160401b03169052565b5060e0840151613b6260e084018263ffffffff169052565b50610100840151613b7f6101008401826001600160401b03169052565b50610120840151613b9c6101208401826001600160401b03169052565b50610140840151613bb461014084018261ffff169052565b50610160840151613bca61016084018215159052565b506101808401516101808301526101a0840151613bf36101a08401826001600160a01b03169052565b506101e06101c0830152610f146101e0830184613a7a565b5f5f60408385031215613c1c575f5ffd5b8235613c27816131f4565b946020939093013593505050565b5f60208284031215613c45575f5ffd5b8135610f17816132a9565b6020808252602e908201527f496e697469616c697a61626c653a20636f6e747261637420697320616c72656160408201526d191e481a5b9a5d1a585b1a5e995960921b606082015260800190565b80516001600160401b031682526020810151613cc560208401826001600160401b03169052565b506040810151613ce060408401826001600160401b03169052565b506060810151613cfb60608401826001600160401b03169052565b506080810151613d13608084018263ffffffff169052565b5060a0810151613d2e60a08401826001600160601b03169052565b5060c0810151613d4360c084018260ff169052565b5060e0810151613d5e60e08401826001600160401b03169052565b50610100810151613d73610100840182612fa6565b5061012001516001600160401b03166101a09190910152565b81835281816020850137505f828201602090810191909152601f909101601f19169091010190565b5f8383855260208501945060208460051b820101835f5b86811015613e3c57838303601f19018852813536879003601e19018112613df0575f5ffd5b86016020810190356001600160401b03811115613e0b575f5ffd5b803603821315613e19575f5ffd5b613e24858284613d8c565b60209a8b019a90955093909301925050600101613dcb565b50909695505050505050565b878152613e586020820188613c9e565b6001600160a01b0386166101e082015261024061020082018190525f90613e829083018688613db4565b828103610220840152613e96818587613db4565b9a9950505050505050505050565b5f6001600160401b03821115613ebc57613ebc6134f9565b5060051b60200190565b8051613ed181613295565b919050565b8051613ed1816131f4565b8051613ed18161362e565b805161ffff81168114613ed1575f5ffd5b8051613ed1816132a9565b5f6101c08284031215613f19575f5ffd5b613f2161350d565b82518152602080840151908201526040808401519082015260608084015190820152608080840151908201529050613f5b60a08301613ec6565b60a0820152613f6c60c08301613ed6565b60c0820152613f7d60e08301613ee1565b60e0820152613f8f6101008301613ed6565b610100820152613fa26101208301613ed6565b610120820152613fb56101408301613eec565b610140820152613fc86101608301613efd565b6101608201526101808281015190820152613fe66101a08301613ec6565b6101a082015292915050565b80516001600160601b0381168114613ed1575f5ffd5b805160ff81168114613ed1575f5ffd5b5f60a08284031215614028575f5ffd5b60405160a081016001600160401b038111828210171561404a5761404a6134f9565b60405290508061405983614008565b815261406760208401614008565b6020820152604083015161407a8161362e565b6040820152606083015161408d816131f4565b606082015260808301516140a08161362e565b6080919091015292915050565b5f61030082840312156140be575f5ffd5b6140c6613536565b8251815260208084015190820152604080840151908201526060808401519082015290506140f660808301613ec6565b608082015261410760a08301613ed6565b60a082015261411860c08301613ee1565b60c082015261412960e08301613ed6565b60e082015261413b6101008301613ed6565b61010082015261414e6101208301613eec565b6101208201526141616101408301613efd565b610140820152610160828101519082015261417f6101808301613ec6565b6101808201526141926101a08301613ff2565b6101a08201526141a56101c08301613ed6565b6101c08201526141b86101e08301613ed6565b6101e08201526141cb6102008301613ee1565b6102008201526141de6102208301613ee1565b6102208201526141f16102408301614008565b610240820152614205836102608401614018565b61026082015292915050565b5f82601f830112614220575f5ffd5b815161423361422e82613ea4565b613559565b8082825260208201915060206103008402860101925085831115614255575f5ffd5b602085015b8381101561427d5761426c87826140ad565b83526020909201916103000161425a565b5095945050505050565b5f5f60408385031215614298575f5ffd5b82516001600160401b038111156142ad575f5ffd5b8301601f810185136142bd575f5ffd5b80516142cb61422e82613ea4565b8082825260208201915060206101c084028501019250878311156142ed575f5ffd5b6020840193505b8284101561431a576143068885613f08565b82526020820191506101c0840193506142f4565b8095505050505060208301516001600160401b03811115614339575f5ffd5b61434585828601614211565b9150509250929050565b634e487b7160e01b5f52603260045260245ffd5b5f60e08201905082546001600160401b03811683526001600160401b038160401c16602084015260ff8160801c16151560408401526143ad6060840160ff8360881c1660ff169052565b609081901c61ffff16608084015260a081811c63ffffffff169084015260c081811c9084015261343f565b8681526143e86020820187613c9e565b6001600160a01b0385166101e08201526001600160401b03841661020082015261024061022082018190525f906144229083018486613d8c565b98975050505050505050565b6020808252602c908201527f46756e6374696f6e206d7573742062652063616c6c6564207468726f7567682060408201526b19195b1959d85d1958d85b1b60a21b606082015260800190565b6020808252602c908201527f46756e6374696f6e206d7573742062652063616c6c6564207468726f7567682060408201526b6163746976652070726f787960a01b606082015260800190565b5f61026082018b83526144dc602084018c613c9e565b6001600160a01b038a166101e08401526102606102008401528790528761028083015f5b89811015614530578235614513816131f4565b6001600160401b0316825260209283019290910190600101614500565b5083810361022085015261454581888a613db4565b91505082810361024084015261455c818587613d8c565b9c9b505050505050505050505050565b87815261457c6020820188613c9e565b6001600160a01b0386166101e082015261024061020082018190525f906145a69083018688613d8c565b828103610220840152613e96818587613d8c565b5f5f6104c083850312156145cc575f5ffd5b6145d68484613f08565b91506145e6846101c085016140ad565b90509250929050565b84815261022081016146046020830186613c9e565b6001600160a01b03939093166101e08201526001600160401b03919091166102009091015292915050565b5f6020828403121561463f575f5ffd5b5051919050565b5f6001600160401b0383168061466a57634e487b7160e01b5f52601260045260245ffd5b806001600160401b0384160691505092915050565b634e487b7160e01b5f52601160045260245ffd5b808201808211156113fa576113fa61467f565b5f602082840312156146b6575f5ffd5b8151610f17816132a9565b818103818111156113fa576113fa61467f565b6020808252602b908201527f496e697469616c697a61626c653a20636f6e7472616374206973206e6f74206960408201526a6e697469616c697a696e6760a81b606082015260800190565b5f6020828403121561472f575f5ffd5b8151610f1781613295565b5f82518060208501845e5f920191825250919050565b602081525f82518060208401528060208501604085015e5f604082850101526040601f19601f8301168401019150509291505056fe360894a13ba1a3210667c828492db98dca3e2076cc3735a920a3ca505d382bbcdf66aee38ea9fe523cfd238705d455a354305a646748dbb931898b51cee4727b416464726573733a206c6f772d6c6576656c2064656c65676174652063616c6c206661696c6564a26469706673582212208013552f46babfed621d767f1177b67c551565a0c0f9ffeb51d3e47c5692e9e464736f6c634300081b0033","linkReferences":{"contracts/L1/libs/LibProposing.sol":{"LibProposing":[{"start":3007,"length":20},{"start":6325,"length":20},{"start":7797,"length":20}]},"contracts/L1/libs/LibProving.sol":{"LibProving":[{"start":3447,"length":20},{"start":4603,"length":20}]},"contracts/L1/libs/LibVerifying.sol":{"LibVerifying":[{"start":6850,"length":20}]}}},"methodIdentifiers":{"acceptOwnership()":"79ba5097","addressManager()":"3ab76e9f","bondBalanceOf(address)":"a9c2c835","depositBond(uint256)":"4dcb05f9","getBlock(uint64)":"5fa15e79","getBlockV2(uint64)":"3f0c544a","getConfig()":"c3f909d4","getLastSyncedBlock()":"9413caa9","getLastVerifiedBlock()":"26af7986","getStateVariables()":"dde89cf5","getTransition(uint64,bytes32)":"fd257e29","getTransition(uint64,uint32)":"563479a5","getVerifiedBlockProver(uint64)":"6074b8c1","impl()":"8abf6077","inNonReentrant()":"3075db56","init(address,address,bytes32,bool)":"29d1b62f","init2()":"069489a2","lastUnpausedAt()":"e07baba6","owner()":"8da5cb5b","pause()":"8456cb59","pauseProving(bool)":"ff00c391","paused()":"5c975abb","pendingOwner()":"e30c3978","proposeBlock(bytes,bytes)":"ef16e845","proposeBlockV2(bytes,bytes)":"648885fb","proposeBlocksV2(bytes[],bytes[])":"0c8f4a10","proveBlock(uint64,bytes)":"10d008bd","proveBlocks(uint64[],bytes[],bytes)":"440b6e18","proxiableUUID()":"52d1902d","renounceOwnership()":"715018a6","resolve(bytes32,bool)":"a86f9d9e","resolve(uint64,bytes32,bool)":"3eb6b8cf","state()":"c19d93fb","transferOwnership(address)":"f2fde38b","unpause()":"3f4ba83a","upgradeTo(address)":"3659cfe6","upgradeToAndCall(address,bytes)":"4f1ef286","verifyBlocks(uint64)":"8778209d","withdrawBond(uint256)":"c3daab96"},"storageLayout":{"storage":[{"astId":31568,"contract":"contracts/L1/TaikoL1.sol:TaikoL1","label":"_initialized","offset":0,"slot":"0","type":"t_uint8"},{"astId":31571,"contract":"contracts/L1/TaikoL1.sol:TaikoL1","label":"_initializing","offset":1,"slot":"0","type":"t_bool"},{"astId":36402,"contract":"contracts/L1/TaikoL1.sol:TaikoL1","label":"__gap","offset":0,"slot":"1","type":"t_array(t_uint256)50_storage"},{"astId":31313,"contract":"contracts/L1/TaikoL1.sol:TaikoL1","label":"_owner","offset":0,"slot":"51","type":"t_address"},{"astId":31433,"contract":"contracts/L1/TaikoL1.sol:TaikoL1","label":"__gap","offset":0,"slot":"52","type":"t_array(t_uint256)49_storage"},{"astId":31206,"contract":"contracts/L1/TaikoL1.sol:TaikoL1","label":"_pendingOwner","offset":0,"slot":"101","type":"t_address"},{"astId":31300,"contract":"contracts/L1/TaikoL1.sol:TaikoL1","label":"__gap","offset":0,"slot":"102","type":"t_array(t_uint256)49_storage"},{"astId":16225,"contract":"contracts/L1/TaikoL1.sol:TaikoL1","label":"addressManager","offset":0,"slot":"151","type":"t_address"},{"astId":16229,"contract":"contracts/L1/TaikoL1.sol:TaikoL1","label":"__gap","offset":0,"slot":"152","type":"t_array(t_uint256)25_storage"},{"astId":16551,"contract":"contracts/L1/TaikoL1.sol:TaikoL1","label":"__reentry","offset":0,"slot":"177","type":"t_uint8"},{"astId":16553,"contract":"contracts/L1/TaikoL1.sol:TaikoL1","label":"__paused","offset":1,"slot":"177","type":"t_uint8"},{"astId":16555,"contract":"contracts/L1/TaikoL1.sol:TaikoL1","label":"lastUnpausedAt","offset":2,"slot":"177","type":"t_uint64"},{"astId":16559,"contract":"contracts/L1/TaikoL1.sol:TaikoL1","label":"__gap","offset":0,"slot":"178","type":"t_array(t_uint256)23_storage"},{"astId":591,"contract":"contracts/L1/TaikoL1.sol:TaikoL1","label":"_prevState","offset":0,"slot":"201","type":"t_array(t_uint256)50_storage"},{"astId":595,"contract":"contracts/L1/TaikoL1.sol:TaikoL1","label":"state","offset":0,"slot":"251","type":"t_struct(State)395_storage"},{"astId":599,"contract":"contracts/L1/TaikoL1.sol:TaikoL1","label":"__gap","offset":0,"slot":"301","type":"t_array(t_uint256)50_storage"}],"types":{"t_address":{"encoding":"inplace","label":"address","numberOfBytes":"20"},"t_array(t_uint256)23_storage":{"encoding":"inplace","label":"uint256[23]","numberOfBytes":"736","base":"t_uint256"},"t_array(t_uint256)25_storage":{"encoding":"inplace","label":"uint256[25]","numberOfBytes":"800","base":"t_uint256"},"t_array(t_uint256)43_storage":{"encoding":"inplace","label":"uint256[43]","numberOfBytes":"1376","base":"t_uint256"},"t_array(t_uint256)49_storage":{"encoding":"inplace","label":"uint256[49]","numberOfBytes":"1568","base":"t_uint256"},"t_array(t_uint256)50_storage":{"encoding":"inplace","label":"uint256[50]","numberOfBytes":"1600","base":"t_uint256"},"t_bool":{"encoding":"inplace","label":"bool","numberOfBytes":"1"},"t_bytes32":{"encoding":"inplace","label":"bytes32","numberOfBytes":"32"},"t_mapping(t_address,t_uint256)":{"encoding":"mapping","key":"t_address","label":"mapping(address => uint256)","numberOfBytes":"32","value":"t_uint256"},"t_mapping(t_bytes32,t_uint24)":{"encoding":"mapping","key":"t_bytes32","label":"mapping(bytes32 => uint24)","numberOfBytes":"32","value":"t_uint24"},"t_mapping(t_uint32,t_struct(TransitionState)288_storage)":{"encoding":"mapping","key":"t_uint32","label":"mapping(uint32 => struct TaikoData.TransitionState)","numberOfBytes":"32","value":"t_struct(TransitionState)288_storage"},"t_mapping(t_uint64,t_mapping(t_bytes32,t_uint24))":{"encoding":"mapping","key":"t_uint64","label":"mapping(uint64 => mapping(bytes32 => uint24))","numberOfBytes":"32","value":"t_mapping(t_bytes32,t_uint24)"},"t_mapping(t_uint64,t_mapping(t_uint32,t_struct(TransitionState)288_storage))":{"encoding":"mapping","key":"t_uint64","label":"mapping(uint64 => mapping(uint32 => struct TaikoData.TransitionState))","numberOfBytes":"32","value":"t_mapping(t_uint32,t_struct(TransitionState)288_storage)"},"t_mapping(t_uint64,t_struct(BlockV2)326_storage)":{"encoding":"mapping","key":"t_uint64","label":"mapping(uint64 => struct TaikoData.BlockV2)","numberOfBytes":"32","value":"t_struct(BlockV2)326_storage"},"t_struct(BlockV2)326_storage":{"encoding":"inplace","label":"struct TaikoData.BlockV2","numberOfBytes":"96","members":[{"astId":309,"contract":"contracts/L1/TaikoL1.sol:TaikoL1","label":"metaHash","offset":0,"slot":"0","type":"t_bytes32"},{"astId":311,"contract":"contracts/L1/TaikoL1.sol:TaikoL1","label":"assignedProver","offset":0,"slot":"1","type":"t_address"},{"astId":313,"contract":"contracts/L1/TaikoL1.sol:TaikoL1","label":"livenessBond","offset":20,"slot":"1","type":"t_uint96"},{"astId":315,"contract":"contracts/L1/TaikoL1.sol:TaikoL1","label":"blockId","offset":0,"slot":"2","type":"t_uint64"},{"astId":317,"contract":"contracts/L1/TaikoL1.sol:TaikoL1","label":"proposedAt","offset":8,"slot":"2","type":"t_uint64"},{"astId":319,"contract":"contracts/L1/TaikoL1.sol:TaikoL1","label":"proposedIn","offset":16,"slot":"2","type":"t_uint64"},{"astId":321,"contract":"contracts/L1/TaikoL1.sol:TaikoL1","label":"nextTransitionId","offset":24,"slot":"2","type":"t_uint24"},{"astId":323,"contract":"contracts/L1/TaikoL1.sol:TaikoL1","label":"livenessBondReturned","offset":27,"slot":"2","type":"t_bool"},{"astId":325,"contract":"contracts/L1/TaikoL1.sol:TaikoL1","label":"verifiedTransitionId","offset":28,"slot":"2","type":"t_uint24"}]},"t_struct(SlotA)344_storage":{"encoding":"inplace","label":"struct TaikoData.SlotA","numberOfBytes":"32","members":[{"astId":337,"contract":"contracts/L1/TaikoL1.sol:TaikoL1","label":"genesisHeight","offset":0,"slot":"0","type":"t_uint64"},{"astId":339,"contract":"contracts/L1/TaikoL1.sol:TaikoL1","label":"genesisTimestamp","offset":8,"slot":"0","type":"t_uint64"},{"astId":341,"contract":"contracts/L1/TaikoL1.sol:TaikoL1","label":"lastSyncedBlockId","offset":16,"slot":"0","type":"t_uint64"},{"astId":343,"contract":"contracts/L1/TaikoL1.sol:TaikoL1","label":"lastSynecdAt","offset":24,"slot":"0","type":"t_uint64"}]},"t_struct(SlotB)359_storage":{"encoding":"inplace","label":"struct TaikoData.SlotB","numberOfBytes":"32","members":[{"astId":346,"contract":"contracts/L1/TaikoL1.sol:TaikoL1","label":"numBlocks","offset":0,"slot":"0","type":"t_uint64"},{"astId":348,"contract":"contracts/L1/TaikoL1.sol:TaikoL1","label":"lastVerifiedBlockId","offset":8,"slot":"0","type":"t_uint64"},{"astId":350,"contract":"contracts/L1/TaikoL1.sol:TaikoL1","label":"provingPaused","offset":16,"slot":"0","type":"t_bool"},{"astId":352,"contract":"contracts/L1/TaikoL1.sol:TaikoL1","label":"__reservedB1","offset":17,"slot":"0","type":"t_uint8"},{"astId":354,"contract":"contracts/L1/TaikoL1.sol:TaikoL1","label":"__reservedB2","offset":18,"slot":"0","type":"t_uint16"},{"astId":356,"contract":"contracts/L1/TaikoL1.sol:TaikoL1","label":"__reservedB3","offset":20,"slot":"0","type":"t_uint32"},{"astId":358,"contract":"contracts/L1/TaikoL1.sol:TaikoL1","label":"lastUnpausedAt","offset":24,"slot":"0","type":"t_uint64"}]},"t_struct(State)395_storage":{"encoding":"inplace","label":"struct TaikoData.State","numberOfBytes":"1600","members":[{"astId":365,"contract":"contracts/L1/TaikoL1.sol:TaikoL1","label":"blocks","offset":0,"slot":"0","type":"t_mapping(t_uint64,t_struct(BlockV2)326_storage)"},{"astId":371,"contract":"contracts/L1/TaikoL1.sol:TaikoL1","label":"transitionIds","offset":0,"slot":"1","type":"t_mapping(t_uint64,t_mapping(t_bytes32,t_uint24))"},{"astId":378,"contract":"contracts/L1/TaikoL1.sol:TaikoL1","label":"transitions","offset":0,"slot":"2","type":"t_mapping(t_uint64,t_mapping(t_uint32,t_struct(TransitionState)288_storage))"},{"astId":380,"contract":"contracts/L1/TaikoL1.sol:TaikoL1","label":"__reserve1","offset":0,"slot":"3","type":"t_bytes32"},{"astId":383,"contract":"contracts/L1/TaikoL1.sol:TaikoL1","label":"slotA","offset":0,"slot":"4","type":"t_struct(SlotA)344_storage"},{"astId":386,"contract":"contracts/L1/TaikoL1.sol:TaikoL1","label":"slotB","offset":0,"slot":"5","type":"t_struct(SlotB)359_storage"},{"astId":390,"contract":"contracts/L1/TaikoL1.sol:TaikoL1","label":"bondBalance","offset":0,"slot":"6","type":"t_mapping(t_address,t_uint256)"},{"astId":394,"contract":"contracts/L1/TaikoL1.sol:TaikoL1","label":"__gap","offset":0,"slot":"7","type":"t_array(t_uint256)43_storage"}]},"t_struct(TransitionState)288_storage":{"encoding":"inplace","label":"struct TaikoData.TransitionState","numberOfBytes":"192","members":[{"astId":269,"contract":"contracts/L1/TaikoL1.sol:TaikoL1","label":"key","offset":0,"slot":"0","type":"t_bytes32"},{"astId":271,"contract":"contracts/L1/TaikoL1.sol:TaikoL1","label":"blockHash","offset":0,"slot":"1","type":"t_bytes32"},{"astId":273,"contract":"contracts/L1/TaikoL1.sol:TaikoL1","label":"stateRoot","offset":0,"slot":"2","type":"t_bytes32"},{"astId":275,"contract":"contracts/L1/TaikoL1.sol:TaikoL1","label":"prover","offset":0,"slot":"3","type":"t_address"},{"astId":277,"contract":"contracts/L1/TaikoL1.sol:TaikoL1","label":"validityBond","offset":20,"slot":"3","type":"t_uint96"},{"astId":279,"contract":"contracts/L1/TaikoL1.sol:TaikoL1","label":"contester","offset":0,"slot":"4","type":"t_address"},{"astId":281,"contract":"contracts/L1/TaikoL1.sol:TaikoL1","label":"contestBond","offset":20,"slot":"4","type":"t_uint96"},{"astId":283,"contract":"contracts/L1/TaikoL1.sol:TaikoL1","label":"timestamp","offset":0,"slot":"5","type":"t_uint64"},{"astId":285,"contract":"contracts/L1/TaikoL1.sol:TaikoL1","label":"tier","offset":8,"slot":"5","type":"t_uint16"},{"astId":287,"contract":"contracts/L1/TaikoL1.sol:TaikoL1","label":"__reserved1","offset":10,"slot":"5","type":"t_uint8"}]},"t_uint16":{"encoding":"inplace","label":"uint16","numberOfBytes":"2"},"t_uint24":{"encoding":"inplace","label":"uint24","numberOfBytes":"3"},"t_uint256":{"encoding":"inplace","label":"uint256","numberOfBytes":"32"},"t_uint32":{"encoding":"inplace","label":"uint32","numberOfBytes":"4"},"t_uint64":{"encoding":"inplace","label":"uint64","numberOfBytes":"8"},"t_uint8":{"encoding":"inplace","label":"uint8","numberOfBytes":"1"},"t_uint96":{"encoding":"inplace","label":"uint96","numberOfBytes":"12"}}},"id":3}