{"abi":[{"type":"function","name":"EPOCH_DURATION","inputs":[],"outputs":[{"name":"","type":"uint256","internalType":"uint256"}],"stateMutability":"view"},{"type":"function","name":"MIN_DEPOSIT","inputs":[],"outputs":[{"name":"","type":"uint256","internalType":"uint256"}],"stateMutability":"view"},{"type":"function","name":"WITHDRAWAL_LOCK_EPOCH","inputs":[],"outputs":[{"name":"","type":"uint256","internalType":"uint256"}],"stateMutability":"view"},{"type":"function","name":"acceptOwnership","inputs":[],"outputs":[],"stateMutability":"nonpayable"},{"type":"function","name":"addressManager","inputs":[],"outputs":[{"name":"","type":"address","internalType":"address"}],"stateMutability":"view"},{"type":"function","name":"getCurrentEpoch","inputs":[],"outputs":[{"name":"","type":"uint256","internalType":"uint256"}],"stateMutability":"view"},{"type":"function","name":"getEpochReward","inputs":[{"name":"epoch","type":"uint256","internalType":"uint256"}],"outputs":[{"name":"","type":"uint256","internalType":"uint256"}],"stateMutability":"view"},{"type":"function","name":"impl","inputs":[],"outputs":[{"name":"","type":"address","internalType":"address"}],"stateMutability":"view"},{"type":"function","name":"inNonReentrant","inputs":[],"outputs":[{"name":"","type":"bool","internalType":"bool"}],"stateMutability":"view"},{"type":"function","name":"init","inputs":[{"name":"_owner","type":"address","internalType":"address"},{"name":"_rollupAddressManager","type":"address","internalType":"address"}],"outputs":[],"stateMutability":"nonpayable"},{"type":"function","name":"lastUnpausedAt","inputs":[],"outputs":[{"name":"","type":"uint64","internalType":"uint64"}],"stateMutability":"view"},{"type":"function","name":"owner","inputs":[],"outputs":[{"name":"","type":"address","internalType":"address"}],"stateMutability":"view"},{"type":"function","name":"pause","inputs":[],"outputs":[],"stateMutability":"nonpayable"},{"type":"function","name":"pauseUserReward","inputs":[{"name":"_user","type":"address","internalType":"address"},{"name":"_epochAmount","type":"uint256","internalType":"uint256"}],"outputs":[],"stateMutability":"nonpayable"},{"type":"function","name":"paused","inputs":[],"outputs":[{"name":"","type":"bool","internalType":"bool"}],"stateMutability":"view"},{"type":"function","name":"pendingOwner","inputs":[],"outputs":[{"name":"","type":"address","internalType":"address"}],"stateMutability":"view"},{"type":"function","name":"proxiableUUID","inputs":[],"outputs":[{"name":"","type":"bytes32","internalType":"bytes32"}],"stateMutability":"view"},{"type":"function","name":"renounceOwnership","inputs":[],"outputs":[],"stateMutability":"nonpayable"},{"type":"function","name":"resolve","inputs":[{"name":"_chainId","type":"uint64","internalType":"uint64"},{"name":"_name","type":"bytes32","internalType":"bytes32"},{"name":"_allowZeroAddress","type":"bool","internalType":"bool"}],"outputs":[{"name":"","type":"address","internalType":"address"}],"stateMutability":"view"},{"type":"function","name":"resolve","inputs":[{"name":"_name","type":"bytes32","internalType":"bytes32"},{"name":"_allowZeroAddress","type":"bool","internalType":"bool"}],"outputs":[{"name":"","type":"address","internalType":"address"}],"stateMutability":"view"},{"type":"function","name":"stake","inputs":[{"name":"_user","type":"address","internalType":"address"},{"name":"_amount","type":"uint256","internalType":"uint256"}],"outputs":[],"stateMutability":"nonpayable"},{"type":"function","name":"stakingCalculateRewardDebt","inputs":[{"name":"user","type":"address","internalType":"address"}],"outputs":[{"name":"","type":"uint256","internalType":"uint256"}],"stateMutability":"view"},{"type":"function","name":"stakingClaimReward","inputs":[{"name":"_user","type":"address","internalType":"address"}],"outputs":[{"name":"","type":"uint256","internalType":"uint256"}],"stateMutability":"nonpayable"},{"type":"function","name":"stakingDepositReward","inputs":[{"name":"_amount","type":"uint256","internalType":"uint256"}],"outputs":[],"stateMutability":"nonpayable"},{"type":"function","name":"stakingDepositReward","inputs":[],"outputs":[],"stateMutability":"nonpayable"},{"type":"function","name":"stakingRequestWithdrawal","inputs":[{"name":"_user","type":"address","internalType":"address"},{"name":"cancel","type":"bool","internalType":"bool"}],"outputs":[],"stateMutability":"nonpayable"},{"type":"function","name":"stakingSlashing","inputs":[{"name":"_user","type":"address","internalType":"address"},{"name":"_rate","type":"uint256","internalType":"uint256"}],"outputs":[],"stateMutability":"nonpayable"},{"type":"function","name":"stakingState","inputs":[],"outputs":[{"name":"totalBalance","type":"uint256","internalType":"uint256"},{"name":"totalReward","type":"uint256","internalType":"uint256"},{"name":"lastDepositRewardTime","type":"uint64","internalType":"uint64"},{"name":"rewardBeginEpoch","type":"uint64","internalType":"uint64"},{"name":"__reserved2","type":"uint64","internalType":"uint64"},{"name":"__reserved3","type":"uint64","internalType":"uint64"}],"stateMutability":"view"},{"type":"function","name":"stakingUserState","inputs":[{"name":"_user","type":"address","internalType":"address"}],"outputs":[{"name":"","type":"uint256","internalType":"uint256"},{"name":"","type":"uint256","internalType":"uint256"},{"name":"","type":"uint256","internalType":"uint256"}],"stateMutability":"view"},{"type":"function","name":"stakingWithdrawal","inputs":[{"name":"_user","type":"address","internalType":"address"}],"outputs":[],"stateMutability":"nonpayable"},{"type":"function","name":"transferOwnership","inputs":[{"name":"newOwner","type":"address","internalType":"address"}],"outputs":[],"stateMutability":"nonpayable"},{"type":"function","name":"unpause","inputs":[],"outputs":[],"stateMutability":"nonpayable"},{"type":"function","name":"upgradeTo","inputs":[{"name":"newImplementation","type":"address","internalType":"address"}],"outputs":[],"stateMutability":"nonpayable"},{"type":"function","name":"upgradeToAndCall","inputs":[{"name":"newImplementation","type":"address","internalType":"address"},{"name":"data","type":"bytes","internalType":"bytes"}],"outputs":[],"stateMutability":"payable"},{"type":"event","name":"AdminChanged","inputs":[{"name":"previousAdmin","type":"address","indexed":false,"internalType":"address"},{"name":"newAdmin","type":"address","indexed":false,"internalType":"address"}],"anonymous":false},{"type":"event","name":"BeaconUpgraded","inputs":[{"name":"beacon","type":"address","indexed":true,"internalType":"address"}],"anonymous":false},{"type":"event","name":"ClaimReward","inputs":[{"name":"user","type":"address","indexed":true,"internalType":"address"},{"name":"amount","type":"uint256","indexed":false,"internalType":"uint256"},{"name":"lastClaimedEpoch","type":"uint256","indexed":false,"internalType":"uint256"}],"anonymous":false},{"type":"event","name":"DepositReward","inputs":[{"name":"user","type":"address","indexed":true,"internalType":"address"},{"name":"amount","type":"uint256","indexed":false,"internalType":"uint256"}],"anonymous":false},{"type":"event","name":"Initialized","inputs":[{"name":"version","type":"uint8","indexed":false,"internalType":"uint8"}],"anonymous":false},{"type":"event","name":"OwnershipTransferStarted","inputs":[{"name":"previousOwner","type":"address","indexed":true,"internalType":"address"},{"name":"newOwner","type":"address","indexed":true,"internalType":"address"}],"anonymous":false},{"type":"event","name":"OwnershipTransferred","inputs":[{"name":"previousOwner","type":"address","indexed":true,"internalType":"address"},{"name":"newOwner","type":"address","indexed":true,"internalType":"address"}],"anonymous":false},{"type":"event","name":"Paused","inputs":[{"name":"account","type":"address","indexed":false,"internalType":"address"}],"anonymous":false},{"type":"event","name":"Slash","inputs":[{"name":"user","type":"address","indexed":true,"internalType":"address"},{"name":"amount","type":"uint256","indexed":false,"internalType":"uint256"}],"anonymous":false},{"type":"event","name":"Staking","inputs":[{"name":"user","type":"address","indexed":true,"internalType":"address"},{"name":"amount","type":"uint256","indexed":false,"internalType":"uint256"}],"anonymous":false},{"type":"event","name":"Unpaused","inputs":[{"name":"account","type":"address","indexed":false,"internalType":"address"}],"anonymous":false},{"type":"event","name":"Upgraded","inputs":[{"name":"implementation","type":"address","indexed":true,"internalType":"address"}],"anonymous":false},{"type":"event","name":"Withdrawal","inputs":[{"name":"user","type":"address","indexed":true,"internalType":"address"},{"name":"amount","type":"uint256","indexed":false,"internalType":"uint256"}],"anonymous":false},{"type":"error","name":"FUNC_NOT_IMPLEMENTED","inputs":[]},{"type":"error","name":"INSUFFICIENT_BALANCE","inputs":[]},{"type":"error","name":"INSUFFICIENT_DEPOSIT","inputs":[]},{"type":"error","name":"INVALID_PAUSE_STATUS","inputs":[]},{"type":"error","name":"REENTRANT_CALL","inputs":[]},{"type":"error","name":"RESOLVER_DENIED","inputs":[]},{"type":"error","name":"RESOLVER_INVALID_MANAGER","inputs":[]},{"type":"error","name":"RESOLVER_UNEXPECTED_CHAINID","inputs":[]},{"type":"error","name":"RESOLVER_ZERO_ADDR","inputs":[{"name":"chainId","type":"uint64","internalType":"uint64"},{"name":"name","type":"bytes32","internalType":"bytes32"}]},{"type":"error","name":"REWARD_ALREADY_CLAIMED","inputs":[]},{"type":"error","name":"REWARD_NOT_CLAIM","inputs":[]},{"type":"error","name":"WITHDRAWAL_LOCKED","inputs":[]},{"type":"error","name":"ZERO_ADDRESS","inputs":[]},{"type":"error","name":"ZERO_VALUE","inputs":[]}],"bytecode":{"object":"0x60a060405230608052348015610013575f5ffd5b5061001c610029565b610024610029565b6100e5565b5f54610100900460ff16156100945760405162461bcd60e51b815260206004820152602760248201527f496e697469616c697a61626c653a20636f6e747261637420697320696e697469604482015266616c697a696e6760c81b606482015260840160405180910390fd5b5f5460ff908116146100e3575f805460ff191660ff9081179091556040519081527f7f26b83ff96e1f2b6a682f133852f6798a09c465da95921460cefb38474024989060200160405180910390a15b565b6080516129246101195f395f81816106c001528181610709015281816107ba015281816107fa015261087501526129245ff3fe6080604052600436106101f1575f3560e01c80638c7638c411610108578063cad9e2ba1161009d578063e1e158a51161006d578063e1e158a514610607578063e30c397814610624578063f09a401614610641578063f2fde38b14610660578063f575dd551461067f575f5ffd5b8063cad9e2ba146104b5578063d418634a1461051b578063e07baba614610546578063e082f1d414610583575f5ffd5b8063adc9772e116100d8578063adc9772e14610444578063b1d4a73114610463578063b97dd9e214610482578063c067305b14610496575f5ffd5b80638c7638c4146103d35780638da5cb5b146103f2578063a70b9f0c1461040f578063a86f9d9e14610425575f5ffd5b806354686bfa11610189578063715018a611610159578063715018a61461036457806379ba5097146103785780638456cb591461038c57806389d5b7a3146103a05780638abf6077146103bf575f5ffd5b806354686bfa146102f25780635c975abb146103115780635d3b554d1461033157806365ad575014610350575f5ffd5b80633eb6b8cf116101c45780633eb6b8cf146102985780633f4ba83a146102b75780634f1ef286146102cb57806352d1902d146102de575f5ffd5b80631b0e9ec7146101f55780633075db561461021c5780633659cfe6146102405780633ab76e9f14610261575b5f5ffd5b348015610200575f5ffd5b50610209600281565b6040519081526020015b60405180910390f35b348015610227575f5ffd5b5061023061069e565b6040519015158152602001610213565b34801561024b575f5ffd5b5061025f61025a366004612494565b6106b6565b005b34801561026c575f5ffd5b50609754610280906001600160a01b031681565b6040516001600160a01b039091168152602001610213565b3480156102a3575f5ffd5b506102806102b23660046124bc565b610786565b3480156102c2575f5ffd5b5061025f61079c565b61025f6102d936600461251a565b6107b0565b3480156102e9575f5ffd5b50610209610869565b3480156102fd575f5ffd5b5061025f61030c3660046125dd565b61091a565b34801561031c575f5ffd5b5061023060b154610100900460ff1660021490565b34801561033c575f5ffd5b5061025f61034b366004612607565b610a67565b34801561035b575f5ffd5b5061025f610c12565b34801561036f575f5ffd5b5061025f610e3a565b348015610383575f5ffd5b5061025f610e4b565b348015610397575f5ffd5b5061025f610ec2565b3480156103ab575f5ffd5b506102096103ba366004612494565b610ed5565b3480156103ca575f5ffd5b506102806110bc565b3480156103de575f5ffd5b5061025f6103ed3660046125dd565b6110ca565b3480156103fd575f5ffd5b506033546001600160a01b0316610280565b34801561041a575f5ffd5b5061020962093a8081565b348015610430575f5ffd5b5061028061043f36600461261e565b611180565b34801561044f575f5ffd5b5061025f61045e3660046125dd565b611195565b34801561046e575f5ffd5b5061020961047d366004612494565b61140d565b34801561048d575f5ffd5b50610209611541565b3480156104a1575f5ffd5b5061025f6104b0366004612494565b61154f565b3480156104c0575f5ffd5b506105006104cf366004612494565b6001600160a01b03165f90815260c9602090815260408083205460ca83528184205460cb9093529220549192909190565b60408051938452602084019290925290820152606001610213565b348015610526575f5ffd5b50610209610535366004612607565b5f90815260cf602052604090205490565b348015610551575f5ffd5b5060b15461056b906201000090046001600160401b031681565b6040516001600160401b039091168152602001610213565b34801561058e575f5ffd5b5060cc5460cd5460ce546105c99291906001600160401b0380821691600160401b8104821691600160801b8204811691600160c01b90041686565b6040805196875260208701959095526001600160401b03938416948601949094529082166060850152811660808401521660a082015260c001610213565b348015610612575f5ffd5b5061020969d3c21bcecceda100000081565b34801561062f575f5ffd5b506065546001600160a01b0316610280565b34801561064c575f5ffd5b5061025f61065b36600461264c565b6117fe565b34801561066b575f5ffd5b5061025f61067a366004612494565b611946565b34801561068a575f5ffd5b5061025f610699366004612678565b6119b7565b5f60026106ad60b15460ff1690565b60ff1614905090565b6001600160a01b037f00000000000000000000000000000000000000000000000000000000000000001630036107075760405162461bcd60e51b81526004016106fe906126a4565b60405180910390fd5b7f00000000000000000000000000000000000000000000000000000000000000006001600160a01b0316610739611ad0565b6001600160a01b03161461075f5760405162461bcd60e51b81526004016106fe906126f0565b61076881611aeb565b604080515f8082526020820190925261078391839190611af3565b50565b5f610792848484611c5d565b90505b9392505050565b6107a4611caf565b6107ae335f611d3f565b565b6001600160a01b037f00000000000000000000000000000000000000000000000000000000000000001630036107f85760405162461bcd60e51b81526004016106fe906126a4565b7f00000000000000000000000000000000000000000000000000000000000000006001600160a01b031661082a611ad0565b6001600160a01b0316146108505760405162461bcd60e51b81526004016106fe906126f0565b61085982611aeb565b61086582826001611af3565b5050565b5f306001600160a01b037f000000000000000000000000000000000000000000000000000000000000000016146109085760405162461bcd60e51b815260206004820152603860248201527f555550535570677261646561626c653a206d757374206e6f742062652063616c60448201527f6c6564207468726f7567682064656c656761746563616c6c000000000000000060648201526084016106fe565b505f5160206128a85f395f51905f5290565b673d35b1b2b73a32b960c11b5f610932826001611180565b90506001600160a01b038116158015906109555750336001600160a01b03821614155b1561097357604051630d85cccf60e11b815260040160405180910390fd5b6001600160a01b0384165f90815260c96020526040812054908190036109995750610a61565b6109a285611d47565b6109bf57604051633de1eaa160e01b815260040160405180910390fd5b5f60646109cc8684612750565b6109d69190612767565b6001600160a01b0387165f90815260c96020526040812080549293508392909190610a02908490612786565b909155505060cc80548291905f90610a1b908490612786565b90915550506040518181526001600160a01b038716907fa69f22d963cb7981f842db8c1aafcc93d915ba2a95dcf26dcc333a9c2a09be269060200160405180910390a250505b50505050565b610a7b60b154610100900460ff1660021490565b15610a995760405163bae6e2a960e01b815260040160405180910390fd5b6002610aa760b15460ff1690565b60ff1603610ac85760405163dfc60d8560e01b815260040160405180910390fd5b610ad26002611db4565b805f03610af257604051638e8af4f960e01b815260040160405180910390fd5b610afa611dca565b6040516323b872dd60e01b8152336004820152306024820152604481018390526001600160a01b0391909116906323b872dd906064016020604051808303815f875af1158015610b4c573d5f5f3e3d5ffd5b505050506040513d601f19601f82011682018060405250810190610b709190612799565b508060c96004015f828254610b8591906127b4565b9091555081905060cf5f610b97611541565b81526020019081526020015f205f828254610bb291906127b4565b909155505060ce805467ffffffffffffffff1916426001600160401b031617905560405181815233907f4f7fd5c9e17300a4800fd572ea53fc291e2ee7470d73346d16b357faee4e72109060200160405180910390a26107836001611db4565b647461696b6f60d81b610c26816001611180565b6001600160a01b0316336001600160a01b031614610c5757604051630d85cccf60e11b815260040160405180910390fd5b610c6b60b154610100900460ff1660021490565b15610c895760405163bae6e2a960e01b815260040160405180910390fd5b6002610c9760b15460ff1690565b60ff1603610cb85760405163dfc60d8560e01b815260040160405180910390fd5b610cc26002611db4565b60ce546001600160401b03165f03610cf15760ce805467ffffffffffffffff1916426001600160401b03161790555b60ce545f90610d09906001600160401b031642612786565b9050805f03610d185750610e30565b5f610d21611e3e565b9050805f03610d31575050610e30565b610d39611dca565b6040516340c10f1960e01b8152306004820152602481018390526001600160a01b0391909116906340c10f19906044015f604051808303815f87803b158015610d80575f5ffd5b505af1158015610d92573d5f5f3e3d5ffd5b505050508060c96004015f828254610daa91906127b4565b9091555081905060cf5f610dbc611541565b81526020019081526020015f205f828254610dd791906127b4565b909155505060ce805467ffffffffffffffff1916426001600160401b031617905560405181815233907f4f7fd5c9e17300a4800fd572ea53fc291e2ee7470d73346d16b357faee4e72109060200160405180910390a250505b6107836001611db4565b610e42611f3f565b6107ae5f611f99565b60655433906001600160a01b03168114610eb95760405162461bcd60e51b815260206004820152602960248201527f4f776e61626c6532537465703a2063616c6c6572206973206e6f7420746865206044820152683732bb9037bbb732b960b91b60648201526084016106fe565b61078381611f99565b610eca611fb2565b6107ae336001611d3f565b5f610eea60b154610100900460ff1660021490565b15610f085760405163bae6e2a960e01b815260040160405180910390fd5b6002610f1660b15460ff1690565b60ff1603610f375760405163dfc60d8560e01b815260040160405180910390fd5b610f416002611db4565b673d35b1b2b73a32b960c11b5f610f59826001611180565b90506001600160a01b03811615801590610f7c5750336001600160a01b03821614155b15610f9a57604051630d85cccf60e11b815260040160405180910390fd5b5f610fa3611541565b90505f610faf8661140d565b9050610fbc600183612786565b6001600160a01b0387165f90815260ca6020526040812091909155819003610fe8575f945050506110ab565b610ff0611dca565b60405163a9059cbb60e01b8152336004820152602481018390526001600160a01b03919091169063a9059cbb906044016020604051808303815f875af115801561103c573d5f5f3e3d5ffd5b505050506040513d601f19601f820116820180604052508101906110609190612799565b50337fe74e5c9d4ac1fc33412485f18c159a0a391efe287ab3fd271123f30e6bacf4e38261108f600186612786565b6040805192835260208301919091520160405180910390a29350505b50506110b76001611db4565b919050565b5f6110c5611ad0565b905090565b673d35b1b2b73a32b960c11b5f6110e2826001611180565b90506001600160a01b038116158015906111055750336001600160a01b03821614155b1561112357604051630d85cccf60e11b815260040160405180910390fd5b5f61112c611541565b905061113785611d47565b61115457604051633de1eaa160e01b815260040160405180910390fd5b61115e84826127b4565b6001600160a01b039095165f90815260ca602052604090209490945550505050565b5f61118c468484611c5d565b90505b92915050565b6111a960b154610100900460ff1660021490565b156111c75760405163bae6e2a960e01b815260040160405180910390fd5b60026111d560b15460ff1690565b60ff16036111f65760405163dfc60d8560e01b815260040160405180910390fd5b6112006002611db4565b673d35b1b2b73a32b960c11b5f611218826001611180565b90506001600160a01b0381161580159061123b5750336001600160a01b03821614155b1561125957604051630d85cccf60e11b815260040160405180910390fd5b6001600160a01b0384165f90815260c9602052604081205461127c9085906127b4565b905069d3c21bcecceda10000008110156112a957604051638e8af4f960e01b815260040160405180910390fd5b6112b285611d47565b6112cf57604051633de1eaa160e01b815260040160405180910390fd5b6112d7611dca565b6040516323b872dd60e01b81526001600160a01b0387811660048301523060248301526044820187905291909116906323b872dd906064016020604051808303815f875af115801561132b573d5f5f3e3d5ffd5b505050506040513d601f19601f8201168201806040525081019061134f9190612799565b506001600160a01b0385165f90815260c96020526040812080548692906113779084906127b4565b909155505060cc80548591905f906113909084906127b4565b90915550600190506113a0611541565b6113aa9190612786565b6001600160a01b0386165f81815260ca6020526040908190209290925590517fb831f69f1cebc12b23cd864ce5bfea2669d01956050a0147d71d418074559c21906113f89087815260200190565b60405180910390a25050506108656001611db4565b6001600160a01b0381165f90815260c96020526040812054810361143257505f919050565b6001600160a01b0382165f90815260ca602052604081205490611453611541565b9050611460600182612786565b821061146f57505f9392505050565b60cc546001600160a01b0385165f90815260c960205260408120549091829161149b90620186a0612750565b6114a59190612767565b905060186114b38585612786565b11156114c7576114c4601884612786565b93505b6114d2600184612786565b841015611538575f60cf816114e88760016127b4565b81526020019081526020015f205490505f81111561152557620186a061150e8383612750565b6115189190612767565b61152290846127b4565b92505b8461152f816127c7565b955050506114c7565b50949350505050565b5f6110c562093a8042612767565b61156360b154610100900460ff1660021490565b156115815760405163bae6e2a960e01b815260040160405180910390fd5b600261158f60b15460ff1690565b60ff16036115b05760405163dfc60d8560e01b815260040160405180910390fd5b6115ba6002611db4565b673d35b1b2b73a32b960c11b5f6115d2826001611180565b90506001600160a01b038116158015906115f55750336001600160a01b03821614155b1561161357604051630d85cccf60e11b815260040160405180910390fd5b6001600160a01b0383165f90815260c960205260408120549081900361164c57604051632858f9ab60e11b815260040160405180910390fd5b61165584611d47565b61167257604051633de1eaa160e01b815260040160405180910390fd5b6001600160a01b0384165f90815260cb602052604090205415806116bf57506001600160a01b0384165f90815260cb60205260409020546116b5906002906127b4565b6116bd611541565b105b156116dd5760405163e46bca9f60e01b815260040160405180910390fd5b6001600160a01b0384165f90815260c96020526040812081905560cc8054839290611709908490612786565b90915550506001600160a01b0384165f90815260ca6020908152604080832083905560cb90915281205561173b611dca565b60405163a9059cbb60e01b81526001600160a01b03868116600483015260248201849052919091169063a9059cbb906044016020604051808303815f875af1158015611789573d5f5f3e3d5ffd5b505050506040513d601f19601f820116820180604052508101906117ad9190612799565b50836001600160a01b03167f7fcf532c15f0a6db0bd6d0e038bea71d30d808c7d98cb3bf7268a95bf5081b65826040516117e991815260200190565b60405180910390a25050506107836001611db4565b5f54610100900460ff161580801561181c57505f54600160ff909116105b806118355750303b15801561183557505f5460ff166001145b6118985760405162461bcd60e51b815260206004820152602e60248201527f496e697469616c697a61626c653a20636f6e747261637420697320616c72656160448201526d191e481a5b9a5d1a585b1a5e995960921b60648201526084016106fe565b5f805460ff1916600117905580156118b9575f805461ff0019166101001790555b6118c38383612023565b6118cb611541565b60ce80546001600160401b0392909216600160401b026fffffffffffffffff0000000000000000199092169190911790558015611941575f805461ff0019169055604051600181527f7f26b83ff96e1f2b6a682f133852f6798a09c465da95921460cefb38474024989060200160405180910390a15b505050565b61194e611f3f565b606580546001600160a01b0383166001600160a01b0319909116811790915561197f6033546001600160a01b031690565b6001600160a01b03167f38d16b8cac22d99fc7c124b9cd0de2d3fa1faef420bfe791d8c362d765e2270060405160405180910390a350565b60026119c560b15460ff1690565b60ff16036119e65760405163dfc60d8560e01b815260040160405180910390fd5b6119f06002611db4565b673d35b1b2b73a32b960c11b5f611a08826001611180565b90506001600160a01b03811615801590611a2b5750336001600160a01b03821614155b15611a4957604051630d85cccf60e11b815260040160405180910390fd5b6001600160a01b0384165f90815260c960205260408120549003611a8057604051632858f9ab60e11b815260040160405180910390fd5b8215611aa3576001600160a01b0384165f90815260cb6020526040812055611ac4565b611aab611541565b6001600160a01b0385165f90815260cb60205260409020555b50506108656001611db4565b5f5160206128a85f395f51905f52546001600160a01b031690565b610783611f3f565b7f4910fdfa16fed3260ed0e7147f7cc6da11a60208b5b9406d12a635614ffd91435460ff1615611b26576119418361205d565b826001600160a01b03166352d1902d6040518163ffffffff1660e01b8152600401602060405180830381865afa925050508015611b80575060408051601f3d908101601f19168201909252611b7d918101906127df565b60015b611be35760405162461bcd60e51b815260206004820152602e60248201527f45524331393637557067726164653a206e657720696d706c656d656e7461746960448201526d6f6e206973206e6f74205555505360901b60648201526084016106fe565b5f5160206128a85f395f51905f528114611c515760405162461bcd60e51b815260206004820152602960248201527f45524331393637557067726164653a20756e737570706f727465642070726f786044820152681a58589b195555525160ba1b60648201526084016106fe565b506119418383836120f8565b5f611c68848461211c565b905081158015611c7f57506001600160a01b038116155b1561079557604051632b0d65db60e01b81526001600160401b0385166004820152602481018490526044016106fe565b611cc360b154610100900460ff1660021490565b611ce05760405163bae6e2a960e01b815260040160405180910390fd5b60b1805461010069ffffffffffffffffff001990911662010000426001600160401b031602171790556040513381527f5db9ee0a495bf2e6ff9c91a7834c1ba4fdd244a5e8aa4e537bd38aeae4b073aa906020015b60405180910390a1565b610865611f3f565b6001600160a01b0381165f90815260c960205260408120548103611d6d57506001919050565b6001600160a01b0382165f90815260ca602052604081205490611d8e611541565b9050611d9b600182612786565b8210611dab575060019392505050565b505f9392505050565b60b1805460ff191660ff92909216919091179055565b604051635437cecf60e11b81526a3a30b4b5b7afba37b5b2b760a91b60048201525f6024820181905290309063a86f9d9e90604401602060405180830381865afa158015611e1a573d5f5f3e3d5ffd5b505050506040513d601f19601f820116820180604052508101906110c591906127f6565b60ce545f908190611e58906001600160401b031642612786565b90505f816301e13380612710611e6c611dca565b6001600160a01b03166318160ddd6040518163ffffffff1660e01b8152600401602060405180830381865afa158015611ea7573d5f5f3e3d5ffd5b505050506040513d601f19601f82011682018060405250810190611ecb91906127df565b611ed7906103b6612750565b611ee19190612767565b611eeb9190612767565b611ef59190612750565b905069152d02c7e14af6800000811115611f16575069152d02c7e14af68000005b611f27662386f26fc1000082612767565b611f3890662386f26fc10000612750565b9250505090565b6033546001600160a01b031633146107ae5760405162461bcd60e51b815260206004820181905260248201527f4f776e61626c653a2063616c6c6572206973206e6f7420746865206f776e657260448201526064016106fe565b606580546001600160a01b0319169055610783816121c6565b611fc660b154610100900460ff1660021490565b15611fe45760405163bae6e2a960e01b815260040160405180910390fd5b60b1805461ff0019166102001790556040513381527f62e78cea01bee320cd4e420270b5ea74000d11b0c9f74754ebdbfc544b05a25890602001611d35565b806001600160a01b03811661204b5760405163538ba4f960e01b815260040160405180910390fd5b61205483612217565b61194182612275565b6001600160a01b0381163b6120ca5760405162461bcd60e51b815260206004820152602d60248201527f455243313936373a206e657720696d706c656d656e746174696f6e206973206e60448201526c1bdd08184818dbdb9d1c9858dd609a1b60648201526084016106fe565b5f5160206128a85f395f51905f5280546001600160a01b0319166001600160a01b0392909216919091179055565b612101836122e5565b5f8251118061210d5750805b1561194157610a618383612324565b6097545f906001600160a01b03168061214857604051638ed88b2560e01b815260040160405180910390fd5b604051630a3dc4f360e21b81526001600160401b0385166004820152602481018490526001600160a01b038216906328f713cc90604401602060405180830381865afa15801561219a573d5f5f3e3d5ffd5b505050506040513d601f19601f820116820180604052508101906121be91906127f6565b949350505050565b603380546001600160a01b038381166001600160a01b0319831681179093556040519116919082907f8be0079c531659141344cd1fd0a4f28419497f9722a3daafe3b4186f6b6457e0905f90a35050565b5f54610100900460ff1661223d5760405162461bcd60e51b81526004016106fe90612811565b612245612349565b6122636001600160a01b0382161561225d5781611f99565b33611f99565b5060b1805461ff001916610100179055565b5f54610100900460ff1661229b5760405162461bcd60e51b81526004016106fe90612811565b6001600160401b034611156122c35760405163a12e8fa960e01b815260040160405180910390fd5b609780546001600160a01b0319166001600160a01b0392909216919091179055565b6122ee8161205d565b6040516001600160a01b038216907fbc7cd75a20ee27fd9adebab32041f755214dbc6bffa90cc0225b39da2e5c2d3b905f90a250565b606061118c83836040518060600160405280602781526020016128c86027913961236f565b5f54610100900460ff166107ae5760405162461bcd60e51b81526004016106fe90612811565b60605f5f856001600160a01b03168560405161238b919061285c565b5f60405180830381855af49150503d805f81146123c3576040519150601f19603f3d011682016040523d82523d5f602084013e6123c8565b606091505b50915091506123d9868383876123e3565b9695505050505050565b606083156124515782515f0361244a576001600160a01b0385163b61244a5760405162461bcd60e51b815260206004820152601d60248201527f416464726573733a2063616c6c20746f206e6f6e2d636f6e747261637400000060448201526064016106fe565b50816121be565b6121be83838151156124665781518083602001fd5b8060405162461bcd60e51b81526004016106fe9190612872565b6001600160a01b0381168114610783575f5ffd5b5f602082840312156124a4575f5ffd5b813561079581612480565b8015158114610783575f5ffd5b5f5f5f606084860312156124ce575f5ffd5b83356001600160401b03811681146124e4575f5ffd5b92506020840135915060408401356124fb816124af565b809150509250925092565b634e487b7160e01b5f52604160045260245ffd5b5f5f6040838503121561252b575f5ffd5b823561253681612480565b915060208301356001600160401b03811115612550575f5ffd5b8301601f81018513612560575f5ffd5b80356001600160401b0381111561257957612579612506565b604051601f8201601f19908116603f011681016001600160401b03811182821017156125a7576125a7612506565b6040528181528282016020018710156125be575f5ffd5b816020840160208301375f602083830101528093505050509250929050565b5f5f604083850312156125ee575f5ffd5b82356125f981612480565b946020939093013593505050565b5f60208284031215612617575f5ffd5b5035919050565b5f5f6040838503121561262f575f5ffd5b823591506020830135612641816124af565b809150509250929050565b5f5f6040838503121561265d575f5ffd5b823561266881612480565b9150602083013561264181612480565b5f5f60408385031215612689575f5ffd5b823561269481612480565b91506020830135612641816124af565b6020808252602c908201527f46756e6374696f6e206d7573742062652063616c6c6564207468726f7567682060408201526b19195b1959d85d1958d85b1b60a21b606082015260800190565b6020808252602c908201527f46756e6374696f6e206d7573742062652063616c6c6564207468726f7567682060408201526b6163746976652070726f787960a01b606082015260800190565b634e487b7160e01b5f52601160045260245ffd5b808202811582820484141761118f5761118f61273c565b5f8261278157634e487b7160e01b5f52601260045260245ffd5b500490565b8181038181111561118f5761118f61273c565b5f602082840312156127a9575f5ffd5b8151610795816124af565b8082018082111561118f5761118f61273c565b5f600182016127d8576127d861273c565b5060010190565b5f602082840312156127ef575f5ffd5b5051919050565b5f60208284031215612806575f5ffd5b815161079581612480565b6020808252602b908201527f496e697469616c697a61626c653a20636f6e7472616374206973206e6f74206960408201526a6e697469616c697a696e6760a81b606082015260800190565b5f82518060208501845e5f920191825250919050565b602081525f82518060208401528060208501604085015e5f604082850101526040601f19601f8301168401019150509291505056fe360894a13ba1a3210667c828492db98dca3e2076cc3735a920a3ca505d382bbc416464726573733a206c6f772d6c6576656c2064656c65676174652063616c6c206661696c6564a26469706673582212203714deef20b97e190c823eb95a3f5000e7e5f5beb4dc34ed80db21576e00d61364736f6c634300081b0033","linkReferences":{}},"methodIdentifiers":{"EPOCH_DURATION()":"a70b9f0c","MIN_DEPOSIT()":"e1e158a5","WITHDRAWAL_LOCK_EPOCH()":"1b0e9ec7","acceptOwnership()":"79ba5097","addressManager()":"3ab76e9f","getCurrentEpoch()":"b97dd9e2","getEpochReward(uint256)":"d418634a","impl()":"8abf6077","inNonReentrant()":"3075db56","init(address,address)":"f09a4016","lastUnpausedAt()":"e07baba6","owner()":"8da5cb5b","pause()":"8456cb59","pauseUserReward(address,uint256)":"8c7638c4","paused()":"5c975abb","pendingOwner()":"e30c3978","proxiableUUID()":"52d1902d","renounceOwnership()":"715018a6","resolve(bytes32,bool)":"a86f9d9e","resolve(uint64,bytes32,bool)":"3eb6b8cf","stake(address,uint256)":"adc9772e","stakingCalculateRewardDebt(address)":"b1d4a731","stakingClaimReward(address)":"89d5b7a3","stakingDepositReward()":"65ad5750","stakingDepositReward(uint256)":"5d3b554d","stakingRequestWithdrawal(address,bool)":"f575dd55","stakingSlashing(address,uint256)":"54686bfa","stakingState()":"e082f1d4","stakingUserState(address)":"cad9e2ba","stakingWithdrawal(address)":"c067305b","transferOwnership(address)":"f2fde38b","unpause()":"3f4ba83a","upgradeTo(address)":"3659cfe6","upgradeToAndCall(address,bytes)":"4f1ef286"},"storageLayout":{"storage":[{"astId":31568,"contract":"contracts/team/staking/L1Staking.sol:L1Staking","label":"_initialized","offset":0,"slot":"0","type":"t_uint8"},{"astId":31571,"contract":"contracts/team/staking/L1Staking.sol:L1Staking","label":"_initializing","offset":1,"slot":"0","type":"t_bool"},{"astId":36402,"contract":"contracts/team/staking/L1Staking.sol:L1Staking","label":"__gap","offset":0,"slot":"1","type":"t_array(t_uint256)50_storage"},{"astId":31313,"contract":"contracts/team/staking/L1Staking.sol:L1Staking","label":"_owner","offset":0,"slot":"51","type":"t_address"},{"astId":31433,"contract":"contracts/team/staking/L1Staking.sol:L1Staking","label":"__gap","offset":0,"slot":"52","type":"t_array(t_uint256)49_storage"},{"astId":31206,"contract":"contracts/team/staking/L1Staking.sol:L1Staking","label":"_pendingOwner","offset":0,"slot":"101","type":"t_address"},{"astId":31300,"contract":"contracts/team/staking/L1Staking.sol:L1Staking","label":"__gap","offset":0,"slot":"102","type":"t_array(t_uint256)49_storage"},{"astId":16225,"contract":"contracts/team/staking/L1Staking.sol:L1Staking","label":"addressManager","offset":0,"slot":"151","type":"t_address"},{"astId":16229,"contract":"contracts/team/staking/L1Staking.sol:L1Staking","label":"__gap","offset":0,"slot":"152","type":"t_array(t_uint256)25_storage"},{"astId":16551,"contract":"contracts/team/staking/L1Staking.sol:L1Staking","label":"__reentry","offset":0,"slot":"177","type":"t_uint8"},{"astId":16553,"contract":"contracts/team/staking/L1Staking.sol:L1Staking","label":"__paused","offset":1,"slot":"177","type":"t_uint8"},{"astId":16555,"contract":"contracts/team/staking/L1Staking.sol:L1Staking","label":"lastUnpausedAt","offset":2,"slot":"177","type":"t_uint64"},{"astId":16559,"contract":"contracts/team/staking/L1Staking.sol:L1Staking","label":"__gap","offset":0,"slot":"178","type":"t_array(t_uint256)23_storage"},{"astId":22266,"contract":"contracts/team/staking/L1Staking.sol:L1Staking","label":"stakingState","offset":0,"slot":"201","type":"t_struct(StakingState)22210_storage"},{"astId":22270,"contract":"contracts/team/staking/L1Staking.sol:L1Staking","label":"__gap","offset":0,"slot":"247","type":"t_array(t_uint256)50_storage"}],"types":{"t_address":{"encoding":"inplace","label":"address","numberOfBytes":"20"},"t_array(t_uint256)23_storage":{"encoding":"inplace","label":"uint256[23]","numberOfBytes":"736","base":"t_uint256"},"t_array(t_uint256)25_storage":{"encoding":"inplace","label":"uint256[25]","numberOfBytes":"800","base":"t_uint256"},"t_array(t_uint256)39_storage":{"encoding":"inplace","label":"uint256[39]","numberOfBytes":"1248","base":"t_uint256"},"t_array(t_uint256)49_storage":{"encoding":"inplace","label":"uint256[49]","numberOfBytes":"1568","base":"t_uint256"},"t_array(t_uint256)50_storage":{"encoding":"inplace","label":"uint256[50]","numberOfBytes":"1600","base":"t_uint256"},"t_bool":{"encoding":"inplace","label":"bool","numberOfBytes":"1"},"t_mapping(t_address,t_uint256)":{"encoding":"mapping","key":"t_address","label":"mapping(address => uint256)","numberOfBytes":"32","value":"t_uint256"},"t_mapping(t_uint256,t_uint256)":{"encoding":"mapping","key":"t_uint256","label":"mapping(uint256 => uint256)","numberOfBytes":"32","value":"t_uint256"},"t_struct(StakingState)22210_storage":{"encoding":"inplace","label":"struct L1Staking.StakingState","numberOfBytes":"1472","members":[{"astId":22181,"contract":"contracts/team/staking/L1Staking.sol:L1Staking","label":"stakingBalances","offset":0,"slot":"0","type":"t_mapping(t_address,t_uint256)"},{"astId":22185,"contract":"contracts/team/staking/L1Staking.sol:L1Staking","label":"lastClaimedEpoch","offset":0,"slot":"1","type":"t_mapping(t_address,t_uint256)"},{"astId":22189,"contract":"contracts/team/staking/L1Staking.sol:L1Staking","label":"withdrawalRequestEpoch","offset":0,"slot":"2","type":"t_mapping(t_address,t_uint256)"},{"astId":22191,"contract":"contracts/team/staking/L1Staking.sol:L1Staking","label":"totalBalance","offset":0,"slot":"3","type":"t_uint256"},{"astId":22193,"contract":"contracts/team/staking/L1Staking.sol:L1Staking","label":"totalReward","offset":0,"slot":"4","type":"t_uint256"},{"astId":22195,"contract":"contracts/team/staking/L1Staking.sol:L1Staking","label":"lastDepositRewardTime","offset":0,"slot":"5","type":"t_uint64"},{"astId":22197,"contract":"contracts/team/staking/L1Staking.sol:L1Staking","label":"rewardBeginEpoch","offset":8,"slot":"5","type":"t_uint64"},{"astId":22199,"contract":"contracts/team/staking/L1Staking.sol:L1Staking","label":"__reserved2","offset":16,"slot":"5","type":"t_uint64"},{"astId":22201,"contract":"contracts/team/staking/L1Staking.sol:L1Staking","label":"__reserved3","offset":24,"slot":"5","type":"t_uint64"},{"astId":22205,"contract":"contracts/team/staking/L1Staking.sol:L1Staking","label":"epochReward","offset":0,"slot":"6","type":"t_mapping(t_uint256,t_uint256)"},{"astId":22209,"contract":"contracts/team/staking/L1Staking.sol:L1Staking","label":"__gap","offset":0,"slot":"7","type":"t_array(t_uint256)39_storage"}]},"t_uint256":{"encoding":"inplace","label":"uint256","numberOfBytes":"32"},"t_uint64":{"encoding":"inplace","label":"uint64","numberOfBytes":"8"},"t_uint8":{"encoding":"inplace","label":"uint8","numberOfBytes":"1"}}},"id":87}