{"abi":[{"type":"function","name":"acceptOwnership","inputs":[],"outputs":[],"stateMutability":"nonpayable"},{"type":"function","name":"addressManager","inputs":[],"outputs":[{"name":"","type":"address","internalType":"address"}],"stateMutability":"view"},{"type":"function","name":"getAddress","inputs":[{"name":"_chainId","type":"uint64","internalType":"uint64"},{"name":"_name","type":"bytes32","internalType":"bytes32"}],"outputs":[{"name":"","type":"address","internalType":"address"}],"stateMutability":"view"},{"type":"function","name":"impl","inputs":[],"outputs":[{"name":"","type":"address","internalType":"address"}],"stateMutability":"view"},{"type":"function","name":"inNonReentrant","inputs":[],"outputs":[{"name":"","type":"bool","internalType":"bool"}],"stateMutability":"view"},{"type":"function","name":"init","inputs":[{"name":"_owner","type":"address","internalType":"address"}],"outputs":[],"stateMutability":"nonpayable"},{"type":"function","name":"init2","inputs":[{"name":"_owner","type":"address","internalType":"address"}],"outputs":[],"stateMutability":"nonpayable"},{"type":"function","name":"lastUnpausedAt","inputs":[],"outputs":[{"name":"","type":"uint64","internalType":"uint64"}],"stateMutability":"view"},{"type":"function","name":"owner","inputs":[],"outputs":[{"name":"","type":"address","internalType":"address"}],"stateMutability":"view"},{"type":"function","name":"pause","inputs":[],"outputs":[],"stateMutability":"nonpayable"},{"type":"function","name":"paused","inputs":[],"outputs":[{"name":"","type":"bool","internalType":"bool"}],"stateMutability":"view"},{"type":"function","name":"pendingOwner","inputs":[],"outputs":[{"name":"","type":"address","internalType":"address"}],"stateMutability":"view"},{"type":"function","name":"proxiableUUID","inputs":[],"outputs":[{"name":"","type":"bytes32","internalType":"bytes32"}],"stateMutability":"view"},{"type":"function","name":"renounceOwnership","inputs":[],"outputs":[],"stateMutability":"nonpayable"},{"type":"function","name":"resolve","inputs":[{"name":"_chainId","type":"uint64","internalType":"uint64"},{"name":"_name","type":"bytes32","internalType":"bytes32"},{"name":"_allowZeroAddress","type":"bool","internalType":"bool"}],"outputs":[{"name":"","type":"address","internalType":"address"}],"stateMutability":"view"},{"type":"function","name":"resolve","inputs":[{"name":"_name","type":"bytes32","internalType":"bytes32"},{"name":"_allowZeroAddress","type":"bool","internalType":"bool"}],"outputs":[{"name":"","type":"address","internalType":"address"}],"stateMutability":"view"},{"type":"function","name":"setAddress","inputs":[{"name":"_chainId","type":"uint64","internalType":"uint64"},{"name":"_name","type":"bytes32","internalType":"bytes32"},{"name":"_newAddress","type":"address","internalType":"address"}],"outputs":[],"stateMutability":"nonpayable"},{"type":"function","name":"transferOwnership","inputs":[{"name":"newOwner","type":"address","internalType":"address"}],"outputs":[],"stateMutability":"nonpayable"},{"type":"function","name":"unpause","inputs":[],"outputs":[],"stateMutability":"nonpayable"},{"type":"function","name":"upgradeTo","inputs":[{"name":"newImplementation","type":"address","internalType":"address"}],"outputs":[],"stateMutability":"nonpayable"},{"type":"function","name":"upgradeToAndCall","inputs":[{"name":"newImplementation","type":"address","internalType":"address"},{"name":"data","type":"bytes","internalType":"bytes"}],"outputs":[],"stateMutability":"payable"},{"type":"event","name":"AddressSet","inputs":[{"name":"chainId","type":"uint64","indexed":true,"internalType":"uint64"},{"name":"name","type":"bytes32","indexed":true,"internalType":"bytes32"},{"name":"newAddress","type":"address","indexed":false,"internalType":"address"},{"name":"oldAddress","type":"address","indexed":false,"internalType":"address"}],"anonymous":false},{"type":"event","name":"AdminChanged","inputs":[{"name":"previousAdmin","type":"address","indexed":false,"internalType":"address"},{"name":"newAdmin","type":"address","indexed":false,"internalType":"address"}],"anonymous":false},{"type":"event","name":"BeaconUpgraded","inputs":[{"name":"beacon","type":"address","indexed":true,"internalType":"address"}],"anonymous":false},{"type":"event","name":"Initialized","inputs":[{"name":"version","type":"uint8","indexed":false,"internalType":"uint8"}],"anonymous":false},{"type":"event","name":"OwnershipTransferStarted","inputs":[{"name":"previousOwner","type":"address","indexed":true,"internalType":"address"},{"name":"newOwner","type":"address","indexed":true,"internalType":"address"}],"anonymous":false},{"type":"event","name":"OwnershipTransferred","inputs":[{"name":"previousOwner","type":"address","indexed":true,"internalType":"address"},{"name":"newOwner","type":"address","indexed":true,"internalType":"address"}],"anonymous":false},{"type":"event","name":"Paused","inputs":[{"name":"account","type":"address","indexed":false,"internalType":"address"}],"anonymous":false},{"type":"event","name":"Unpaused","inputs":[{"name":"account","type":"address","indexed":false,"internalType":"address"}],"anonymous":false},{"type":"event","name":"Upgraded","inputs":[{"name":"implementation","type":"address","indexed":true,"internalType":"address"}],"anonymous":false},{"type":"error","name":"AM_ADDRESS_ALREADY_SET","inputs":[]},{"type":"error","name":"FUNC_NOT_IMPLEMENTED","inputs":[]},{"type":"error","name":"INVALID_PAUSE_STATUS","inputs":[]},{"type":"error","name":"REENTRANT_CALL","inputs":[]},{"type":"error","name":"RESOLVER_DENIED","inputs":[]},{"type":"error","name":"RESOLVER_INVALID_MANAGER","inputs":[]},{"type":"error","name":"RESOLVER_UNEXPECTED_CHAINID","inputs":[]},{"type":"error","name":"RESOLVER_ZERO_ADDR","inputs":[{"name":"chainId","type":"uint64","internalType":"uint64"},{"name":"name","type":"bytes32","internalType":"bytes32"}]},{"type":"error","name":"ZERO_ADDRESS","inputs":[]},{"type":"error","name":"ZERO_VALUE","inputs":[]}],"bytecode":{"object":"0x60a060405230608052348015610013575f5ffd5b5061001c610029565b610024610029565b6100e5565b5f54610100900460ff16156100945760405162461bcd60e51b815260206004820152602760248201527f496e697469616c697a61626c653a20636f6e747261637420697320696e697469604482015266616c697a696e6760c81b606482015260840160405180910390fd5b5f5460ff908116146100e3575f805460ff191660ff9081179091556040519081527f7f26b83ff96e1f2b6a682f133852f6798a09c465da95921460cefb38474024989060200160405180910390a15b565b6080516115356101195f395f81816104e601528181610526015281816105d701528181610617015261068e01526115355ff3fe608060405260043610610126575f3560e01c8063715018a6116100a8578063a86f9d9e1161006d578063a86f9d9e1461030a578063d8f4648f14610329578063e07baba614610348578063e30c397814610387578063f2fde38b146103a4578063f4fe2556146103c3575f5ffd5b8063715018a61461029d57806379ba5097146102b15780638456cb59146102c55780638abf6077146102d95780638da5cb5b146102ed575f5ffd5b80633eb6b8cf116100ee5780633eb6b8cf146102155780633f4ba83a146102345780634f1ef2861461024857806352d1902d1461025b5780635c975abb1461027d575f5ffd5b806319ab453c1461012a57806328f713cc1461014b5780633075db56146101b35780633659cfe6146101d75780633ab76e9f146101f6575b5f5ffd5b348015610135575f5ffd5b50610149610144366004611122565b6103e2565b005b348015610156575f5ffd5b50610196610165366004611159565b67ffffffffffffffff919091165f90815260c96020908152604080832093835292905220546001600160a01b031690565b6040516001600160a01b0390911681526020015b60405180910390f35b3480156101be575f5ffd5b506101c76104c4565b60405190151581526020016101aa565b3480156101e2575f5ffd5b506101496101f1366004611122565b6104dc565b348015610201575f5ffd5b50609754610196906001600160a01b031681565b348015610220575f5ffd5b5061019661022f366004611190565b6105a3565b34801561023f575f5ffd5b506101496105b9565b6101496102563660046111dd565b6105cd565b348015610266575f5ffd5b5061026f610682565b6040519081526020016101aa565b348015610288575f5ffd5b506101c760b154610100900460ff1660021490565b3480156102a8575f5ffd5b50610149610733565b3480156102bc575f5ffd5b50610149610744565b3480156102d0575f5ffd5b506101496107bb565b3480156102e4575f5ffd5b506101966107ce565b3480156102f8575f5ffd5b506033546001600160a01b0316610196565b348015610315575f5ffd5b506101966103243660046112a3565b6107dc565b348015610334575f5ffd5b506101496103433660046112cd565b6107e8565b348015610353575f5ffd5b5060b15461036e9062010000900467ffffffffffffffff1681565b60405167ffffffffffffffff90911681526020016101aa565b348015610392575f5ffd5b506065546001600160a01b0316610196565b3480156103af575f5ffd5b506101496103be366004611122565b6108c6565b3480156103ce575f5ffd5b506101496103dd366004611122565b610937565b5f54610100900460ff161580801561040057505f54600160ff909116105b806104195750303b15801561041957505f5460ff166001145b61043e5760405162461bcd60e51b81526004016104359061130a565b60405180910390fd5b5f805460ff19166001179055801561045f575f805461ff0019166101001790555b610468826109e6565b609780546001600160a01b0319163017905580156104c0575f805461ff0019169055604051600181527f7f26b83ff96e1f2b6a682f133852f6798a09c465da95921460cefb3847402498906020015b60405180910390a15b5050565b5f60026104d360b15460ff1690565b60ff1614905090565b6001600160a01b037f00000000000000000000000000000000000000000000000000000000000000001630036105245760405162461bcd60e51b815260040161043590611358565b7f00000000000000000000000000000000000000000000000000000000000000006001600160a01b0316610556610a44565b6001600160a01b03161461057c5760405162461bcd60e51b8152600401610435906113a4565b61058581610a5f565b604080515f808252602082019092526105a091839190610a67565b50565b5f6105af848484610bd6565b90505b9392505050565b6105c1610c29565b6105cb335f610cba565b565b6001600160a01b037f00000000000000000000000000000000000000000000000000000000000000001630036106155760405162461bcd60e51b815260040161043590611358565b7f00000000000000000000000000000000000000000000000000000000000000006001600160a01b0316610647610a44565b6001600160a01b03161461066d5760405162461bcd60e51b8152600401610435906113a4565b61067682610a5f565b6104c082826001610a67565b5f306001600160a01b037f000000000000000000000000000000000000000000000000000000000000000016146107215760405162461bcd60e51b815260206004820152603860248201527f555550535570677261646561626c653a206d757374206e6f742062652063616c60448201527f6c6564207468726f7567682064656c656761746563616c6c00000000000000006064820152608401610435565b505f5160206114b95f395f51905f5290565b61073b610cd3565b6105cb5f610d2d565b60655433906001600160a01b031681146107b25760405162461bcd60e51b815260206004820152602960248201527f4f776e61626c6532537465703a2063616c6c6572206973206e6f7420746865206044820152683732bb9037bbb732b960b91b6064820152608401610435565b6105a081610d2d565b6107c3610d46565b6105cb336001610cba565b5f6107d7610a44565b905090565b5f6105b2468484610bd6565b6107f0610cd3565b67ffffffffffffffff83165f90815260c9602090815260408083208584529091529020546001600160a01b039081169082168190036108425760405163a883089360e01b815260040160405180910390fd5b67ffffffffffffffff84165f81815260c96020908152604080832087845282529182902080546001600160a01b0319166001600160a01b038781169182179092558351908152908516918101919091528592917f500dcd607a98daece9bccc2511bf6032471252929de73caf507aae0e082f8453910160405180910390a350505050565b6108ce610cd3565b606580546001600160a01b0383166001600160a01b031990911681179091556108ff6033546001600160a01b031690565b6001600160a01b03167f38d16b8cac22d99fc7c124b9cd0de2d3fa1faef420bfe791d8c362d765e2270060405160405180910390a350565b61093f610cd3565b5f54600290610100900460ff1615801561095f57505f5460ff8083169116105b61097b5760405162461bcd60e51b81526004016104359061130a565b5f805461ffff191660ff831617610100179055610997826109e6565b609780546001600160a01b031916301790555f805461ff001916905560405160ff821681527f7f26b83ff96e1f2b6a682f133852f6798a09c465da95921460cefb3847402498906020016104b7565b5f54610100900460ff16610a0c5760405162461bcd60e51b8152600401610435906113f0565b610a14610db7565b610a326001600160a01b03821615610a2c5781610d2d565b33610d2d565b5060b1805461ff001916610100179055565b5f5160206114b95f395f51905f52546001600160a01b031690565b6105a0610cd3565b7f4910fdfa16fed3260ed0e7147f7cc6da11a60208b5b9406d12a635614ffd91435460ff1615610a9f57610a9a83610ddd565b505050565b826001600160a01b03166352d1902d6040518163ffffffff1660e01b8152600401602060405180830381865afa925050508015610af9575060408051601f3d908101601f19168201909252610af69181019061143b565b60015b610b5c5760405162461bcd60e51b815260206004820152602e60248201527f45524331393637557067726164653a206e657720696d706c656d656e7461746960448201526d6f6e206973206e6f74205555505360901b6064820152608401610435565b5f5160206114b95f395f51905f528114610bca5760405162461bcd60e51b815260206004820152602960248201527f45524331393637557067726164653a20756e737570706f727465642070726f786044820152681a58589b195555525160ba1b6064820152608401610435565b50610a9a838383610e78565b5f610be18484610ea2565b905081158015610bf857506001600160a01b038116155b156105b257604051632b0d65db60e01b815267ffffffffffffffff8516600482015260248101849052604401610435565b610c3d60b154610100900460ff1660021490565b610c5a5760405163bae6e2a960e01b815260040160405180910390fd5b60b1805461010069ffffffffffffffffff0019909116620100004267ffffffffffffffff1602171790556040513381527f5db9ee0a495bf2e6ff9c91a7834c1ba4fdd244a5e8aa4e537bd38aeae4b073aa906020015b60405180910390a1565b604051630c2b8f8f60e11b815260040160405180910390fd5b6033546001600160a01b031633146105cb5760405162461bcd60e51b815260206004820181905260248201527f4f776e61626c653a2063616c6c6572206973206e6f7420746865206f776e65726044820152606401610435565b606580546001600160a01b03191690556105a081610f4d565b610d5a60b154610100900460ff1660021490565b15610d785760405163bae6e2a960e01b815260040160405180910390fd5b60b1805461ff0019166102001790556040513381527f62e78cea01bee320cd4e420270b5ea74000d11b0c9f74754ebdbfc544b05a25890602001610cb0565b5f54610100900460ff166105cb5760405162461bcd60e51b8152600401610435906113f0565b6001600160a01b0381163b610e4a5760405162461bcd60e51b815260206004820152602d60248201527f455243313936373a206e657720696d706c656d656e746174696f6e206973206e60448201526c1bdd08184818dbdb9d1c9858dd609a1b6064820152608401610435565b5f5160206114b95f395f51905f5280546001600160a01b0319166001600160a01b0392909216919091179055565b610e8183610f9e565b5f82511180610e8d5750805b15610a9a57610e9c8383610fdd565b50505050565b6097545f906001600160a01b031680610ece57604051638ed88b2560e01b815260040160405180910390fd5b604051630a3dc4f360e21b815267ffffffffffffffff85166004820152602481018490526001600160a01b038216906328f713cc90604401602060405180830381865afa158015610f21573d5f5f3e3d5ffd5b505050506040513d601f19601f82011682018060405250810190610f459190611452565b949350505050565b603380546001600160a01b038381166001600160a01b0319831681179093556040519116919082907f8be0079c531659141344cd1fd0a4f28419497f9722a3daafe3b4186f6b6457e0905f90a35050565b610fa781610ddd565b6040516001600160a01b038216907fbc7cd75a20ee27fd9adebab32041f755214dbc6bffa90cc0225b39da2e5c2d3b905f90a250565b60606105b283836040518060600160405280602781526020016114d96027913960605f5f856001600160a01b031685604051611019919061146d565b5f60405180830381855af49150503d805f8114611051576040519150601f19603f3d011682016040523d82523d5f602084013e611056565b606091505b509150915061106786838387611071565b9695505050505050565b606083156110df5782515f036110d8576001600160a01b0385163b6110d85760405162461bcd60e51b815260206004820152601d60248201527f416464726573733a2063616c6c20746f206e6f6e2d636f6e74726163740000006044820152606401610435565b5081610f45565b610f4583838151156110f45781518083602001fd5b8060405162461bcd60e51b81526004016104359190611483565b6001600160a01b03811681146105a0575f5ffd5b5f60208284031215611132575f5ffd5b81356105b28161110e565b803567ffffffffffffffff81168114611154575f5ffd5b919050565b5f5f6040838503121561116a575f5ffd5b6111738361113d565b946020939093013593505050565b80358015158114611154575f5ffd5b5f5f5f606084860312156111a2575f5ffd5b6111ab8461113d565b9250602084013591506111c060408501611181565b90509250925092565b634e487b7160e01b5f52604160045260245ffd5b5f5f604083850312156111ee575f5ffd5b82356111f98161110e565b9150602083013567ffffffffffffffff811115611214575f5ffd5b8301601f81018513611224575f5ffd5b803567ffffffffffffffff81111561123e5761123e6111c9565b604051601f8201601f19908116603f0116810167ffffffffffffffff8111828210171561126d5761126d6111c9565b604052818152828201602001871015611284575f5ffd5b816020840160208301375f602083830101528093505050509250929050565b5f5f604083850312156112b4575f5ffd5b823591506112c460208401611181565b90509250929050565b5f5f5f606084860312156112df575f5ffd5b6112e88461113d565b92506020840135915060408401356112ff8161110e565b809150509250925092565b6020808252602e908201527f496e697469616c697a61626c653a20636f6e747261637420697320616c72656160408201526d191e481a5b9a5d1a585b1a5e995960921b606082015260800190565b6020808252602c908201527f46756e6374696f6e206d7573742062652063616c6c6564207468726f7567682060408201526b19195b1959d85d1958d85b1b60a21b606082015260800190565b6020808252602c908201527f46756e6374696f6e206d7573742062652063616c6c6564207468726f7567682060408201526b6163746976652070726f787960a01b606082015260800190565b6020808252602b908201527f496e697469616c697a61626c653a20636f6e7472616374206973206e6f74206960408201526a6e697469616c697a696e6760a81b606082015260800190565b5f6020828403121561144b575f5ffd5b5051919050565b5f60208284031215611462575f5ffd5b81516105b28161110e565b5f82518060208501845e5f920191825250919050565b602081525f82518060208401528060208501604085015e5f604082850101526040601f19601f8301168401019150509291505056fe360894a13ba1a3210667c828492db98dca3e2076cc3735a920a3ca505d382bbc416464726573733a206c6f772d6c6576656c2064656c65676174652063616c6c206661696c6564a26469706673582212207eba791464b5fd555aad7b81ec8dd51f93ad8ca77f93add29e0353cf9b68a20f64736f6c634300081b0033","linkReferences":{}},"methodIdentifiers":{"acceptOwnership()":"79ba5097","addressManager()":"3ab76e9f","getAddress(uint64,bytes32)":"28f713cc","impl()":"8abf6077","inNonReentrant()":"3075db56","init(address)":"19ab453c","init2(address)":"f4fe2556","lastUnpausedAt()":"e07baba6","owner()":"8da5cb5b","pause()":"8456cb59","paused()":"5c975abb","pendingOwner()":"e30c3978","proxiableUUID()":"52d1902d","renounceOwnership()":"715018a6","resolve(bytes32,bool)":"a86f9d9e","resolve(uint64,bytes32,bool)":"3eb6b8cf","setAddress(uint64,bytes32,address)":"d8f4648f","transferOwnership(address)":"f2fde38b","unpause()":"3f4ba83a","upgradeTo(address)":"3659cfe6","upgradeToAndCall(address,bytes)":"4f1ef286"},"storageLayout":{"storage":[{"astId":31425,"contract":"contracts/common/AddressManager.sol:AddressManager","label":"_initialized","offset":0,"slot":"0","type":"t_uint8"},{"astId":31428,"contract":"contracts/common/AddressManager.sol:AddressManager","label":"_initializing","offset":1,"slot":"0","type":"t_bool"},{"astId":36259,"contract":"contracts/common/AddressManager.sol:AddressManager","label":"__gap","offset":0,"slot":"1","type":"t_array(t_uint256)50_storage"},{"astId":31170,"contract":"contracts/common/AddressManager.sol:AddressManager","label":"_owner","offset":0,"slot":"51","type":"t_address"},{"astId":31290,"contract":"contracts/common/AddressManager.sol:AddressManager","label":"__gap","offset":0,"slot":"52","type":"t_array(t_uint256)49_storage"},{"astId":31063,"contract":"contracts/common/AddressManager.sol:AddressManager","label":"_pendingOwner","offset":0,"slot":"101","type":"t_address"},{"astId":31157,"contract":"contracts/common/AddressManager.sol:AddressManager","label":"__gap","offset":0,"slot":"102","type":"t_array(t_uint256)49_storage"},{"astId":16280,"contract":"contracts/common/AddressManager.sol:AddressManager","label":"addressManager","offset":0,"slot":"151","type":"t_address"},{"astId":16284,"contract":"contracts/common/AddressManager.sol:AddressManager","label":"__gap","offset":0,"slot":"152","type":"t_array(t_uint256)25_storage"},{"astId":16606,"contract":"contracts/common/AddressManager.sol:AddressManager","label":"__reentry","offset":0,"slot":"177","type":"t_uint8"},{"astId":16608,"contract":"contracts/common/AddressManager.sol:AddressManager","label":"__paused","offset":1,"slot":"177","type":"t_uint8"},{"astId":16610,"contract":"contracts/common/AddressManager.sol:AddressManager","label":"lastUnpausedAt","offset":2,"slot":"177","type":"t_uint64"},{"astId":16614,"contract":"contracts/common/AddressManager.sol:AddressManager","label":"__gap","offset":0,"slot":"178","type":"t_array(t_uint256)23_storage"},{"astId":16135,"contract":"contracts/common/AddressManager.sol:AddressManager","label":"__addresses","offset":0,"slot":"201","type":"t_mapping(t_uint256,t_mapping(t_bytes32,t_address))"},{"astId":16139,"contract":"contracts/common/AddressManager.sol:AddressManager","label":"__gap","offset":0,"slot":"202","type":"t_array(t_uint256)49_storage"}],"types":{"t_address":{"encoding":"inplace","label":"address","numberOfBytes":"20"},"t_array(t_uint256)23_storage":{"encoding":"inplace","label":"uint256[23]","numberOfBytes":"736","base":"t_uint256"},"t_array(t_uint256)25_storage":{"encoding":"inplace","label":"uint256[25]","numberOfBytes":"800","base":"t_uint256"},"t_array(t_uint256)49_storage":{"encoding":"inplace","label":"uint256[49]","numberOfBytes":"1568","base":"t_uint256"},"t_array(t_uint256)50_storage":{"encoding":"inplace","label":"uint256[50]","numberOfBytes":"1600","base":"t_uint256"},"t_bool":{"encoding":"inplace","label":"bool","numberOfBytes":"1"},"t_bytes32":{"encoding":"inplace","label":"bytes32","numberOfBytes":"32"},"t_mapping(t_bytes32,t_address)":{"encoding":"mapping","key":"t_bytes32","label":"mapping(bytes32 => address)","numberOfBytes":"32","value":"t_address"},"t_mapping(t_uint256,t_mapping(t_bytes32,t_address))":{"encoding":"mapping","key":"t_uint256","label":"mapping(uint256 => mapping(bytes32 => address))","numberOfBytes":"32","value":"t_mapping(t_bytes32,t_address)"},"t_uint256":{"encoding":"inplace","label":"uint256","numberOfBytes":"32"},"t_uint64":{"encoding":"inplace","label":"uint64","numberOfBytes":"8"},"t_uint8":{"encoding":"inplace","label":"uint8","numberOfBytes":"1"}}},"id":41}